:100000000C94B9000C94E1000C94E1000C94E10014
:100010000C94E1000C94E1000C94E1000C94E100DC
:100020000C94E1000C94E1000C94E1000C94E100CC
:100030000C94E1000C94E1000C94E1000C94E100BC
:100040000C94F91B0C94E1000C94C71B0C94A11B9D
:100050000C94E1000C94E1000C94E1000C94E1009C
:100060000C94E1000C94E1004E414E494E49545924
:10007000494E46CDCCCC3D0AD7233C17B7D1387773
:10008000CC2B329595E6241FB14F0A000020410089
:1000900000C84200401C4620BCBE4CCA1B0E5AAED3
:1000A000C59D7400000000240027002A0000000005
:1000B00000250028002B00000000080002010000BD
:1000C0000304070000000000000000CDCCCC3D0A76
:1000D000D7233C17B7D13877CC2B329595E6241F20
:1000E000B14F0A0000803FCDCCCC3D6F12833A95D2
:1000F000BFD6337D1D9026B3CE010C0000204100F9
:1001000000C84200401C4620BCBE4CCA1B0E5AAE62
:10011000C59D74005EBCE2613FDD83C29C7E20A36E
:10012000FD1F41009D23BE46DB65F88C11AF32CA2E
:1001300057E97425642E2530336400000000002345
:10014000002600290004040404040404040202023A
:100150000202020303030303030102040810204008
:100160008001020408102001020408102000521C23
:100170009B1E11241FBECFEFD8E0DEBFCDBF24E011
:10018000A4EAB1E001C01D92AF3CB207E1F711E073
:10019000A0E0B1E0EAECF1E502C005900D92A43ACE
:1001A000B107D9F710E0C8EBD0E004C02197FE01F9
:1001B0000E941926C73BD107C9F70E94A61C0C94C0
:1001C000D8280C940000CF92DF92EF92FF92CF9349
:1001D000DF93B091BB02A0E08111AB2F8091BC02F4
:1001E00090E0880F991FAC01455C5E4FC090C10242
:1001F000D090C202E090C302F090C40230E020E050
:10020000FA01C591D491E881B90190E080E0EB2337
:10021000EA130AC02F5F3F4F6C157D058E059F05C1
:1002200078F36FEF7FEFCB01DF91CF91FF90EF90ED
:10023000DF90CF900895DC0180E0615090F09D91B7
:100240009827E92FEF70F0E0ED5EFE4F2491E92F43
:10025000E295EF70F0E0ED5DFE4FE491822F8E2786
:10026000ECCF0895DC012C911196ED91FC91F8945E
:100270008181822B81839281322F309593239283C7
:1002800087E090E00197F1F781818323818383E206
:1002900090E00197F1F790817894EFECF0E03197DE
:1002A000F1F7922381E009F480E00895FC01908148
:1002B0000180F281E02D292F209560FF14C0F89471
:1002C0008281822382838181892B8183A3E2B0E0B2
:1002D0001197F1F78281982B9283789487ED90E0C3
:1002E0000197F1F70895F8948281822382838181B6
:1002F000892B8183AFEFB0E01197F1F78281982BC2
:10030000928378948FE090E0EBCFDF92EF92FF92B0
:100310000F931F93CF93DF93EC01D62EE42E08E0CA
:1003200010E0FF24F39461E08D2D8F2109F460E04B
:10033000CE010E945601FF0C01501109A1F7E110F6
:1003400010C0F894E981FA81918188818095892390
:100350008183E981FA8192818881809589238283D2
:100360007894DF91CF911F910F91FF90EF90DF90E4
:100370000895EF92FF920F931F93CF93DF938C0119
:100380007B0140E065E50E948501E70188E0E80E19
:10039000F11C699140E0C8010E948501CE15DF057E
:1003A000C1F7DF91CF911F910F91FF90EF900895CA
:1003B000FC0190810180F281E02DF8948181292F48
:1003C00020958223818378943DE743E050E03150CB
:1003D00029F1DA011197F1F780818923C1F3F894AB
:1003E0008281822382838181892B81837894ABE708
:1003F000B7E01197F1F7F894818182238183A3E11B
:10040000B1E01197F1F78081982381E009F080E055
:100410007894E3E6F6E03197F1F7089580E00895E7
:100420004F925F926F927F928F929F92AF92BF9204
:10043000CF92DF92EF92FF920F931F93CF93DF93B0
:100440008C017B01EA01FC01818592850E94D80123
:100450008823D9F1B701F801818592850E94B901FD
:1004600040E06EEBF801818592850E9485016E0166
:100470005E01F9E0AF0EB11C7E01F8018184928427
:1004800088E0682E712C512C44244394C4010E94AE
:10049000320181115428440CF1E06F1A7108B1F750
:1004A000F70151927F01AE16BF0639F7F801818539
:1004B00092850E94D801813041F4F60181916F014B
:1004C000811105C0EE15FF05C1F790E008C068E096
:1004D000CE010E941B0191E028852813F6CF892FB9
:1004E000DF91CF911F910F91FF90EF90DF90CF9010
:1004F000BF90AF909F908F907F906F905F904F9044
:1005000008950F931F93CF93DF93CDB7DEB729974D
:100510000FB6F894DEBF0FBECDBF8B01AE014F5FAB
:100520005F4F0E94100220E834EE882361F12A8197
:1005300030E0322F2227330F330F330F898148E009
:10054000849FC0011124282B392BF8018081803130
:10055000D1F468856623B9F070E08F81AB01481B48
:100560005109CA019695982F8827979587950E94DB
:10057000CF256052710953E0220F331F5A95E1F7DE
:100580002078260F371FC90129960FB6F894DEBFD1
:100590000FBECDBFDF91CF911F910F9108950895A8
:1005A0009C01FB01309761F0948190789A6094836C
:1005B000C901330FAA0BBB0B80839183A283B38342
:1005C0000895FB01309729F0948190789660948388
:1005D00080830895CF93DF93EC0188819981DC01BA
:1005E000ED91FC910190F081E02D09952A813B81EC
:1005F000820F931F9B838A83DF91CF910895CF93BE
:10060000DF93EC0188819981DC01ED91FC910280FE
:10061000F381E02D09952A813B81820F931F9B83F3
:100620008A83DF91CF9108958F929F92AF92BF926C
:10063000CF92DF92EF92FF920F931F93CF93DF93AE
:10064000CDB7DEB766970FB6F894DEBF0FBECDBF4D
:100650006C018E01095E1F4F78018AE0882E912C73
:10066000A12CB12CCB01BA01A50194010E9448250F
:10067000942F852F605DF80162938F01A901692F86
:10068000782F411551056105710561F7A7014E1BD2
:100690005F0BBF01C6010E94FF0266960FB6F89479
:1006A000DEBF0FBECDBFDF91CF911F910F91FF90A5
:1006B000EF90DF90CF90BF90AF909F908F90089574
:1006C000CF92DF92EF92FF926B017C0120E030E04D
:1006D000A9010E94CC2387FD1DC020E030E040E846
:1006E0005FE3C701B6010E94BB261816BCF020E0EC
:1006F00030E040EA53E4C701B6010E9432240E9470
:100700008C267093890060938800FF90EF90DF90B3
:10071000CF900895C12CD12C7601E9CFC12CD12CDA
:1007200080E8E82E8FE3F82EE2CFFC01258122231A
:1007300039F0F8E02F0290011124820F931F0895E1
:1007400090E080E008952F923F924F925F926F92D7
:100750007F928F929F92AF92BF92CF92DF92EF9251
:10076000FF920F931F93CF93DF9300D000D000D060
:10077000CDB7DEB7FC0184809580A680B7808086E7
:100780009186A286B38640805180628073804482C5
:100790005582668277824083518362837383808926
:1007A0009189A289B389848B958BA68BB78BC484DE
:1007B000D584E684F784C08AD18AE28AF38A218CC0
:1007C000308C032D10E01E830D8397018601081BDA
:1007D000190B2A0B3B0B0C0D1D1D2E1D3F1D022C52
:1007E00004C0F594E794D794C7940A94D2F70C19EF
:1007F0001D092E093F09680179018C019D0104C082
:1008000035952795179507952A94D2F70C0D1D1D40
:100810002E1D3F1D032C04C0759567955795479570
:100820000A94D2F7400F511F621F731F2D813E8122
:100830002150310904C075946794579447942A95C0
:10084000D2F7440E551E661E771E04C0B594A794B9
:10085000979487943A94D2F7840C951CA61CB71CE5
:100860002D813E81225031093A832983098004C0B9
:10087000B595A795979587950A94D2F79501840128
:10088000081B190B2A0B3B0BC901B801648775873C
:100890008687978726960FB6F894DEBF0FBECDBF2A
:1008A000DF91CF911F910F91FF90EF90DF90CF904C
:1008B000BF90AF909F908F907F906F905F904F9080
:1008C0003F902F900895AB01770F660B770BBA011D
:1008D00055274427FC01825B9F4F408351836283ED
:1008E0007383448355836683778340875187628708
:1008F00073874487558766877787408B518B628BD8
:10090000738B448B558B668B778B7A96E817F90738
:1009100021F708950F931F93CF93DF93AB01770FC8
:10092000660B770BBA0155274427EC018C01025B5B
:100930001F4FCE010E94A303AB01BC016A96C017F2
:10094000D107B9F7DF91CF911F910F9108958330AF
:1009500081F028F4813099F08230A9F00895873031
:10096000A9F08830C9F08430B1F4809180008F7D87
:1009700003C0809180008F7780938000089584B5B4
:100980008F7784BD089584B58F7DFBCF8091B000B3
:100990008F778093B00008958091B0008F7DF9CF5C
:1009A000CF93DF93282F30E0F901E954FF4F849172
:1009B000F901E75AFE4FD491F901EB5BFE4FC49168
:1009C000CC23A1F081110E94A704EC2FF0E0EE0FE0
:1009D000FF1FE55CFE4FA591B491EC91ED2381E002
:1009E00090E009F480E0DF91CF91089580E090E0FD
:1009F000FACF1F93CF93DF93282F30E0F901E9540A
:100A0000FF4F8491F901E75AFE4FD491F901EB5B56
:100A1000FE4FC491CC23A9F0162F81110E94A70488
:100A2000EC2FF0E0EE0FFF1FE355FF4FA591B491BF
:100A30008FB7F894EC91111108C0D095DE23DC93A8
:100A40008FBFDF91CF911F910895DE2BF8CFCF9309
:100A5000DF9390E0FC01E75AFE4F24918B5B9E4FA1
:100A6000FC0184918823C9F090E0880F991FFC0154
:100A7000ED55FF4FA591B491FC01E355FF4FC59192
:100A8000D49161110DC09FB7F8948C912095822369
:100A90008C938881282328839FBFDF91CF9108956D
:100AA000623051F49FB7F8943C91822F8095832354
:100AB0008C93E8812E2BEFCF8FB7F894EC912E2BEF
:100AC0002C938FBFEACF3FB7F8948091B1019091FA
:100AD000B201A091B301B091B40126B5A89B05C0A5
:100AE0002F3F19F00196A11DB11D3FBFBA2FA92FAD
:100AF000982F8827BC01CD01620F711D811D911DAA
:100B000042E0660F771F881F991F4A95D1F7089515
:100B10008F929F92AF92BF92CF92DF92EF92FF920D
:100B20006B017C010E9463054B015C01C114D1047F
:100B3000E104F104B9F00E946305681979098A0992
:100B40009B09683E73408105910580F381E0C81AD6
:100B5000D108E108F10828EE820E23E0921EA11CC4
:100B6000B11CE4CFFF90EF90DF90CF90BF90AF909B
:100B70009F908F9008952FB7F8946091AD01709178
:100B8000AE018091AF019091B0012FBF0895CF9237
:100B9000DF92EF92FF920F931F93CF93DF93CDB726
:100BA000DEB7C054D1400FB6F894DEBF0FBECDBF44
:100BB0000E94BB050091BD021091BE022091BF02B0
:100BC0003091C0026B017C01C01AD10AE20AF30A1B
:100BD00097018601003D17402105310590F4809171
:100BE000C502C05CDE4F0FB6F894DEBF0FBECDBFAE
:100BF000DF91CF911F910F91FF90EF90DF90CF90F9
:100C000008956093BD027093BE028093BF029093DB
:100C1000C0021092B8021092B7021092B60210925F
:100C2000B5021092B40262E08091B9020E942705D9
:100C300061E070E080E090E00E94880561E08091D2
:100C4000B9020E94270560E08091B9020E94F90470
:100C50008091BA028551823020F58BE291E10197B3
:100C6000F1F762E08091B9020E9427058091C602E7
:100C700090E08230910538F0880F991F880F991FF6
:100C800005970197F1F7F89480E00E94E3006F3F29
:100C90007F4F8F4F9F4F61F41092C502789480E090
:100CA000A0CF64E170E080E090E00E948805D9CF99
:100CB00081E00E94E3006F3F7F4F8F4F9F4F61F3B2
:100CC0008E010F5F1F4F6E012FEBC21A2EEFD20A5B
:100CD000780180E00E94E300F701608371838283E2
:100CE000938381E00E94E300F70164837583868328
:100CF0009783F8E0EF0EF11CEC14FD0451F77894A3
:100D000030E020E0F801C080D180E280F3804481AF
:100D1000558166817781FFEFCF16DF06EF06FF066C
:100D200031F04F3F8FEF58076807780719F410929A
:100D3000C502B5CFF90183E0F595E7958A95E1F70E
:100D4000EC54FD4F8081880FC416D506E606F706E1
:100D500010F180832F5F3F4F085F1F4F283231050E
:100D600089F64091B8022091B4028091B502280F13
:100D70003327331F8091B602280F311D8091B702AF
:100D8000820F932F911D99274817190681F681E04C
:100D90008093C50226CF8160DCCFCF92DF92EF92A5
:100DA000FF920E94C705882349F08091BA028B30D8
:100DB00028F08D3040F08551823030F160E070E0F5
:100DC00080EC9FE71CC06091B50270E090E080E08D
:100DD0000E94D3232DEC3CEC4CEC5DE30E943224CA
:100DE0006B017C016091B40270E090E080E00E94B1
:100DF000D3239B01AC01C701B6010E942026FF90BE
:100E0000EF90DF90CF9008956091B4027091B50299
:100E100076276727762790E080E00E94D1232DEC8B
:100E20003CEC4CEC5DE30E943224E9CFCF92DF92A0
:100E3000EF92FF92CF93DF93EC0189859A850E9410
:100E4000D80140E06CEC89859A850E948501488133
:100E500064E489859A850E9485018C818823E1F06C
:100E6000EB818D818823F9F0888181111CC00E945B
:100E7000BB056B017C0189859A850E943201813016
:100E800059F00E94BB056C197D098E099F096E3EC1
:100E900072408105910578F3DF91CF91FF90EF903B
:100EA000DF90CF900895E9508EEE92E0E33038F471
:100EB000F0E0EE0FFF1FEA5FFE4F808191816C0131
:100EC000990FEE08FF088981882321F060E08A816C
:100ED0000E94F904C701B6010E9488058981882310
:100EE000D9F261E08A81DF91CF91FF90EF90DF909E
:100EF000CF900C94F9040E94BB0528EE33E040E04B
:100F000050E00E944825C90108950E947B07209166
:100F1000BE013091BF01821B930B08954F925F92E7
:100F20006F927F928F929F92AF92BF92CF92DF92F9
:100F3000EF92FF920F931F93CF93DF9380910E0256
:100F4000823619F0803709F037C1C0910F02D09175
:100F50001002C11520E8D207A9F4D0931202C09361
:100F60001102DF91CF911F910F91FF90EF90DF90D1
:100F7000CF90BF90AF909F908F907F906F905F9039
:100F80004F9008958091610490916204A091630450
:100F9000B0916404CA1BDB0BD093C301C093C201A0
:100FA0002091AF043091B0044091B1045091B2044B
:100FB000ACE2B1E00E946A252C01772457FC7094C2
:100FC000672C5092C9014092C8018091B50191E00F
:100FD000980F9093B5018C3309F054C0C090C401B0
:100FE000D090C501E090C601F090C7011092B50104
:100FF000CE01D7FF04C0882799278C1B9D0B209119
:10100000F2013091F301821793070CF0BFC00E94E8
:10101000850789309740B0F5D7FF22C08091110233
:10102000909112029C5F40911203509113036091C2
:101030001403709115038617970724F1CE010D2E26
:10104000000CAA0BBB0B8C0D9D1DAE1DBF1D80930C
:10105000C4019093C501A093C601B093C70112C00B
:10106000209761F380911102909112029450409167
:1010700012035091130360911403709115036817C4
:101080007907E4F6A091EC01B091ED019E010E9478
:1010900002264B015C0189E0B594A794979487944C
:1010A0008A95D1F78092CA019092CB01A092CC018F
:1010B000B092CD01A091EE01B091EF012091C40159
:1010C0003091C5014091C6015091C7010E9411267F
:1010D0006B017C0199E0F594E794D794C7949A95B5
:1010E000D1F7C092CE01D092CF01E092D001F09220
:1010F000D101A091F001B091F10192010E9402266C
:101100008B019C0149E035952795179507954A95E0
:10111000D1F70093D2011093D3012093D4013093DF
:10112000D50180910F0290911002092E000CAA0B9C
:10113000BB0B880D991DAA1DBB1D8C0D9D1DAE1DE1
:10114000BF1D800F911FA21FB31F0091E8011091D6
:10115000E9016801012E000CEE08FF088C159D05C1
:10116000AE05BF0574F00091EA011091EB01012E6C
:10117000000C220B330B80179107A207B3070CF466
:101180008C011093120200931102EBCED701C6011D
:1011900053E0B595A795979587955A95D1F7C81AB5
:1011A000D90AEA0AFB0AC092C401D092C501E092B2
:1011B000C601F092C70166CF80E090E890931002DC
:1011C00080930F02CECE0E947B072091BA0130910E
:1011D000BB01821B930B08950E947B072091B601EF
:1011E0003091B701821B930B0895CF92DF92EF925B
:1011F000FF920F931F93CF9380910E028F3621F4AD
:1012000082E08093E2011FC020911102309112020E
:101210002115304819F41092E20115C09091C802CE
:101220009923C9F39091C903911104C0823699F3AF
:10123000803789F3C091E201C43009F4D9C058F471
:10124000C33008F45AC0CF911F910F91FF90EF90D7
:10125000DF90CF900895C530B1F781E08093E00131
:101260000E947B07B0E0A0E08093B6019093B701A5
:10127000A093B801B093B90100910202109103024A
:101280000E9485070817190708F0AFC08091020275
:1012900090910302C0901203D0901303E0901403C6
:1012A000F09015036701FF24D7FCF094EF2CA09178
:1012B0001502B09116029C010E94022620E13EE038
:1012C00040E050E00E94E325C21AD30AD092D70131
:1012D000C092D60180911102909112028C159D0549
:1012E0000CF4B1CF0E9485078D32914008F4ABCF4A
:1012F000D092D901C092D8018ECF0E947B07B0E076
:10130000A0E08093BE019093BF01A093C001B09371
:10131000C1018091E001811196CF8091E10181119D
:1013200092CF409114035091150380911102909136
:1013300012022091F4013091F501280F391F241772
:1013400035074CF580910E02863649F40E94EC0870
:1013500085389340C8F4C13009F075CF1AC0809128
:10136000130490911404A0911504B09116042091D7
:101370000F0230911002A217B3070CF464CF0E9441
:10138000EC088D32914038F30E94E3088935924091
:1013900010F385E036CF2091F6013091F701820FEE
:1013A000931F481759070CF04ECF8091130490916A
:1013B0001404A0911504B091160420910F023091ED
:1013C00010022A173B070CF43ECF0E94EC08893527
:1013D000924028F4C13009F036CF84E012CF0E9449
:1013E000E3088D329140B0F3F8CF0E94850752CFC9
:1013F00081E08093E1010E947B07B0E0A0E0809350
:10140000BA019093BB01A093BC01B093BD010091C0
:101410000002109101020E94850708171907B8F50C
:101420008091000290910102A0911302B0911402E8
:101430009C010E94022620E13EE040E050E00E9434
:10144000E325E0901203F090130300911403109130
:10145000150378011127F7FC1095012FE20EF31EFA
:10146000F092D701E092D601809111029091120280
:10147000E816F9060CF4E7CE0E9485078D329140FC
:1014800008F4E1CEF092DB01E092DA01C4CE0E94D2
:101490008507CACFAF92BF92CF92DF92EF92FF92B1
:1014A0000F931F93CF93DF936C017B018B01040F8C
:1014B000151FEB015E01AE18BF08C017D10759F028
:1014C0006991D601ED91FC910190F081E02DC6016A
:1014D0000995892B79F7C501DF91CF911F910F9164
:1014E000FF90EF90DF90CF90BF90AF900895FC01F8
:1014F000538D448D252F30E0842F90E0821B930B79
:10150000541710F0CF96089501970895FC01918D1E
:10151000828D981761F0A28DAE0FBF2FB11D5D9621
:101520008C91928D9F5F9F73928F90E008958FEFC3
:101530009FEF08950F931F930E94BB0560931F02B6
:1015400070932002809321029093220287E192E01F
:101550000E94860A97FF1DC00E94BB0500911F02D2
:10156000109120022091210230912202601B710B08
:10157000820B930B00911B0210911C0220911D0203
:1015800030911E026017710782079307F8F28FEF00
:101590009FEF1F910F910895FC01918D828D9817F7
:1015A00031F0828DE80FF11D858D90E008958FEF69
:1015B0009FEF0895FC01918D228D892F90E0805C32
:1015C0009F4F821B91098F739927089587E192E0BD
:1015D0000E94DA0A21E0892B09F420E0822F089585
:1015E00080E090E0892B29F00E94E60A81110C949A
:1015F00000000895FC01A48DA80FB92FB11DA35AB6
:10160000BF4F2C91848D90E001968F739927848F22
:10161000A689B7892C93A089B1898C918370806445
:101620008C93938D848D981306C00288F389E02DE6
:1016300080818F7D80830895EF92FF920F931F9397
:10164000CF93DF93EC0181E0888F9B8D8C8D981375
:101650001AC0E889F989808185FF15C09FB7F89481
:10166000EE89FF896083E889F989808183708064CD
:1016700080839FBF81E090E0DF91CF911F910F9118
:10168000FF90EF900895F62E0B8D10E00F5F1F4F27
:101690000F731127E02E8C8D8E110CC00FB607FC36
:1016A000FACFE889F989808185FFF5CFCE010E94C4
:1016B000FA0AF1CFEB8DEC0FFD2FF11DE35AFF4F2E
:1016C000F0829FB7F8940B8FEA89FB898081806252
:1016D000CFCFCF93DF93EC01888D8823B9F0AA890F
:1016E000BB89E889F9898C9185FD03C0808186FDDD
:1016F0000DC00FB607FCF7CF8C9185FFF2CF80812C
:1017000085FFEDCFCE010E94FA0AE9CFDF91CF919C
:1017100008953F924F925F926F927F928F929F9225
:10172000AF92BF92CF92DF92EF92FF920F931F93EF
:10173000CF93DF936C017B01642EDC011996ED9150
:10174000FC911386158614861286118610861782E0
:101750001682158214821382512C442443945B0117
:10176000B8E0AB0EB11CF601C185D2857D8477202F
:10177000B9F01B861D861C86712C872DDF91CF91B9
:101780001F910F91FF90EF90DF90CF90BF90AF909F
:101790009F908F907F906F905F904F903F900895B3
:1017A000CE010E94D801811104C01B861D861C86B3
:1017B000E4CF40E060EFCE010E94850101E0812C82
:1017C000312C11E0CE010E943201982ECE010E94F0
:1017D0003201F1E09F1219C08130A1F5113448F2B5
:1017E0003B86311001C04D868B81882311F22396F0
:1017F000F70189918193EA15FB05D9F76514C1F1C9
:101800005394651408F0AFCFB8CFE82DF0E09812EC
:101810000FC08B851817A0F4DE01AE0FBF1F139603
:101820008C91802379F4912C193008F41C87312E87
:10183000EC0FFD1F8381902F9095892383830AC02D
:101840008113F1CFFE01E80DF11D8381802B83838D
:1018500099249394692DCE010E9456011F5F000FB9
:1018600011F4839401E087E0881508F0ABCFB6CF80
:1018700067E0C7010E941B01D70117969C9189134D
:10188000BFCF7724739479CF4F925F926F927F92FC
:101890009F92AF92BF92CF92DF92EF92FF920F93FF
:1018A0001F93CF93DF93CDB7DEB761970FB6F89450
:1018B000DEBF0FBECDBF7C01FC01EB50FF4F80812E
:1018C00091810E94D801670129EFC20ED11C5701F6
:1018D00087EFA80EB11C40E0B601D5018D919C9117
:1018E0000E94890B882309F4FAC0F5010081118157
:1018F000D6018C91803109F468C0AE014F5F5F4F13
:10190000B601C8010E941002882309F45EC08D81CF
:101910008F3709F45AC08FE78D83F801818592854E
:101920000E94D801B601D80119968D919C910E9410
:10193000B90140E06EE4F801818592850E9485013D
:1019400040E06B81D80119968D919C910E94850190
:1019500040E06C81F801818592850E948501D60165
:101960008C91803139F040E06D81F801818592855C
:101970000E948501D80119968D919C911A9716960F
:101980002C91222301F10E94D8018823F1F0B601A5
:10199000F801818592850E94B901D8014C9168E4D3
:1019A00019968D919C910E948501F8018081811189
:1019B0003DC064E170E080E090E00E948805D801BD
:1019C00019968D919C910E94D8018CE0F801838337
:1019D0008781823008F453C0912CD80117968C91DE
:1019E0001797981608F04BC013968C918C3009F419
:1019F00046C0492DBE01665F7F4FC8010E94890B1A
:101A00008A85803171F1AE014F5F5F4FBE01665F25
:101A10007F4FC8010E941002882331F08D818F33DF
:101A200011F1D8F48F3139F180E01EC08181882313
:101A300021F060E082810E94F90464E170E080E0BE
:101A400090E00E948805F8018181882309F4B7CFCE
:101A500061E082810E94F904B2CF8F3571F08F3737
:101A600019F78CE001C08AE0F8019381981708F417
:101A700083839394B2CF89E0F7CF8BE0F5CFD50184
:101A8000ED91FC91119714828D919C910E94160703
:101A90000E94BB05F70162837383848395836EEE96
:101AA00072E080E090E00E948805B601D5018D913A
:101AB0009C910E9481028C010E94BB05F70142802B
:101AC0005380648075806419750986099709613DA2
:101AD000774081059105C8F0D70111961C92619657
:101AE0000FB6F894DEBF0FBECDBFDF91CF911F912F
:101AF0000F91FF90EF90DF90CF90BF90AF909F90AD
:101B00007F906F905F904F90089501381F4F69F25A
:101B1000F501808191810E9416076EEE72E080E0EF
:101B200090E00E948805B601D5018D919C910E949C
:101B3000810221E0F701218300E010E88115FCEF2C
:101B40009F075CF08C018115944014F00FEF13E0B7
:101B500085E0000F111F8A95E1F7B801C7010B96C8
:101B60000E946304B801C701875A9F4F0E94630413
:101B700070E060E0C70189559F4F0E946304F70140
:101B8000E357FF4F84859585A685B785F701878341
:101B90009087A187B287A3CFAF92BF92CF92DF92F7
:101BA000EF92FF920F931F93CF93DF93EC010E946C
:101BB000BB050A811B812C813D81601B710B820B4F
:101BC000930B9E0129503F4F79016938734181057C
:101BD000910588F0F701808191810E9416070E948B
:101BE000BB056A837B838C839D836EEE72E080E00D
:101BF00090E00E9488058E0107501F4FB801F70141
:101C0000808191810E9481028138FFEF9F0761F4FA
:101C10001982DF91CF911F910F91FF90EF90DF908C
:101C2000CF90BF90AF900895298121110FC060ED32
:101C300077E080E090E00E948805CE010E94440C8D
:101C4000B801F701808191810E94810200E010E8D3
:101C50008115FCEF9F0764F0811524E0920714F0D2
:101C60008FEF93E08C0185E0000F111F8A95E1F75B
:101C7000B801CE010B960E948A04B801CE01875AA2
:101C80009F4F0E948A048E8181508E838D30B9F4DB
:101C9000FE01E357FF4F84859585A685B7858F8321
:101CA0009887A987BA87F701808191810E941607DA
:101CB0000E94BB056A837B838C839D83AACF81119D
:101CC000F2CF6E013DE8C30ED11CF6014485558567
:101CD000668577858F819885A985BA85481B590BBC
:101CE0006A0B7B0B8E0109551F4F5E01F5EFAF0E9E
:101CF000B11CC8010E94A303AB01BC01065E1F4FCB
:101D0000A016B106B1F7F60184859585A685B7853D
:101D10008F839887A987BA878CE08E83C4CF88EC9D
:101D200093E00E94CC0D8091C903811109C080917C
:101D30000E028B7F823621F488EC93E00E94440CE3
:101D400087EC92E00E94CC0D8091C802811104C002
:101D500087EC92E00C94440C0895FF920F931F932C
:101D6000CF93DF938C0182E0F8018083C8010B964A
:101D70000E94431CC801875A9F4F0E94431CC80100
:101D800089559F4F0E94431CF801128213821482CE
:101D9000158211828FEF86838EE090E00E94C0262C
:101DA000EC01F801F08060E08F2D0E9427058F2D57
:101DB00090E0FC01E75AFE4FE491E883FC01EB5B05
:101DC000FE4FE491F0E0EE0FFF1FE55CFE4F8591C2
:101DD00094919A8389831B861D861C861A86198690
:101DE00018861F821E821D821C821B82F801EB5006
:101DF000FF4FD183C08387E190E00E94C026DC01C1
:101E000056961C921E92559711961C9211971A96EF
:101E1000DC93CE93199717961C92179718961C92DD
:101E200018971C9289E013968C93139781E014966F
:101E30008C93149715968C93159716968C931697EA
:101E4000F801E950FF4FB183A083DF91CF911F913B
:101E50000F91FF900895FC0180819181009711F00E
:101E60000C945C270895FB0101900020E9F731975D
:101E7000AF01461B570B0C94FF021F93CF93DF93C8
:101E8000EEE1F1E01281112379F0329621816213A3
:101E9000F9CFEC016CE50E94EA02612FCE01DF91DF
:101EA000CF911F910C94EA026111F9CF6FE271E0BA
:101EB000DF91CF911F910C94330F2F923F924F924D
:101EC0005F926F927F928F929F92AF92BF92CF92CA
:101ED000DF92EF92FF920F931F93CF93DF93CDB7D3
:101EE000DEB76C970FB6F894DEBF0FBECDBF8C0186
:101EF0001B01DC0114968C9114978F77863009F4BE
:101F000092C268F58230A0F11296ED90FC90139782
:101F1000CC901196DC90843008F056C2A701B6012F
:101F2000C1010E94FF02F101828193816C960FB67C
:101F3000F894DEBF0FBECDBFDF91CF911F910F91FF
:101F4000FF90EF90DF90CF90BF90AF909F908F90D9
:101F50007F906F905F904F903F902F9008958C30BE
:101F600069F160F4883009F459C28A3009F43FC23B
:101F700066E371E0C1010E94330FE5C1803209F4CC
:101F8000ECC18034A9F76BE5C1010E94EA02F801B7
:101F9000008111810115110509F4DAC1B101C801EF
:101FA0000E945D0FC8010E9495038C01892B09F4E2
:101FB000CFC16CE2C1010E94EA02ECCFF801C080FF
:101FC000D180E280F380A7019601C701B6010E948B
:101FD000CC238111CDCF20E030E0A901C701B601AB
:101FE0000E94CC23882379F0A7019601C701B6018E
:101FF0000E9420269B01AC01C701B6010E94CC23A0
:10200000882309F4B5CF20E030E0A901C701B6016B
:102010000E94CC2387FF08C06DE2C1010E94EA0242
:10202000F7FAF094F7F8F09420E836E948E15BE439
:10203000C701B6010E94BB2687FD81C074E1A72EAF
:10204000B12C00E210E0188E1F8AF501E550FF4F19
:102050002591359145915491C701B6010E94BB2647
:1020600087FD13C0F501E553FF4F2591359145914B
:102070005491C701B6010E9432246B017C012F8963
:10208000388D200F311F388F2F8B1595079534E031
:10209000A31AB1088CEFA8168FEFB806B1F6552435
:1020A0005A9420E030E0A901C701B6010E94BB2686
:1020B00018160CF04BC02CEA35EC47E257E3C70189
:1020C000B6010E94CC2318160CF440C0A52DB4E034
:1020D000AB02C0011124B12CA12CFC01ED51FF4F2A
:1020E0003F019C0125503F4F49013FEF531671F1CD
:1020F000F301EA0DFB1D2591359145915491C701DE
:10210000B6010E94CC2387FF13C0F401EA0DFB1D2A
:102110002591359145915491C701B6010E94322411
:102120006B017C018F89988D801B910B988F8F8B11
:10213000159507955A9494E0A91AB108D6CF00E2F4
:1021400010E055E0552E188E1F8AABCFC701B6019F
:102150000E948C264B015C012B013C0106E080E4CF
:1021600092E4AFE0B0E0898F9A8FAB8FBC8F102FD5
:1021700001509AE04916510461047104C8F0698D58
:102180007A8D8B8D9C8D2AE030E040E050E00E94FB
:102190004825298F3A8F4B8F5C8FC301B2012AE00B
:1021A00030E040E050E00E94482529013A01DFCFAD
:1021B000C501B4010E94D1239B01AC01C701B60146
:1021C0000E941F266B017C01698D7A8D8B8D9C8D01
:1021D0000E94D1239B01AC01C701B6010E943224A9
:1021E0002B013C010E948C266B017C010E94D123B3
:1021F0009B01AC01C301B2010E941F269B01AC01EF
:102200000E9420260E948C26C60ED71EE81EF91EAC
:10221000898D9A8DAB8DBC8DC816D906EA06FB0652
:10222000D8F09FEF891A990AA90AB90AAF89B88D1F
:10223000AB2B39F1BAE08B169104A104B10408F17B
:10224000EF89F88D3196F88FEF8BC12CD12C760168
:10225000812C912C540183942AE0422E512C612C24
:10226000712CC701B601A30192010E944825672B7A
:10227000682B692B51F4111644F469017A0111504D
:10228000F0CFC12CD12C7601E7CFB501A401C1015B
:102290000E941403112371F14E01F1E18F0E911C84
:1022A000012F54019AE0492E512C612C712C0150C0
:1022B00068F0C701B601A30192010E944825605D44
:1022C000D4016E934D0169017A01F1CF812F90E025
:1022D000BC0160957095F501E81BF90B31978EE212
:1022E000808344275527461B570B6A0D7B1DC10170
:1022F0000E94FF02EF89F88DEF2B29F165E6C101FD
:102300000E94EA020F89188D17FF07C06DE2C10114
:102310000E94EA02119501951109FE0177969F012D
:102320008AE0E82EF12CC801B7010E94BB25805D30
:1023300082938B01672BB9F7A9014E1B5F0BBF017D
:10234000C1010E94FF02D10112968D919C91EECDA8
:102350006DE5C1010E94EA02F6CF6BE7C1010E9460
:10236000EA02F801008111810115110559F1D80126
:102370001696CC9016971796DC9062E2C1010E94E7
:10238000EA027601F70161917F01662321F0C10124
:102390000E943D0FF7CF62E2C1010E94EA026AE3A8
:1023A000C1010E94EA02B101C8010E945D0FC8018B
:1023B0000E9495038C01892B29F06CE2C1010E94D7
:1023C000EA02D2CF6DE7C5CF62E2C1010E94EA0204
:1023D0008601E00EF11EE016F10639F0F801619178
:1023E0008F01C1010E943D0FF6CF62E2B2CFCD90C6
:1023F000DD90ED90FC90B701A601F7FE0BC06DE2F9
:10240000C1010E94EA0244275527BA014C195D090F
:102410006E097F09C1010E94140385CD4D915D9124
:102420006D917C91F7CF8C916BE371E0811102C0CB
:1024300060E471E0C1010E94330F75CDCF93DF934B
:1024400000D000D0CDB7DEB727E132E03A83298350
:102450001C821B82BE016F5F7F4F09960E945D0F39
:102460000F900F900F900F90DF91CF910895FC0186
:10247000A081B181109749F0FD0101900020E9F79A
:102480003197CF018A1B9B0B089590E080E008955F
:102490004F925F926F927F928F929F92AF92BF9274
:1024A000CF92DF92EF92FF920F931F93CF93DF9320
:1024B00000D000D000D0CDB7DEB76A01411551057C
:1024C00009F460C00097E1F4FA0184818078848384
:1024D00081E026960FB6F894DEBF0FBECDBFDF9128
:1024E000CF911F910F91FF90EF90DF90CF90BF9011
:1024F000AF909F908F907F906F905F904F900895D6
:102500008C013B019E838D839C838B83CE0103963C
:102510000E9437124C01F301A080B180E280F38069
:102520002801480E591EF501E80DF91DEE15FF05AD
:1025300058F1CE0103960E9437129C012F5F3F4F46
:102540002E0D3F1DF3014481558142175307E8F5D5
:1025500081E08087F12CE12CCE0105960E94371294
:10256000AC0130E020E0E114F10411F02FEC32E096
:10257000F60194819078232BE9F5948381E0EF288C
:1025800009F0A7CF80E0A5CF8081811112C01A8306
:102590000983CE0101960E9437128816990649F4E4
:1025A000D501F801E415F50551F09D918191981739
:1025B000C9F3F50181915F018111FBCFB4CFA11463
:1025C000B10409F4B6CF7501C7CF33832283E11478
:1025D000F10411F2F801D701A801480F591F4E1755
:1025E0005F0719F021912D93FACF8E0D9F1DFC01ED
:1025F0001082B2CF95609483F182E082538342834C
:10260000BDCFCF92DF92EF92FF92CF93DF93EC0199
:102610006A017B01F7FE47C08DE28883F094E09465
:10262000D094C094C11CD11CE11CF11CA7019601DF
:10263000317044275527A8EEB3E00E946A25DC01DB
:10264000CB019F5FAF4FBF4F29E0B595A7959795F9
:1026500087952A95D1F79F938F9339E0F594E79466
:10266000D794C7943A95D1F7DF92CF9283E391E064
:102670009F938F931F928BE08F93CE0101969F9330
:102680008F930E94B31F8DB79EB70A960FB6F8942A
:102690009EBF0FBE8DBFCE01DF91CF91FF90EF9017
:1026A000DF90CF90089580E28883C0CFFC01248121
:1026B0003581232B39F421E0FB018081882349F007
:1026C00020E007C0808191810E94AB2821E0892B06
:1026D000B9F7822F0895CF92DF92EF92FF920F9376
:1026E0001F93CF93DF93FC018481982F9F7739F458
:1026F00080788062848311821082138212828481A6
:1027000085FD0BC080E090E0DF91CF911F910F918C
:10271000FF90EF90DF90CF9008956115710591F3D0
:10272000EA017B016F01008111810115110589F119
:10273000D80116966D917C91C7010E94AB28892B18
:1027400031F1C8010E9495038C01EFCF3897FD83CA
:10275000EC833097B9F2E601AA81BB81109791F022
:10276000CF018A1B9B0B23E0959587952A95E1F76E
:1027700015968C93FB83EA8315821482F782E68296
:10278000CF01C2CFF983E883FB83EA83F5CFC80189
:10279000BBCFEC81FD818A819B810896E817F90700
:1027A000A8F681E08887AECF0F931F93CF93DF9376
:1027B000EC0188819981009759F02A813B81261785
:1027C000370730F081E0DF91CF911F910F9108958D
:1027D0008B016F5F7F4F0E94E527009759F0998327
:1027E00088831B830A832C813D81232B59F7FC01AD
:1027F0001082E8CF80E0E7CFEF92FF920F931F9314
:10280000CF93DF93EC017B018A01BA010E94D413BC
:1028100028813981811114C02115310519F0C901B0
:102820000E945C27198218821D821C821B821A82D8
:10283000CE01DF91CF911F910F91FF90EF900895FE
:102840001D830C83B701C9010E94B428F1CF8F9278
:102850009F92AF92BF92CF92DF92EF92FF920F932F
:102860001F93CF93DF93EC018B01FB01C480D580D4
:10287000D60111972FEF3FEFB12CA12C90E080E013
:1028800070E060E0A817B9072CF14617570734F13C
:10289000FC0131967F018C159D0560F4F801808064
:1028A00091808114910431F0F401E80FF91FE08167
:1028B000ED3319F0A817B90759F46F5F7F4F59012D
:1028C000FFEFAF1ABF0A9701A817B90709F09C01DB
:1028D000C701D8CF461757070CF057C069012A1512
:1028E0003B0510F065015901198218821B821A827A
:1028F0001D821C8250E040E06EE271E0CE010E9439
:10290000FC13F801E480F580CE14DF0418F5AE1452
:10291000BF0408F47501F80160817181FB01EE0DBF
:10292000FF1DB08010826C0D7D1D6115710501F1D8
:10293000FB0101900020E9F73197AF01461B570BCF
:10294000CE010E94FC13F80180819181E80EF91EEE
:10295000F701B082CE01DF91CF911F910F91FF90CF
:10296000EF90DF90CF90BF90AF909F908F900895A1
:1029700088819981009711F00E945C271982188242
:102980001D821C821B821A82DECF198218821B8252
:102990001A821D821C8250E040E06EE271E0CE019E
:1029A0000E94FC13D7CF8F929F92AF92BF92CF928B
:1029B000DF92EF92FF920F931F93CF93DF9300D09C
:1029C000CDB7DEB77C01FC01808100E08D3221F4BF
:1029D000FFEFEF1AFF0A01E06EE270E0C7010E940C
:1029E000AB1F5C014AE050E070E060E0C7010E946C
:1029F000B31E6B017C0120E030E0A901A114B104F9
:102A000049F18FEFA81AB80A4AE050E0BE016F5FA3
:102A10007F4FC5010E94B31E19811A199B01AC0199
:102A200099E0220F331F441F551F9A95D1F76AE092
:102A3000862E912CA12CB12C112361F0CA01B90171
:102A40006B5F7F4F8F4F9F4FA50194010E94E3253D
:102A50001150F2CF89E0CC0CDD1CEE1CFF1C8A95D6
:102A6000D1F7C701B601620F731F841F951F0023A2
:102A700039F090958095709561957F4F8F4F9F4F5E
:102A80000F900F90DF91CF911F910F91FF90EF90DA
:102A9000DF90CF90BF90AF909F908F90089549E0C6
:102AA00050E061E070E08EE092E00C9408254F92D7
:102AB0005F926F927F928F929F92AF92BF92CF92CE
:102AC000DF92EF92FF920F931F93CF93DF93CDB7D7
:102AD000DEB7CE50D2400FB6F894DEBF0FBECDBFEA
:102AE00061E089E00E94270561E08AE00E942705F5
:102AF00082EA8093800081E18093810080E491E00C
:102B0000909387008093860010928900109288002D
:102B100010928B0010928A0061E083E00E942705EA
:102B20001092700017BA83E28093B0001AE01093FD
:102B3000B1008FE48093B3001092B40060910A0258
:102B400070910B0280910C0290910D020E94600323
:102B500061E086E00E94270561E086E00E94F904BA
:102B600061E085E00E94270561E085E00E94F904AC
:102B700090E080E00E940025813009F49CC282E64A
:102B800080930E02E12C28E2F22EF0921002E092E5
:102B90000F02F0921202E092110280E190E0909315
:102BA00014028093130280E09AE0909316028093BF
:102BB00015020E944F1583E48093E70188E592E0B7
:102BC000909301028093000280EB94E090930302C3
:102BD0008093020280E094E69093EB018093EA01F7
:102BE00080E092E09093E9018093E801F092ED019A
:102BF000E092EC0123E331E03093EF012093EE010A
:102C000020E03AEF3093F1012093F00120E031E031
:102C10003093F3012093F2019093F5018093F40136
:102C200080E09EEF9093F7018093F6018AE990E0AF
:102C30009093F9018093F8018AE99FEF9093FB014B
:102C40008093FA0186E690E09093FD018093FC0169
:102C500086E69FEF9093FF018093FE0181E08093D1
:102C6000040296E09093EA028093EB0290930403AF
:102C70008093050390931E0380931F0384E0809349
:102C800005022CE0209338038093390320935203EC
:102C90008093530320936C0380936D0393E0909390
:102CA000060210938603909387031093A0039093DA
:102CB000A1031093BA039093BB0390930702109360
:102CC000EB039093EC031093050490930604109388
:102CD0001F049093200495E0909308023EE0309307
:102CE000390490933A0430935304909354043093EE
:102CF0006D0490936E04809309022093870480935F
:102D000088042093A1048093A2042093BB048093A1
:102D1000BC0443E250E06AE070E087EE91E00E947C
:102D2000082561E090E080E00E942A250E944F156E
:102D300043E250E06AE070E087EE91E00E940825EF
:102D400081E08093E20188EC93E00E94440C87ECE0
:102D500092E00E94440C0E948F0E1092E1011092AA
:102D6000E0010E948E070E94F50862E08091B9029E
:102D70000E9427050E94BB05605D7740810991098B
:102D80006093BD027093BE028093BF029093C00215
:102D900087E38093C602E0912702F091280282E047
:102DA0008083E0912302F09124021082E0912502B9
:102DB000F091260280E1808310922F02E0912B0295
:102DC000F0912C0286E08083E0912902F0912A02A2
:102DD000808180618083E0912902F0912A028081C4
:102DE00088608083E0912902F0912A0280818068C6
:102DF0008083E0912902F0912A0280818F7D808377
:102E00000E94CD064B015C018092E3019092E401A7
:102E1000A092E501B092E60186E00E94D004EE2483
:102E2000E394892B09F0E12C85E00E94D004FF2473
:102E3000F394892B09F0F12CCE010F969A838983A4
:102E40009C838B838C509E4F9E838D8398878F832A
:102E500019861E86C0900F02D09010028E010F5F5F
:102E60001F4FA80166E471E0895F91400E946B13D7
:102E7000BC01C6010E94D002A8016FE471E0CE013E
:102E80000A960E946B13FC01892B81F040910A0283
:102E900050910B0260910C0270910D029481907818
:102EA0009C609483408351836283738340901304B6
:102EB0005090140460901504709016042301772438
:102EC00057FC7094672CA80168E571E0CE010A9662
:102ED0000E946B13BC01C2010E94D00240901203F9
:102EE000509013036090140370901503230177240E
:102EF00057FC7094672CA80162E671E0CE010A9637
:102F00000E946B13BC01C2010E94D002A8016EE6B0
:102F100071E0CE010A960E946B13FC01892B41F0EF
:102F2000948190789C60948380829182A282B38203
:102F3000A80167E771E0CE010A960E946B13BC01FD
:102F40008E2D0E94E102A8016FE771E0CE010A9682
:102F50000E946B13BC018F2D0E94E102409115026B
:102F600050911602052E000C660B770BCE018D5F7B
:102F70009D4F0E9401137C01A8016BE871E0CE0116
:102F80000A960E946B13AC01B801C7010E94481257
:102F90004091130250911402052E000C660B770B22
:102FA000CE018D5F9D4F0E9401137C01A80167E84F
:102FB00071E0CE010A960E946B13AC01B801C70103
:102FC0000E9448124091EC015091ED01052E000C39
:102FD000660B770BCE018D5F9D4F0E9401137C0124
:102FE000A80162E971E0CE010A960E946B13AC0160
:102FF000B801C7010E9448124091EE015091EF01C3
:10300000052E000C660B770BCE018D5F9D4F0E9445
:1030100001137C01A80165E971E0CE010A960E94C6
:103020006B13AC01B801C7010E9448124091F00136
:103030005091F101052E000C660B770BCE018D5FD0
:103040009D4F0E9401137C01A80168E971E0CE0147
:103050000A960E946B13AC01B801C7010E94481286
:1030600087E192E00E94DA0A892B19F0C8010E94D8
:103070001E1288E199E20FB6F894A895809360003B
:103080000FBE90936000C25FDD4F0FB6F894DEBFB5
:103090000FBECDBFDF91CF911F910F91FF90EF90A9
:1030A000DF90CF90BF90AF909F908F907F906F9068
:1030B0005F904F90089549E050E061E070E08EE04D
:1030C00092E00E94F02443E250E06AE070E087EE74
:1030D00091E00E94F02434CEFC019B0145E035953F
:1030E00027954A95E1F72B3A8FEF3807D4F012165F
:1030F000130614F430E020E026553E4F032E000C5A
:10310000440B550BA081B1810E94112629E09595B1
:103110008795779567952A95D1F7718360830C948D
:103120004F1525E531E040E050E0ECCFFC019B017C
:1031300045E0359527954A95E1F737FD21C02B39B4
:10314000310514F02AE930E02A593D4F032E000CD6
:10315000440B550BA081B1810E94112661152EEF01
:1031600072072FEF8207910584F429E095958795E2
:10317000779567952A95D1F7718360830C944F15E5
:1031800026E632E040E050E0E5CF6FEF7FE7F4CF96
:103190002F923F924F925F926F927F928F929F9267
:1031A000AF92BF92CF92DF92EF92FF920F931F9355
:1031B000CF93DF93CDB7DEB7CE50D2400FB6F894A1
:1031C000DEBF0FBECDBF0E948F0E8091E10188232C
:1031D00009F466C08091E201843009F461C0C090B6
:1031E0006403D0906503E0906603F09067038091DC
:1031F000600390916103A0916203B09163038C1509
:103200009D05AE05BF050CF032C280916803909118
:103210006903A0916A03B0916B03C816D906EA0648
:10322000FB060CF424C26701FF24D7FCF094EF2CBA
:103230008601C11420E8D20609F419C28091DA018E
:103240009091DB012091F8013091F901820F931FD9
:103250008C159D053CF4B601681B790B83E192E067
:103260000E9496188091DA019091DB012091FA0179
:103270003091FB01820F931FB601681B790B081771
:1032800019070CF41AC21092E1011093DF010093A8
:10329000DE010E94E3088538934010F01092E101AE
:1032A0008091E001882309F46FC08091E2018530AC
:1032B00009F46AC0C0906403D0906503E09066038F
:1032C000F09067038091600390916103A091620385
:1032D000B0916303C816D906EA06FB060CF0F2C1EA
:1032E0008091680390916903A0916A03B0916B0388
:1032F0008C159D05AE05BF050CF4E4C16701FF24E4
:10330000D7FCF094EF2C8601C11480E8D80609F4AC
:10331000D9C18091D8019091D9012091FE013091BD
:10332000FF01820F931FC816D9063CF4B601681B33
:10333000790B85E192E00E9496188091D8019091D6
:10334000D9012091FC013091FD01280F391F201770
:1033500031076CF42091FE013091FF01820F931F21
:10336000B601681B790B85E192E00E946C181092FF
:10337000E0011093DD010093DC010E94EC0889302C
:10338000974010F01092E0010E948E070E94F5080D
:103390008091E201843009F4C3C161E0853009F411
:1033A00060E086E00E94F90461E085E00E94F90493
:1033B00086E00E94D0046C0133243394892B09F0F9
:1033C000312C85E00E94D0047C0122242394892B97
:1033D00009F0212C0E94CD062B013C014092E30113
:1033E0005092E4016092E5017092E601CE010F96E1
:1033F0009A8389839C838B838C509E4F9E838D837D
:1034000098878F8319861E86A0900F02B0901002B5
:103410008E010F5F1F4FA80166E471E0895F914044
:103420000E946B13BC01C5010E94D002A8016FE489
:1034300071E0CE010A960E946B13FC01892B81F08A
:1034400040910A0250910B0260910C0270910D02A2
:10345000948190789C6094834083518362837383CA
:103460008090130490901404A0901504B09016045A
:103470004501BB2497FCB094AB2CA80168E571E032
:10348000CE010A960E946B13BC01C4010E94D002B7
:103490008090120390901303A0901403B090150332
:1034A0004501BB2497FCB094AB2CA80162E671E007
:1034B000CE010A960E946B13BC01C4010E94D00287
:1034C000A8016EE671E0CE010A960E946B13FC0122
:1034D000892B41F0948190789C6094834082518242
:1034E00062827382A80167E771E0CE010A960E94AA
:1034F0006B13BC01832D0E94E102A8016FE771E00C
:10350000CE010A960E946B13BC01822D0E94E1023B
:103510004091150250911602052E000C660B770B98
:10352000CE018D5F9D4F0E9401135C01A8016BE8E5
:1035300071E0CE010A960E946B13AC01B801C5017F
:103540000E9448124091130250911402052E000C63
:10355000660B770BCE018D5F9D4F0E9401135C01BE
:10356000A80167E871E0CE010A960E946B13AC01D6
:10357000B801C5010E9448124091EC015091ED0143
:10358000052E000C660B770BCE018D5F9D4F0E94C0
:1035900001135C01A80162E971E0CE010A960E9464
:1035A0006B13AC01B801C5010E9448124091EE01B5
:1035B0005091EF01052E000C660B770BCE018D5F4D
:1035C0009D4F0E9401135C01A80165E971E0CE01E5
:1035D0000A960E946B13AC01B801C5010E94481203
:1035E0004091F0015091F101052E000C660B770B14
:1035F000CE018D5F9D4F0E9401135C01A80168E917
:1036000071E0CE010A960E946B13AC01B801C501AE
:103610000E94481287E192E00E94DA0A892B19F091
:10362000C8010E941E12CD2809F480C0EF2809F4B9
:103630007DC01092890010928800C25FDD4F0FB6E6
:10364000F894DEBF0FBECDBFDF91CF911F910F91D8
:10365000FF90EF90DF90CF90BF90AF909F908F90B2
:103660007F906F905F904F903F902F9008950E94B1
:10367000E3080A968538934008F40BCE8091120334
:1036800090911303A0911403B0911503CD01BB27B2
:1036900097FDB095AB2F8C012091DA013091DB01C1
:1036A0004091FA015091FB01240F351F82179307B7
:1036B0000CF0EFCDBC01621B730B83E192E00E9422
:1036C0006C18E1CD0E94EC080A968930974008F406
:1036D00054CE8091D8019091D9012091FC01309174
:1036E000FD01280F391F409112035091130360917F
:1036F000140370911503261737070CF03ECE209166
:10370000FE013091FF01820F931F60E070E8681B9B
:10371000790B85E192E00E946C1800E010E827CE5A
:1037200061E086E00E94F90460E03FCE60910A0209
:1037300070910B0280910C0290910D020E94600327
:103740007CCF1F920F920FB60F9211242F933F93AD
:103750004F935F936F937F938F939F93AF93BF9399
:10376000EF93FF9387E192E00E94FA0AFF91EF91B5
:10377000BF91AF919F918F917F916F915F914F9189
:103780003F912F910F900FBE0F901F9018951F9291
:103790000F920FB60F9211242F938F939F93EF9355
:1037A000FF93E0912702F09128028081E0912D02A1
:1037B000F0912E0282FD1BC09081809130028F5FBC
:1037C0008F7320913102821741F0E0913002F0E0D6
:1037D000E95EFD4F958F80933002FF91EF919F91AD
:1037E0008F912F910F900FBE0F901F901895808191
:1037F000F4CF1F920F920FB60F9211242F933F9385
:103800008F939F93AF93BF938091AD019091AE0141
:10381000A091AF01B091B0013091AC0123E0230F32
:103820002D3758F50196A11DB11D2093AC01809351
:10383000AD019093AE01A093AF01B093B001809120
:10384000B1019091B201A091B301B091B401019680
:10385000A11DB11D8093B1019093B201A093B3015A
:10386000B093B401BF91AF919F918F913F912F91F0
:103870000F900FBE0F901F90189526E8230F029609
:10388000A11DB11DD2CFFC0198E0908F82E0818F05
:1038900092AB83ABDF01A45BBF4F9C93E35BFF4F15
:1038A00080830895E7E1F2E01382128288EE93E0CC
:1038B000A0E0B0E084839583A683B78380E191E0A4
:1038C0009183808385EC90E09587848784EC90E0F9
:1038D0009787868780EC90E0918B808B81EC90E0DD
:1038E000938B828B82EC90E0958B848B86EC90E0BE
:1038F000978B868B118E128E138E148EA4EBB2E0F2
:1039000087E015968C9315978BE016968C931697F7
:10391000E0E6F1E0E4911796EC931797ECE4F1E020
:10392000E4911896EC93189740E85EE360E070E04D
:103930001D964D935D936D937C93509788EC93E027
:103940000E94AD0E87EC92E00C94AD0ECF93DF9306
:10395000CDB7DEB76E970FB6F894DEBF0FBECDBF02
:10396000789484B5826084BD84B5816084BD85B55A
:10397000826085BD85B5816085BD80916E00816066
:1039800080936E001092810080918100826080930C
:10399000810080918100816080938100809180000E
:1039A0008160809380008091B10084608093B10039
:1039B0008091B00081608093B00080917A00846033
:1039C00080937A0080917A00826080937A0080915F
:1039D0007A00816080937A0080917A008068809379
:1039E0007A001092C1000E94571599E0492E512C7F
:1039F000612C712C80E0C82E80E0D82EA8950E9402
:103A0000C81887E192E00E94DA0A892B09F436C1CE
:103A10001A8E198E1C8E1B8E1E8E1D8E50E040E05D
:103A20006EE271E0CE0149960E94FC130E949A0A50
:103A300097FD1EC08A309105D9F089831A820D8DB9
:103A40001E8D0F5F1F4FB801CE0149960E94D413FF
:103A5000882361F3298D3A8D8D8D9E8DBE016F5F18
:103A60007F4F820F931F0E94B4281E8F0D8FDECFD1
:103A700042E050E06BE971E087E192E00E944A0A7F
:103A80001A8219821C821B821E821D8245E050E030
:103A90006EE971E0CE0101960E94FC134D815E81BA
:103AA0008D8D9E8D8417950770F0898D9A8D009766
:103AB00051F069817A816115710529F00E94BB2856
:103AC00011E0892B09F010E0CE0101960E942B0F26
:103AD000112309F4CFC01C8A1B8A1E8A1D8A188EE6
:103AE0001F8A698D7A8D6115710531F04D8D5E8D5E
:103AF000CE0143960E94FC13ADB6BEB61A8219825F
:103B00001C821B821E821D826B897C896115710556
:103B100031F04F89588DCE0101960E94FC1350E080
:103B200040E0BE016F5F7F4FCE010D960E942714CB
:103B3000CE0101960E942B0F49895A8941155105E2
:103B4000B9F0BA014530510510F065E070E08D859F
:103B50009E85461B570B5A8B498B680F791F0E9415
:103B6000C928ED85FE8589899A89E80FF91F108299
:103B70001A8219821C821B821E821D826B897C899B
:103B80006115710531F04F89588DCE0101960E9463
:103B9000FC1341E050E0BE016F5F7F4FCE010796FE
:103BA0000E942714CE0101960E942B0FEB84FC8407
:103BB000C70101962DB73EB7281B390B0FB6F894F5
:103BC0003EBF0FBE2DBF0DB71EB70F5F1F4F892B16
:103BD00071F0F801E114F10449F06F817885A701D3
:103BE000C8010E94C928F801EE0DFF1D108266E48D
:103BF00071E0CE010D960E945613882309F44DC042
:103C0000C8010E94D3149B01AC018091E701863466
:103C100059F4305441095109A5E0B0E00E946A25E9
:103C2000A30192010E94E3252115F0E83F07FFEF71
:103C30004F075F077CF1211580E8380741055105E2
:103C400024F02FEF3FE740E050E030931002209344
:103C50000F02CE0107960E942B0FCE010D960E94F7
:103C60002B0F0FB6F894BEBE0FBEADBECE0143966D
:103C70000E942B0FCE0149960E942B0FC114D10434
:103C800009F4BCCE0E94E60A882309F4B3CE0E9450
:103C90000000B0CE20E030E8D8CF6FE471E0CE0174
:103CA0000D960E9456138823A9F08F81988500975E
:103CB00069F00E949E1F60930A0270930B0280932A
:103CC0000C0290930D020E946003C3CF60E070E08D
:103CD000CB01F1CF62E971E0CE010D960E9456133F
:103CE000882341F0C8010E94D3147093ED016093C2
:103CF000EC01AFCF65E971E0CE010D960E9456133D
:103D0000882341F0C8010E94D3147093EF0160939F
:103D1000EE019FCF68E971E0CE010D960E94561327
:103D2000882309F496CFC8010E94D3147093F1013F
:103D30006093F0018ECF8091BC039091BD030E94EF
:103D40005C278091BE039091BF030E945C27809105
:103D5000BD049091BE040E945C278091BF049091A5
:103D6000C0040C945C27B0E0A0E0E9EBFEE10C9409
:103D700076255C016B017A016115710519F0FB0173
:103D800091838083E114F10449F0C701029783977E
:103D900028F060E070E0CB019CC05E01E501219657
:103DA000F5011081812F90E00E94A21F892BA9F7B5
:103DB0001D3209F056C02196F501118101E0E11490
:103DC000F10409F4AEC0F0E1EF16F10409F08EC081
:103DD000103341F488818F7D883509F083C01981C3
:103DE00022960260E0E1EE2EF12C88248A94982C31
:103DF000A82CFFE0BF2E20E060E070E0CB0127019F
:103E00000F2C000C66087708FE0150ED352E310EA0
:103E100039E0331538F43FEB310F3A31A0F549EC76
:103E2000342E310E3E141F04BCF52F3FB9F0861618
:103E30009706A806B90670F1A30192010E943825E1
:103E4000232D30E050E040E0620F731F841F951F68
:103E50006217730784079507E8F021E02196108127
:103E6000D3CF1B3221F4E5012296F501118100E048
:103E7000A6CF78E0E72EF12C88248A94982CA82CE1
:103E80006FE1B62EB8CF3FE9310F3A3128F439EA65
:103E9000332EC7CF2FEFE2CFC114D10431F022234C
:103EA000E9F02197F601D183C08300FF07C0909508
:103EB0008095709561957F4F8F4F9F4F2F3F49F4AD
:103EC00082E290E09093CA048093C9046FEF7FEF81
:103ED000CB01CDB7DEB7E1E10C94922501FFE5CF30
:103EE0002297E0CF10E3E114F10419F23AE0E3166F
:103EF000F104E9F080E1E816F10409F473CFE8E099
:103F0000EE16F10409F4B8CF6FEF7FEFCB01970104
:103F10000F2C000C440B550B0E94482549015A01F7
:103F20006ACF103309F456CF9AE0E92EF12C89E9D3
:103F3000882E982CA82C89E1B82E5DCF662777278C
:103F40000C94BD2191110C940D23803219F08950ED
:103F50008550C8F70895FC01019006160110E1F79D
:103F60003197CF010895AEE0B0E0E9EBFFE10C94AA
:103F700083250D891E898F89988D2EE02C831A83C5
:103F8000098397FF02C080E090E801979E838D83AC
:103F9000AE01455E5F4F698D7A8DCE0101960E941C
:103FA000E31F4D815E8157FD0AC02F81388542177E
:103FB00053070CF49A01020F131FF80110822E967A
:103FC000E4E00C949F25ABE0B0E0E9EEFFE10C9457
:103FD00075257C013B018A01FC01178216828381D1
:103FE00081FFC8C1CE0101965C01F7019381F30105
:103FF00093FD859193FF81913F01882309F453C17B
:10400000853239F493FD859193FF81913F0185328B
:1040100029F4B70190E00E943E23E7CF912C212C98
:10402000312CFFE1F31538F08B3211F190F480322E
:1040300009F1833229F137FC3CC020ED280F2A30EA
:1040400050F536FE20C08AE0989E200D1124922E55
:1040500006C08D3291F0803371F7689430F8F30127
:1040600093FD859193FF81913F018111DACF21C0AA
:10407000689431F8689432F8F2CF689433F8EFCF4F
:10408000689434F8ECCFEAE02E9E200D1124222E05
:10409000689435F8E4CF8E3229F436FC04C1689474
:1040A00036F8DDCF8C3619F4689437F8D8CF8836D7
:1040B000B1F2982F9F7D95549330E0F08336A1F1B3
:1040C0008337C1F1833509F063C02801F2E04F0E58
:1040D000511CF801C080D180692D70E036FC02C00F
:1040E0006FEF7FEFC6010E9428234C01689437F8D8
:1040F00082010AC00C5F1F4FFFE3F9838824839479
:10410000912C6501E89437F833FE2DC0522C8114B0
:10411000910471F5552009F468CFB70180E290E071
:104120000E943E235A94F6CFF801808189830E5F66
:104130001F4FE4CF2801F2E04F0E511CF801C08060
:10414000D180692D70E036FC02C06FEF7FEFC601B1
:104150000E9433234C018201D5CFB70180E290E069
:104160000E943E232A942814190409F0B0F7CECFF8
:10417000F60137FC859137FE81916F01B70190E020
:104180000E943E2351105A94F1E08F1A9108BFCF3C
:10419000843619F0893609F077C0F80137FE6BC014
:1041A00060817181828193810C5F1F4FF32DFF76B7
:1041B0003F2E97FF09C090958095709561957F4F30
:1041C0008F4F9F4F689437F82AE030E0A5010E9496
:1041D0006E23C82ECA188C2C432C36FE0CC0E894D3
:1041E00040F8C91440F434FE05C032FC03C0F32D7E
:1041F000FE7E4F2E892C44FE95C0FE01EC0DF11D74
:104200008081803309F087C0242D297E422E842DA1
:104210008870582E43FC95C040FE8FC09C2C8214A1
:1042200018F42C0C922C981844FE91C0B70180E32E
:1042300090E00E943E2342FE09C088E790E041FEE4
:1042400002C088E590E0B7010E943E23C91408F43B
:104250008AC0CA94D12C9FEFC91AD90ACA0CDB1C98
:10426000F60182916F01B70190E00E943E23AC14E9
:10427000BD04B1F74FCF60817181072E000C880B10
:10428000990B0E5F1F4F92CFD32CE894D4F82AE0FD
:1042900030E0853739F1232D297FD22E8F3601F179
:1042A00048F48835A9F0F701868197812B96E2E1E1
:1042B0000C949125803749F08837A9F7D4FE02C0C5
:1042C0006894D2F820E130E00DC06894D4F8F6CFBD
:1042D00034FE03C0822F8660D82E20E132E002C077
:1042E00028E030E0F801D7FE0FC060817181828143
:1042F00093810C5F1F4FA5010E946E23C82ECA1820
:104300003D2CE89437F867CF6081718190E080E0C0
:104310000E5F1F4FF0CF42FC02C0839478CF83948E
:10432000839475CF842D867809F471CFF6CFB701C9
:1043300080E290E00E943E2383948214C0F3512CCB
:1043400073CF522C5818821408F46ECFF8CF842DF6
:10435000867809F47BCF8BE241FE80E247FC8DE258
:10436000B70190E071CFB70180E390E00E943E2357
:104370009A946CCF8FEF9FEF99CFB0E0A0E0E3EC81
:10438000F1E20C947B255C017B016115710519F04C
:10439000DB018D939C9385010F5F1F4FF501D08149
:1043A0008D2F90E00E94A21F6C01892BB9F5DD32A0
:1043B000B9F50F5F1F4FD5011196DC91C1E058018F
:1043C000F1E0AF1AB10843E050E060E770E0C501EA
:1043D0000E941023892B69F5680182E0C80ED11C68
:1043E00045E050E06BE670E0C6010E941023892B87
:1043F00021F4680197E0C90ED11CE114F10419F011
:10440000D701CD92DC9260E070E080E89FEFC111AF
:10441000FFC060E070E080E89FE7FAC05801BBCFC2
:10442000DB3229F485010E5F1F4FF501D181C0E019
:10443000C6CF43E050E068E670E0C5010E9410235B
:10444000892BE9F0F80110E000E020E030E0A9015C
:104450005F01B0ED8B2E8D0E89E08815C8F19C2E82
:10446000689491F88C2F8870C2FF16C0811102C029
:104470000F5F1F4F3196D501DC91C92DE9CFE114B3
:10448000F10429F00E5F1F4FF7011183008360E0F4
:1044900070E080EC9FE7BCC0882311F00150110947
:1044A000A5E0B0E00E946A259B01AC01220F331FFA
:1044B000441F551F280D311D411D511D283999E9F3
:1044C0003907490799E15907A8F2C6609C2ED2CF57
:1044D000AEEF8A1206C0C3FD3CC09C2E689493F8D0
:1044E000C9CFDF7DD534A9F580818D3239F4C06123
:1044F000DF011296818162E070E006C0DF018B323D
:10450000C1F3119661E070E080535D01A61AB70A0D
:104510008A30F8F4E0E8CE16ECE0DE065CF4B60192
:10452000660F771F660F771FC60ED71ECC0CDD1CDB
:10453000C80ED11C5D01FFEFAF1ABF0A8C918053EA
:104540008A30A8F1C4FF03C0D194C194D1080C0DE6
:104550001D1DC1FF09C0E114F10431F081E0A81A6A
:10456000B108D701AD92BC92CA01B9010E94D12312
:10457000C370C33009F490584B015C0120E030E077
:10458000A9010E94CC23882309F440C0CFE9D0E0E0
:1045900017FF05C0119501951109C7E8D0E06E011C
:1045A000B8E1CB1AD10880E2E82EF12C0FC0D5017A
:1045B000B1CFFE0125913591459154910E191F09F6
:1045C000C501B4010E9432244B015C01D501C40134
:1045D0000E151F0574F72497F594E794CC16DD06A5
:1045E000A9F78A2F880F8B2F881F8F3F49F020E073
:1045F00030E0A901C501B4010E94CC23811106C09D
:1046000082E290E09093CA048093C904C501B4018A
:10461000CDB7DEB7ECE00C9497259927882708954D
:10462000FB01DC014150504088F08D9181341CF039
:104630008B350CF4805E659161341CF06B350CF4A5
:10464000605E861B611171F3990B0895881BFCCF86
:10465000FC010590615070400110D8F7809590954D
:104660008E0F9F1F0895FC01615070400190011052
:10467000D8F7809590958E0F9F1F08950F931F93E5
:10468000CF93DF93182F092FEB018B8181FD09C098
:104690001FEF0FEF812F902FDF91CF911F910F917F
:1046A000089582FF14C02E813F818C819D8128173F
:1046B00039073CF4E881F981CF0101969983888319
:1046C00010838E819F8101969F838E83E3CFE8853F
:1046D000F985812F0995892BA1F3DACFFA01AA2751
:1046E000283051F1203181F1E8946F936E7F6E5F35
:1046F0007F4F8F4F9F4FAF4FB1E03ED0B4E03CD0E3
:10470000670F781F891F9A1FA11D680F791F8A1FC5
:10471000911DA11D6A0F711D811D911DA11D20D02C
:1047200009F468943F912AE0269F11243019305DE6
:104730003193DEF6CF010895462F4770405D4193D7
:10474000B3E00FD0C9F7F6CF462F4F70405D4A3324
:1047500018F0495D31FD4052419302D0A9F7EACFEC
:10476000B4E0A6959795879577956795BA95C9F71B
:1047700000976105710508959B01AC010A2E06940E
:104780005795479537952795BA95C9F7620F731FC7
:10479000841F951FA01D08950E940E2408F481E037
:1047A0000895E89409C097FB3EF490958095709524
:1047B00061957F4F8F4F9F4F9923A9F0F92F96E96D
:1047C000BB279395F695879577956795B795F111E2
:1047D000F8CFFAF4BB0F11F460FF1BC06F5F7F4F7F
:1047E0008F4F9F4F16C0882311F096E911C0772391
:1047F00021F09EE8872F762F05C0662371F096E89A
:10480000862F70E060E02AF09A95660F771F881F68
:10481000DAF7880F9695879597F90895990F00080C
:10482000550FAA0BE0E8FEEF16161706E807F90782
:10483000C0F012161306E407F50798F0621B730B1D
:10484000840B950B39F40A2661F0232B242B252B9E
:1048500021F408950A2609F4A140A6958FEF811D41
:10486000811D08950E9445240C94B6240E94A8241A
:1048700038F00E94AF2420F0952311F00C949F246F
:104880000C94A52411240C94EA240E94C72470F3EC
:10489000959FC1F3950F50E0551F629FF001729FE5
:1048A000BB27F00DB11D639FAA27F00DB11DAA1FF4
:1048B000649F6627B00DA11D661F829F2227B00D41
:1048C000A11D621F739FB00DA11D621F839FA00DCC
:1048D000611D221F749F3327A00D611D231F849F1C
:1048E000600D211D822F762F6A2F11249F57504073
:1048F0009AF0F1F088234AF0EE0FFF1FBB1F661FEE
:10490000771F881F91505040A9F79E3F510580F0B6
:104910000C949F240C94EA245F3FE4F3983ED4F374
:10492000869577956795B795F795E7959F5FC1F75A
:10493000FE2B880F911D9695879597F9089597F905
:104940009F6780E870E060E008959FEF80EC089535
:1049500000240A941616170618060906089500245E
:104960000A9412161306140605060895092E0394D8
:10497000000C11F4882352F0BB0F40F4BF2B11F44C
:1049800060FF04C06F5F7F4F8F4F9F4F089557FDAB
:104990009058440F551F59F05F3F71F04795880FAD
:1049A00097FB991F61F09F3F79F087950895121644
:1049B00013061406551FF2CF4695F1DF08C01616F0
:1049C00017061806991FF1CF8695710561050894A1
:1049D0000895E894BB2766277727CB0197F90895B8
:1049E000DC01CB01FC01F999FECF06C0F2BDE1BDAF
:1049F000F89A319600B40D9241505040B8F708959E
:104A0000F999FECF92BD81BDF89A992780B5089596
:104A1000DC01A40FB51F4150504048F0CB01840F7A
:104A2000951F2E910E94192541505040D0F70895AE
:104A3000262FF999FECF92BD81BDF89A019700B457
:104A4000021639F01FBA20BD0FB6F894FA9AF99AF7
:104A50000FBE0895262FF999FECF1FBA92BD81BDD2
:104A600020BD0FB6F894FA9AF99A0FBE01960895F0
:104A7000DB018F939F930E946A25BF91AF91A29F04
:104A8000800D911DA39F900DB29F900D112408954C
:104A9000A1E21A2EAA1BBB1BFD010DC0AA1FBB1F42
:104AA000EE1FFF1FA217B307E407F50720F0A21BB4
:104AB000B30BE40BF50B661F771F881F991F1A9421
:104AC00069F760957095809590959B01AC01BD014B
:104AD000CF0108950E94AC25A59F900DB49F900D25
:104AE000A49F800D911D112408952F923F924F9203
:104AF0005F926F927F928F929F92AF92BF92CF926E
:104B0000DF92EF92FF920F931F93CF93DF93CDB776
:104B1000DEB7CA1BDB0B0FB6F894DEBF0FBECDBFEE
:104B200009942A88398848885F846E847D848C84BF
:104B30009B84AA84B984C884DF80EE80FD800C81C8
:104B40001B81AA81B981CE0FD11D0FB6F894DEBFAB
:104B50000FBECDBFED010895A29FB001B39FC0016C
:104B6000A39F700D811D1124911DB29F700D811D99
:104B70001124911D0895AA1BBB1B51E107C0AA1F58
:104B8000BB1FA617B70710F0A61BB70B881F991FEE
:104B90005A95A9F780959095BC01CD01089597FB92
:104BA000072E16F4009407D077FD09D00E94BB258C
:104BB00007FC05D03EF4909581959F4F0895709520
:104BC00061957F4F0895052E97FB1EF400940E9477
:104BD000FA2557FD07D00E94482507FC03D04EF464
:104BE0000C94FA2550954095309521953F4F4F4FA5
:104BF0005F4F089590958095709561957F4F8F4F89
:104C00009F4F08950E94AC25332312F48A1B9B0BFF
:104C10000C940C260E94AC25B7FF0895821B930BC1
:104C20000895B7FF0C946A250E946A25821B930B96
:104C30000895EE0FFF1F0590F491E02D0994505850
:104C4000BB27AA270E9437260C94B6240E94A824CA
:104C500038F00E94AF2420F039F49F3F19F426F475
:104C60000C94A5240EF4E095E7FB0C949F24E92F07
:104C70000E94C72458F3BA17620773078407950781
:104C800020F079F4A6F50C94E9240EF4E0950B2EAF
:104C9000BA2FA02D0B01B90190010C01CA01A0018E
:104CA0001124FF27591B99F0593F50F4503E68F1E9
:104CB0001A16F040A22F232F342F4427585FF3CF2A
:104CC000469537952795A795F0405395C9F77EF4FB
:104CD0001F16BA0B620B730B840BBAF09150A1F044
:104CE000FF0FBB1F661F771F881FC2F70EC0BA0FCA
:104CF000621F731F841F48F4879577956795B79552
:104D0000F7959E3F08F0B0CF9395880F08F099274C
:104D1000EE0F9795879508950E94CF2488F09F57AE
:104D200098F0B92F9927B751B0F0E1F0660F771FCF
:104D3000881F991F1AF0BA95C9F714C0B13091F0C5
:104D40000E94E924B1E008950C94E924672F782F9C
:104D50008827B85F39F0B93FCCF38695779567958A
:104D6000B395D9F73EF490958095709561957F4FF6
:104D70008F4F9F4F08950E940E2408F48FEF0895DF
:104D80000F931F93CF93DF938230910510F482E04D
:104D900090E0E091CD04F091CE0430E020E0B0E06E
:104DA000A0E0309799F42115310509F44AC0281B79
:104DB000390B24303105D8F58A819B816115710545
:104DC00089F1FB0193838283FE0111C040815181EF
:104DD0000281138148175907E0F04817590799F4E1
:104DE000109761F012960C93129713961C933296BB
:104DF000CF01DF91CF911F910F9108950093CD04C2
:104E00001093CE04F4CF2115310551F0421753070A
:104E100038F0A901DB019A01BD01DF01F801C1CF22
:104E2000EF01F9CF9093CE048093CD04CDCFFE0156
:104E3000E20FF31F81939193225031093983288324
:104E4000D7CF2091CB043091CC04232B41F4209177
:104E50000201309103013093CC042093CB042091C4
:104E60000001309101012115310541F42DB73EB704
:104E70004091040150910501241B350BE091CB04B6
:104E8000F091CC04E217F307A0F42E1B3F0B281778
:104E9000390778F0AC014E5F5F4F2417350748F0B3
:104EA0004E0F5F1F5093CC044093CB04819391939A
:104EB0009FCFF0E0E0E09CCFCF93DF930097E9F045
:104EC000FC01329713821282A091CD04B091CE04DE
:104ED000ED0130E020E01097A1F420813181820FB4
:104EE000931F2091CB043091CC042817390709F087
:104EF00061C0F093CC04E093CB04DF91CF9108958F
:104F0000EA01CE17DF07E8F54A815B819E01411572
:104F10005105B1F7E901FB83EA8349915991C40F27
:104F2000D51FEC17FD0761F4808191810296840FF3
:104F3000951FE90199838883828193819B838A836A
:104F4000F0E0E0E012968D919C9113970097B9F5EF
:104F50002D913C911197CD010296820F931F2091C4
:104F6000CB043091CC042817390739F6309751F526
:104F70001092CE041092CD04B093CC04A093CB0435
:104F8000BCCFD383C28340815181840F951FC81742
:104F9000D90761F44E5F5F4F88819981480F591F8F
:104FA000518340838A819B819383828321153105BC
:104FB00009F0B0CFF093CE04E093CD049ECFFD0175
:104FC000DC01C0CF13821282D7CFB0E0A0E0EBEEBD
:104FD000F7E20C9477258C01009751F4CB010E94E5
:104FE000C0268C01C801CDB7DEB7E0E10C94932553
:104FF000FC01E60FF71F9C0122503109E217F3076D
:1050000008F49DC0D901CD91DC911197C617D7073F
:1050100098F0C530D10530F3CE0104978617970775
:1050200008F3C61BD70B2297C193D1936D937C9342
:10503000CF010E945C27D6CF5B01AC1ABD0A4C01A0
:105040008C0E9D1EA091CD04B091CE04512C412C0C
:10505000F12CE12C109731F58091CB049091CC0488
:105060008815990509F05CC04616570608F058C027
:105070008091000190910101009741F48DB79EB796
:105080004091040150910501841B950BE817F90725
:1050900008F055C0F093CC04E093CB04F901718380
:1050A0006083A0CF8D919C91119712966C9012976E
:1050B00013967C901397A815B90559F56C0142E039
:1050C000C40ED11CCA14DB0420F1AC014A195B09DF
:1050D000DA011296159780F06282738251834083C1
:1050E000D9016D937C93E114F10471F0D70113960B
:1050F000FC93EE93129776CF22968C0F9D1FF901A9
:1051000091838083F301EFCFF093CE04E093CD043D
:1051100069CF4816590608F42C017D01D3019ACFB6
:10512000CB010E94C0267C01009749F0AE01B80176
:105130000E94A228C8010E945C27870153CF10E07B
:1051400000E050CFFB01DC0102C001900D92415004
:105150005040D8F70895FB01DC018D910190801932
:105160000110D9F3990B0895FB01DC0101900D9218
:105170000020E1F70895FB01DC014150504030F080
:105180008D910190801919F40020B9F7881B990BB3
:105190000895FB01DC014150504048F001900D9210
:1051A0000020C9F701C01D9241505040E0F708951A
:1051B00010E0C8EBD0E004C0FE010E941926219641
:0A51C000C93BD107C9F7F894FFCFEF
:1051CA000000CF0480005E00BC00770100000000F0
:1051DA001C0B4A0A770A690BDA0A860ACC0A2F2FAD
:1051EA0022225C5C6208660C6E0A720D7409005C0D
:1051FA007530303030006E756C6C007472756500F5
:10520A0066616C736500736574706F696E740066AD
:10521A00616E6C6576656C0070726F626574656D3F
:10522A0070006368616D62657274656D700068759F
:10523A006D696469747900636F6F6C696E67006881
:10524A00656174696E6700686561746F75747075FD
:10525A0074006B70006B69006B64000D0A002F7399
:04526A0065743F0028
:00000001FF
