:100000000C94B1010C94D9010C94D9010C94D90130
:100010000C94D9010C94D9010C94D9010C94D901F8
:100020000C94D9010C94D9010C94D9010C94D901E8
:100030000C94D9010C94D9010C94D9010C94D901D8
:100040000C9428100C94D9010C9498100C947210F4
:100050000C94D9010C94D9010C94D9010C94D901B8
:100060000C94D9010C94D9014E414E494E49545932
:10007000494E46CDCCCC3D0AD7233C17B7D1387773
:10008000CC2B329595E6241FB14F0A000020410089
:1000900000C84200401C4620BCBE4CCA1B0E5AAED3
:1000A000C59D7400407A10F35A00A0724E180900E2
:1000B00010A5D4E80000E87648170000E40B5402CD
:1000C0000000CA9A3B000000E1F505000080969808
:1000D00000000040420F000000A086010000001058
:1000E0002700000000E8030000000064000000009A
:1000F000000A00000000000100000000002C76D87B
:1001000088DC674F0823DFC1DFAE59E1B1B796E560
:10011000E3E453C63AE651997696E8E6C28426EBC4
:10012000898C9B62ED407C6FFCEFBC9C9F40F2BAD7
:10013000A56FA5F490055A2AF75C936B6CF9676D6F
:10014000C11BFCE0E40D47FEF520E6B500D0ED90C4
:100150002E0300943577050080841E080000204E91
:100160000A000000C80C333333330F986E1283112A
:1001700041EF8D2114893BE65516CFFEE6DB18D101
:10018000844B381BF77C1D901DA4BBE424203284D3
:10019000725E228100C9F124ECA1E53D270D0A0021
:1001A0007D2C20002C20007B227661726961626CBC
:1001B0006573223A207B003A20002C2022636F6E68
:1001C0006E6563746564223A20747275657D002CD7
:1001D00020226861726477617265223A20002C20C7
:1001E000226E616D65223A2000226964223A200065
:1001F000005EBCE2613FDD83C29C7E20A3FD1F4107
:10020000009D23BE46DB65F88C11AF32CA57E974F6
:100210000D0A007B002C20007B2272657475726EC3
:100220005F76616C7565223A20002C20007B0022ED
:100230002C20002073657420746F20007B226D6574
:100240007373616765223A202250696E2044002C46
:100250002000223A20002241007B002C20007B223B
:1002600072657475726E5F76616C7565223A2000F6
:10027000222C20002073657420746F20007B226D77
:10028000657373616765223A202250696E204400CD
:100290002C2000223A20002244007B002C20007BEE
:1002A0002272657475726E5F76616C7565223A2094
:1002B000002073657420746F206F757470757422DC
:1002C0002C20002073657420746F20696E70757423
:1002D00020776974682070756C6C7570222C200012
:1002E0002073657420746F20696E707574222C20E1
:1002F000007B226D657373616765223A2022506925
:100300006E20440000000000240027002A000000A6
:100310000000250028002B0000000008000201005A
:1003200000030407000000000000000000000000BF
:100330002300260029000404040404040404020227
:100340000202020203030303030301020408102054
:1003500040800102040810200102040810205211FC
:10036000F81D11241FBECFEFD8E0DEBFCDBF26E0C1
:10037000A8EFB1E001C01D92AB39B207E1F711E07F
:10038000A0E0B1E0ECE4FEE402C005900D92A83FCD
:10039000B107D9F711E0C0EBD1E004C02197FE010D
:1003A0000E94F723CF3AD107C9F70E947A120C9422
:1003B00019270C9400008F929F92AF92BF92CF9218
:1003C000DF92EF92FF926B017C0120E030E0A90107
:1003D0000E940B251816A4F420E030E040E85EE30C
:1003E000C701B6010E94492218160CF465C0FF909F
:1003F000EF90DF90CF90BF90AF909F908F90089537
:1004000020E030E040E85EEBC701B6010E940B251A
:1004100087FFEDCF8090030190900401A09005012B
:10042000B0900601C701B60190582FE832EC45EFB5
:100430005CE30E94AF222AE939E949E95FE30E94BF
:10044000FE236B017C012AE939E949E95FE30E9457
:10045000492287FD78C020E030E040EC5FE3C7012F
:10046000B6010E940B25181634F4C12CD12C20ECB7
:10047000E22E2FE3F22EA7019601C501B4010E94DE
:100480006A246B017C012DEC3CEC4CE45DE30E94A2
:10049000492287FF08C08DECC82E8CECD82E8CE446
:1004A000E82E8DE3F82EC0920301D0920401E09271
:1004B0000501F09206019BCF80900301909004010A
:1004C000A0900501B09006012FE832EC45EF5CE307
:1004D000C701B6010E94AF222AE939E949E95FE381
:1004E0000E94FE236B017C012AE939E949E95FE3B7
:1004F0000E94492287FD1FC020E030E040EC5FE30E
:10050000C701B6010E940B25181634F4C12CD12C5A
:1005100040ECE42E4FE3F42EA7019601C501B4018F
:100520000E94AF2260930301709304018093050140
:10053000909306015CCF3AE9C32E39E9D32EED2C16
:100540003FE3F32EE9CF9AE9C92E99E9D92EED2C94
:100550009FE3F92E90CF833081F028F4813099F019
:100560008230A9F008958730A9F08830C9F084302E
:10057000B1F4809180008F7D03C0809180008F77DF
:1005800080938000089584B58F7784BD089584B5E5
:100590008F7DFBCF8091B0008F778093B00008955E
:1005A0008091B0008F7DF9CFCF93DF93282F30E07B
:1005B000F901E85EFC4F8491F901E65BFC4FD491B0
:1005C000F901EA5CFC4FC491CC23A1F081110E9497
:1005D000AB02EC2FF0E0EE0FFF1FE45DFC4FA591A6
:1005E000B491EC91ED2381E090E009F480E0DF919B
:1005F000CF91089580E090E0FACF1F93CF93DF93DF
:10060000282F30E0F901E85EFC4F8491F901E65BA8
:10061000FC4FD491F901EA5CFC4FC491CC23A9F0C2
:10062000162F81110E94AB02EC2FF0E0EE0FFF1F9E
:10063000E25FFC4FA591B4918FB7F894EC91111142
:1006400008C0D095DE23DC938FBFDF91CF911F913F
:100650000895DE2BF8CFCF93DF9390E0FC01E65BAB
:10066000FC4F24918A5C9C4FFC0184918823C9F043
:1006700090E0880F991FFC01EC5FFC4FA591B491AD
:10068000FC01E25FFC4FC591D49161110DC09FB791
:10069000F8948C91209582238C9388812823288339
:1006A0009FBFDF91CF910895623051F49FB7F894C6
:1006B0003C91822F809583238C93E8812E2BEFCF62
:1006C0008FB7F894EC912E2B2C938FBFEACF8E30FE
:1006D00008F08E508770806480937C0080917A004F
:1006E000806480937A0080917A0086FDFCCF8091AF
:1006F00078009091790008953FB7F894809128028E
:1007000090912902A0912A02B0912B0226B5A89BB4
:1007100005C02F3F19F00196A11DB11D3FBFBA2F93
:10072000A92F982F8827BC01CD01620F711D811D53
:10073000911D42E0660F771F881F991F4A95D1F7D8
:1007400008958F929F92AF92BF92CF92DF92EF92D5
:10075000FF926B017C010E947C034B015C01C11480
:10076000D104E104F104B9F00E947C03681979090D
:100770008A099B09683E73408105910580F321E059
:10078000C21AD108E108F10888EE880E83E0981EAD
:10079000A11CB11CE4CFFF90EF90DF90CF90BF90F1
:1007A000AF909F908F9008952FB7F8946091240296
:1007B0007091250280912602909127022FBF089503
:1007C000CF92DF92EF92FF926B017C0120E030E04C
:1007D000A9010E94492287FD1DC020E030E040E8C9
:1007E0005FE3C701B6010E940B251816BCF020E09C
:1007F00030E040EA53E4C701B6010E94AF220E94F4
:10080000DC247093890060938800FF90EF90DF9064
:10081000CF900895C12CD12C7601E9CFC12CD12CD9
:1008200080E8E82E8FE3F82EE2CFFC0124813581A9
:100830006217730720F480819181009729F4109248
:10084000010281E092E00895860F971F08950895B0
:10085000AF92BF92CF92DF92EF92FF920F931F93CE
:10086000CF93DF936C017B018B01040F151FEB010C
:100870005E01AE18BF08C017D10759F06991D601C3
:10088000ED91FC910190F081E02DC6010995892B35
:1008900079F7C501DF91CF911F910F91FF90EF90F4
:1008A000DF90CF90BF90AF900895FC01538D448DA1
:1008B000252F30E0842F90E0821B930B541710F00B
:1008C000CF96089501970895FC01918D828D981718
:1008D00061F0A28DAE0FBF2FB11D5D968C91928DF0
:1008E0009F5F9F73928F90E008958FEF9FEF089521
:1008F000FC01918D828D981731F0828DE80FF11DEA
:10090000858D90E008958FEF9FEF0895FC01918D04
:10091000228D892F90E0805C9F4F821B91098F73FD
:10092000992708958CE292E00E94860421E0892BA9
:1009300009F420E0822F089580E090E0892B29F0CF
:100940000E94920481110C9400000895FC01A48D72
:10095000A80FB92FB11DA35ABF4F2C91848D90E0E1
:1009600001968F739927848FA689B7892C93A089C4
:10097000B1898C91837080648C93938D848D98134E
:1009800006C00288F389E02D80818F7D80830895E1
:10099000EF92FF920F931F93CF93DF93EC0181E0CF
:1009A000888F9B8D8C8D98131AC0E889F989808176
:1009B00085FF15C09FB7F894EE89FF896083E889A9
:1009C000F98980818370806480839FBF81E090E09B
:1009D000DF91CF911F910F91FF90EF900895F62E28
:1009E0000B8D10E00F5F1F4F0F731127E02E8C8DC2
:1009F0008E110CC00FB607FCFACFE889F989808107
:100A000085FFF5CFCE010E94A604F1CFEB8DEC0F50
:100A1000FD2FF11DE35AFF4FF0829FB7F8940B8F23
:100A2000EA89FB8980818062CFCFCF93DF93EC018D
:100A3000888D8823B9F0AA89BB89E889F9898C91C6
:100A400085FD03C0808186FD0DC00FB607FCF7CF82
:100A50008C9185FFF2CF808185FFEDCFCE010E9482
:100A6000A604E9CFDF91CF910895DC0180E06150C9
:100A700090F09D919827E92FEF70F0E0E051FE4F44
:100A80002491E92FE295EF70F0E0E050FE4FE49101
:100A9000822F8E27ECCF0895DC012C911196ED91D9
:100AA000FC91F8948181822B81839281322F309541
:100AB0009323928387E090E00197F1F7818183236C
:100AC000818383E290E00197F1F790817894EFECD5
:100AD000F0E03197F1F7922381E009F480E0089586
:100AE000FC0190810180F281E02D292F209560FF8B
:100AF00014C0F8948281822382838181892B81832F
:100B0000A3E2B0E01197F1F78281982B9283789459
:100B100087ED90E00197F1F70895F89482818223A0
:100B200082838181892B8183AFEFB0E01197F1F748
:100B30008281982B928378948FE090E0EBCFEF92B4
:100B4000FF920F931F93CF93DF93EC01E62E08E003
:100B500010E0FF24F39461E08E2D8F2109F460E012
:100B6000CE010E947005FF0C01501109A1F7F89405
:100B7000E981FA8191818881809589238183E98146
:100B8000FA81928188818095892382837894DF918C
:100B9000CF911F910F91FF90EF900895FC019081EC
:100BA0000180F281E02DF8948181292F2095822304
:100BB000818378943DE743E050E0315029F1DA0138
:100BC0001197F1F780818923C1F3F8948281822300
:100BD00082838181892B81837894ABE7B7E0119779
:100BE000F1F7F894818182238183A3E1B1E0119729
:100BF000F1F78081982381E009F080E07894E3E6C2
:100C0000F6E03197F1F7089580E008954F925F92F2
:100C10006F927F928F929F92AF92BF92CF92DF920C
:100C2000EF92FF92CF93DF9300D000D000D0CDB7EA
:100C3000DEB79E838D83DC0190968D909D90AD9064
:100C4000BC909397FC0184A295A2A6A2B7A2C48CE3
:100C5000D58CE68CF78C9096CD92DD92ED92FC923D
:100C6000939758968D919D910D90BC91A02D89835D
:100C70009A83AB83BC83848F958FA68FB78F24858F
:100C800035854685578560897189828993890E9457
:100C9000FE2320E030E040E450E40E94AF222B012C
:100CA0003C01AD81BE8118962D913D914D915C9195
:100CB0001B9754966D917D918D919C9157970E94B1
:100CC000FE239B01AC01C301B2010E94FE2329E96E
:100CD00039E948E854E40E946A242B013C0128EFDA
:100CE00038EF48E25FE3C501B4010E94AF229B01E7
:100CF000AC01C301B2010E94FE234B015C012DEA4D
:100D000037E340E150ECC701B6010E94AF229B01DE
:100D1000AC01C501B4010E94FE236B017C012EE7EA
:100D200031E845E250E469817A818B819C810E949F
:100D3000AF229B01AC01C701B6010E94FE23ED81E9
:100D4000FE81608F718F828F938F26960FB6F894F5
:100D5000DEBF0FBECDBFDF91CF91FF90EF90DF9050
:100D6000CF90BF90AF909F908F907F906F905F904B
:100D70004F9008954F925F926F927F928F929F92C1
:100D8000AF92BF92CF92DF92EF92FF920F931F9399
:100D9000CF93DF93CDB7DEB729970FB6F894DEBFB8
:100DA0000FBECDBF8C01C090C902D090CA02C6014F
:100DB0000E94CE0565E5C6010E949F057801580195
:100DC00088E0A80EB11CF70161917F01C6010E9465
:100DD0009F05AE14BF04B9F76EEBC6010E949F05D4
:100DE000CE0101967C014E019AE0890E911C2701EB
:100DF00088E0682E712CB12CAA24A394C6010E940D
:100E00004C058111BA28AA0CE1E06E1A7108B1F7FD
:100E1000F701B1927F018E169F0651F768E0C2017B
:100E20000E9435059985891344C069817A81F8014A
:100E300080899189A289B389848B958BA68BB78B86
:100E400084859585A685B785808B918BA28BB38B86
:100E500080859185A285B38584879587A687B78786
:100E6000072E000C880B990B0E94502220E030E0E6
:100E700040E85DE30E94AF22F801608771878287B6
:100E8000938781E029960FB6F894DEBF0FBECDBFE1
:100E9000DF91CF911F910F91FF90EF90DF90CF9056
:100EA000BF90AF909F908F907F906F905F904F908A
:100EB000089580E0E7CF0F931F93CF93DF93EC016A
:100EC0000091C9021091CA02C8010E94CE056CECC3
:100ED000C8010E949F0564E4C8010E949F05CE01DD
:100EE0000E94BA0688859985AA85BB858C8B9D8BC7
:100EF000AE8BBF8B888B998BAA8BBB8B8C879D8786
:100F0000AE87BF878CA39DA3AEA3BFA388A399A3DD
:100F1000AAA3BBA38C8F9D8FAE8FBF8F888F998F15
:100F2000AA8FBB8FDF91CF911F910F910895AC01D4
:100F3000FB019491DA01A956BE4F9923A9F02D9196
:100F40003C9111976F5F7F4F2E35F1E03F0760F4C2
:100F5000FA01E20FF31F91AFFB0194912F5F3F4F16
:100F600011963C932E93E9CF0895FC01A28DB38D89
:100F70008D919D910D90BC91A02D84AB95ABA6ABAE
:100F8000B7ABDF01D896CF0184559F4F44A955A92F
:100F900066A977A94D935D936D937D93A817B907C3
:100FA000A9F708958F929F92AF92BF92CF92DF924E
:100FB000EF92FF92CF93DF93EC010E94B507EC8D87
:100FC000FD8DC080D180E280F380CCA2DDA2EEA2B4
:100FD000FFA2FE01E854FF4F80809180A280B38081
:100FE000A5019401C701B6010E940B2518162CF427
:100FF0008CA29DA2AEA2BFA20FC0FE01EC54FF4F77
:1010000080809180A280B380A5019401C701B601C0
:101010000E94492287FDECCFDF91CF91FF90EF90A6
:10102000DF90CF90BF90AF909F908F9008952F92B8
:101030003F924F925F926F927F928F929F92AF9268
:10104000BF92CF92DF92EF92FF920F931F93CF93B5
:10105000DF9300D000D0CDB7DEB71C016A017B0161
:1010600048015901A9019801CB01B6010E940B2545
:1010700087FF64C0C1018C549F4F9A838983FC0110
:10108000C082D182E282F382810108541F4FF801AD
:1010900080829182A282B38234968081882309F46F
:1010A0004DC0F101048CF58DE02DFC83EB83408075
:1010B000518062807380A3019201C501B4010E9436
:1010C000492287FF1EC0EB81FC8180829182A2822F
:1010D000B382F10184A095A0A6A0B7A0F801C080BA
:1010E000D180E280F380A7019601C501B4010E947E
:1010F0000B251816ACF4F101C4A2D5A2E6A2F7A202
:101100001DC0A3019201C701B6010E940B2518164C
:1011100004F7EB81FC81C082D182E282F382D9CFD5
:10112000E981FA81C080D180E280F380A701960135
:10113000C501B4010E94492287FDDDCF0F900F90B9
:101140000F900F90DF91CF911F910F91FF90EF9033
:10115000DF90CF90BF90AF909F908F907F906F90D7
:101160005F904F903F902F9008954F925F926F92B3
:101170007F928F929F92AF92BF92CF92DF92EF9227
:10118000FF920F931F93CF93DF9300D000D000D036
:10119000CDB7DEB79E838D832A013B0148015901FB
:1011A00020E030E0A901CB01B2010E94492287FD75
:1011B00081C020E030E0A901C501B8010E944922A8
:1011C00087FD78C020E030E0A901C701B6010E9488
:1011D000492287FD6FC0ED81FE814082518262828B
:1011E000738284829582A682B782C086D186E28687
:1011F000F386E455FF4F60817181828193810E9463
:101200004E2220E030E04AE754E40E946A246983D9
:101210007A838B839C83ED81FE8144865586668626
:1012200077869B01AC01C501B8010E94AF224B013A
:101230005C01ED81FE81808A918AA28AB38A29812C
:101240003A814B815C81C701B6010E946A246B011F
:101250007C01ED81FE81C48AD58AE68AF78A808D79
:10126000918D019739F5A301920160E070E0CB0107
:101270000E94FD23ED81FE816487758786879787AD
:10128000A501940160E070E0CB010E94FD23ED8197
:10129000FE81608B718B828B938BA701960160E03E
:1012A00070E0CB010E94FD23ED81FE81648B758B84
:1012B000868B978B26960FB6F894DEBF0FBECDBFF8
:1012C000DF91CF911F910F91FF90EF90DF90CF9022
:1012D000BF90AF909F908F907F906F905F904F9056
:1012E00008952F923F924F925F926F927F928F92CA
:1012F0009F92AF92BF92DF92EF92FF920F931F9354
:10130000CF93DF93CDB7DEB72E970FB6F894DEBF3D
:101310000FBECDBFFC01E454FF4FD080D1101AC0E6
:10132000D12C8D2D2E960FB6F894DEBF0FBECDBFFB
:10133000DF91CF911F910F91FF90EF90DF90BF90C1
:10134000AF909F908F907F906F905F904F903F9065
:101350002F9008959E878D870E94D40369837A8396
:101360008B839C83ED85FE85E455FF4F2081318181
:10137000428153812D833E834F835887ED85FE85BF
:10138000E055FF4F80819181A281B38129813A810B
:101390004B815C81281B390B4A0B5B0BDA01C901BD
:1013A0002D813E814F81588582179307A407B50789
:1013B00008F4B6CF809100028F5F809300024D85C4
:1013C0005E8548555F4F1A018A3001F5FA018D8517
:1013D0009E85C49672916291529142914483558345
:1013E000668377838E179F07A9F7AD85BE855A96CA
:1013F000ED91FC9180819181A281B381ED85FE8583
:1014000084AB95ABA6ABB7AB10920002AD85BE85A1
:101410005E968D919C915F975A960D90BC91A02DF0
:101420002D913D914D915C91FC0160817181828192
:1014300093810E94FD232B013C01AD85BE85509612
:101440002D913D914D915C9153970E94AF22ED8576
:10145000FE8524A135A146A157A10E94FE234B0180
:101460005C01AD85BE8594968D929D92AD92BC92A5
:101470009797FD01E854FF4FE080F18002811381CE
:101480009701A8010E940B2518160CF0C5C0C701D2
:10149000D801ED85FE8584A395A3A6A3B7A3D101AA
:1014A0002D913D914D915C91ED85FE8564A975A9C5
:1014B00086A997A90E94FD2320E030E046E953E485
:1014C0000E946A244B015C01AD85BE851C962D915E
:1014D0003D914D915C911F97C301B2010E94AF22D3
:1014E0002B013C01ED85FE8540A251A262A273A2B0
:1014F00064897589868997899058A50194010E940D
:10150000AF224B015C01AD85BE8598968D929D9270
:10151000AD92BC929B9794962D913D914D915C918B
:101520009797C301B2010E94FE23A50194010E9476
:10153000FE234B015C019B01AC01B701C8010E9475
:10154000492287FD12C0ED85FE85EC54FF4FE080F7
:10155000F180028113819701A801B401C5010E94A5
:10156000492287FD02C074018501ED85FE85E354A3
:10157000FF4F8081811134C0ED85FE8584A495A440
:10158000A6A4B7A46D817E818F81988528EE33E073
:1015900040E050E00E94D523CA01B9010E944E22CA
:1015A000AD85BE85D0962D913D914D915C91D3979F
:1015B0000E946A242B013C01A5019401B701C801D6
:1015C0000E94FD239B01AC01C301B2010E94AF2226
:1015D0009B01AC01C501B4010E94FE237B018C017B
:1015E000AD85BE855C96ED91FC91C701D8018083E5
:1015F0009183A283B383ED85FE8584A795A7A6A7D3
:10160000B7A7E055FF4F29813A814B815C81208348
:1016100031834283538385CEED85FE85EC54FF4FA5
:10162000208131814281538129873A874B875C87AA
:10163000C501B4010E94492287FF31CF89859A856F
:10164000AB85BC8526CF6F927F928F929F92AF928F
:10165000BF92CF92DF92EF92FF920F931F93CF939F
:10166000DF93CDB7DEB74C01CB013A01D901B80108
:10167000A70196018501F401758E648E938F828F88
:10168000B78FA68FE454FF4F1082319681E080839C
:1016900039971082118212821382349680E090E092
:1016A000AFE7B3E480839183A283B3833401FCEA80
:1016B0006F0E711C84E690E0A0E0B0E0F30180833F
:1016C0009183A283B383D40159961C921E9258979A
:1016D000C988DA88EB88FC88C4010E94B5080E949A
:1016E000D403F401E055FF4FD3010D911D912D91CD
:1016F0003C91601B710B820B930B6083718382831F
:101700009383DF91CF911F910F91FF90EF90DF9026
:10171000CF90BF90AF909F908F907F906F900895E3
:10172000FC01448155818091D1029091D2028417AD
:10173000950780F08091CD029091CE02009751F0F4
:10174000608171816115710529F00E940B2721E0EC
:10175000892B09F020E0822F08950F931F93CF93D8
:10176000DF93EC018B0185E090E00E941025FC01E5
:101770008DE391E0918380831383028381E08483EE
:101780006DE674E0DB019C91292F30E0220F331FBE
:1017900025533D4FA9014D555E4FDA01ED93FC9362
:1017A00029543E4FF901D183C0839F5FDB019C9395
:1017B000DF91CF911F910F9108950F931F93CF93B6
:1017C000DF93EC018B0185E090E00E941025FC0185
:1017D00087E391E0918380831383028381E0848394
:1017E0006DE674E0DB019C91292F30E0220F331F5E
:1017F00025533D4FA9014D555E4FDA01ED93FC9302
:1018000029543E4FF901D183C0839F5FDB019C9334
:10181000DF91CF911F910F9108951F93CF93DF9385
:10182000442399F0FC01E956FE4F208131812E3589
:1018300051E0350750F4DC01A20FB31F52E2D996F4
:101840005C932F5F3F4F31832083EB01DC01A9566E
:10185000BE4F1CE5FB0101900020E9F73197E61B24
:10186000F70B9E01261B370B2E173F0748F52D91CE
:101870003C9111972E3551E03507B8F5442391F08E
:101880005881523211F05C3569F42D3551E035073D
:1018900061F1FC01E20FF31F11AF2F5F3F4F119673
:1018A0003C932E932D913C9111975991FC01E20F9D
:1018B000F31F51AF2F5F3F4F11963C932E93CACF2A
:1018C000442399F0FC01E956FE4F208131812E35E9
:1018D000A1E03A0750F4820F931F42E2DC01D9964F
:1018E0004C932F5F3F4F31832083DF91CF911F9126
:1018F00008959B01DC011296ED91FC9180816CE5CD
:1019000071E0882311F067E571E040E0C9010C94B3
:101910000D0CCF93DF93EC0169EE71E00E94970705
:101920006FA178A541E0CE010E940D0C6EED71E033
:10193000CE010E949707BE016D5E7F4F41E0CE0150
:101940000E940D0C6FEC71E0CE010E94970741E000
:1019500062E671E0CE010E940D0C6AEB71E0CE01EF
:10196000DF91CF910C9497070F931F93CF93DF9341
:101970008C01C62FD0E0CC0FDD1FC00FD11FFE01A0
:10198000E954FE4F6081718141E0C8010E940D0C55
:1019900067EB71E0C8010E949707CD55DE4F888143
:1019A0009981DC01ED91FC910190F081E02DB8016D
:1019B000DF91CF911F910F910994EF92FF921F93A6
:1019C000CF93DF93EC0167EA71E00E94970710E084
:1019D0007E018EE5E81A8EEFF80AF701808118176C
:1019E00090F4612FCE010E94B40CF70180818150E8
:1019F000990B181719062CF464EA71E0CE010E94C5
:101A000097071F5FEACF60EA71E0CE010E94970757
:101A1000CE010E94890C6DE971E0CE01DF91CF917A
:101A20001F91FF90EF900C949707FC0180819181AA
:101A3000009711F00C942C1E60E070E0CB0108952B
:101A40000F931F93CF93DF938C01EB01FC018081F7
:101A500091810097E1F06881798161157105A9F0A4
:101A6000428153812C813D814217530770F00E94BF
:101A700004278C819D81F801958384831D821C82BB
:101A8000DF91CF911F910F9108950E94AC2588811D
:101A90009981F801918380838A819B8193838283DA
:101AA0008C819D8195838483198218821B821A827E
:101AB000E5CFCF93DF93EC0188819981009711F0F6
:101AC0000E94AC25198218821D821C821B821A82F8
:101AD000DF91CF910895FC0180819181009711F0F1
:101AE0000C94AC2508950F931F93CF93DF93EC01D3
:101AF00088819981009759F02A813B812617370701
:101B000030F081E0DF91CF911F910F9108958B010B
:101B10006F5F7F4F0E943526009759F09983888325
:101B20001B830A832C813D81232B59F7FC011082F2
:101B3000E8CF80E0E7CFEF92FF920F931F93CF9310
:101B4000DF93EC017B018A01BA010E94730D8111C0
:101B50000BC0CE010E94590DCE01DF91CF911F9194
:101B60000F91FF90EF9008951D830C83B70188813A
:101B700099810E940427F0CFFB0101900020E9F732
:101B80003197AF01461B570B0C949B0DCF93DF93FE
:101B9000CDB7DEB72F970FB6F894DEBF0FBECDBF1F
:101BA0001B861A861D861C861F861E864AE0BE017D
:101BB0006F5F7F4F90E00E94771EBE016F5F7F4F87
:101BC000CE010A960E94BC0D6A857B8540E08BECB5
:101BD00092E00E940D0CCE010A960E946B0D2F968A
:101BE0000FB6F894DEBF0FBECDBFDF91CF91089541
:101BF000CF93DF93CDB7DEB767970FB6F894DEBF0C
:101C00000FBECDBF1B8A1A8A1D8A1C8A1F8A1E8A94
:101C10004AE0BE016F5F7F4F0E94771EBE016F5F7B
:101C20007F4FCE0142960E94BC0D6A897B8940E0BD
:101C30008BEC92E00E940D0CCE0142960E946B0D3F
:101C400067960FB6F894DEBF0FBECDBFDF91CF9180
:101C50000895CF93DF93EC01FB018617970749F0B6
:101C6000608171816115710541F0448155810E9447
:101C70009B0DCE01DF91CF9108950E94590DF9CFB0
:101C8000FC01118210821382128215821482611566
:101C9000710551F0FB0101900020E9F73197AF0188
:101CA000461B570B0C949B0D0895AF92BF92CF9299
:101CB000DF92EF92FF920F931F93CF93DF936C010C
:101CC0005B017A0189012417350720F48F2D7901F2
:101CD000042F182F67EF71E0C6010E94400ED50156
:101CE0001496CD91DC91EC16FD06E0F40C171D075F
:101CF00008F4E801D501ED91FC911197EC0FFD1F5F
:101D0000108110826D917C916E0D7F1DC601611551
:101D10007105A1F00E94BC0DF50180819181C80F71
:101D2000D91F1883C601DF91CF911F910F91FF90AA
:101D3000EF90DF90CF90BF90AF9008950E94590D23
:101D4000EBCF6F927F929F92AF92BF92CF92DF9232
:101D5000EF92FF920F931F93CF93DF93EC01942E9A
:101D60007901DB011496CD90DC90860101501109B8
:101D70002FEF3FEF50E040E090E080E0F0E0E0E067
:101D8000081719071CF1EE16FF061CF1DC0111966D
:101D90005D018C159D0560F4DB016D907C906114F4
:101DA000710431F0D301A80FB91FAC919A1619F044
:101DB0008017910749F43196A9014F5F5F4F950154
:101DC0008017910709F09C01C501DACFEE16FF06D6
:101DD00094F4CE010E94550ECE01DF91CF911F9158
:101DE0000F91FF90EF90DF90CF90BF90AF909F90BA
:101DF0007F906F90089567EF71E0CE010E94400ED2
:101E0000EBCFEF92FF920F931F93CF93DF93CDB75A
:101E1000DEB762970FB6F894DEBF0FBECDBF7C0170
:101E200010E000E01A8219821C821B821E821D8231
:101E3000B701CE0101960E94290E980146E2BE012B
:101E40006F5F7F4FCE0107960E94A10ECE010196D3
:101E50000E946B0D1E861D86188A1F861A8A198A93
:101E6000BE01695F7F4FCE010D960E94290E21E0D1
:101E700030E04DE3BE01635F7F4FCE0101960E94CB
:101E8000A10ECE010D960E946B0DF8013197E7303F
:101E9000F10568F4E05BF04FCE0101960C94F72356
:101EA000800F8D0F980FA30FAE0FB90FC40FCE0187
:101EB00001960E94150D6093130170931401809395
:101EC000150190931601CE0101960E946B0DCE0173
:101ED00007960E946B0D0F5F1F4F0830110509F028
:101EE000A1CF81E090E062960FB6F894DEBF0FBEFE
:101EF000CDBFDF91CF911F910F91FF90EF9008958B
:101F00000E94150D609314027093150280931602BF
:101F1000909317020E94E003D6CF0E94150D6093A4
:101F20001B0170931C0180931D0190931E01CBCF68
:101F30000E94150D60931F01709320018093210171
:101F400090932201C0CF0E94150D609323017093DE
:101F500024018093250190932601B5CF0E94150D91
:101F600060930701709308018093090190930A011F
:101F7000AACF0E94150D60930B0170930C01809302
:101F80000D0190930E019FCF0E94150D60930F01DC
:101F900070931001809311019093120194CFEF92EE
:101FA000FF920F931F93CF93DF93CDB7DEB7A79721
:101FB0000FB6F894DEBF0FBECDBF7C01CB01BA01D6
:101FC0001BA21AA21DA21CA21FA21EA28E010F5F9D
:101FD0001F4F22E044E00E940E1E0097E1F0BC017A
:101FE000CE0182960E94BC0D6AA17BA140E0C70190
:101FF0000E940D0CCE0182960E946B0DA7960FB623
:10200000F894DEBF0FBECDBFDF91CF911F910F912E
:10201000FF90EF900895CE0182960E94590DE4CF73
:102020009B01DC011296ED91FC914081518162810E
:102030007381C9010C94CF0F9B01DC011296ED91C5
:10204000FC914081518162817381C9010C94CF0F51
:102050001F920F920FB60F9211242F933F938F93DD
:102060009F93AF93BF938091240290912502A091FA
:102070002602B09127023091230223E0230F2D374F
:1020800058F50196A11DB11D2093230280932402CF
:1020900090932502A0932602B093270280912802F4
:1020A00090912902A0912A02B0912B020196A11DC4
:1020B000B11D8093280290932902A0932A02B09325
:1020C0002B02BF91AF919F918F913F912F910F90D4
:1020D0000FBE0F901F90189526E8230F0296A11DA2
:1020E000B11DD2CF1F920F920FB60F9211242F93D2
:1020F0003F934F935F936F937F938F939F93AF9390
:10210000BF93EF93FF938CE292E00E94A604FF91AD
:10211000EF91BF91AF919F918F917F916F915F915F
:102120004F913F912F910F900FBE0F901F901895D8
:102130001F920F920FB60F9211242F938F939F939C
:10214000EF93FF93E0913C02F0913D028081E0919A
:102150004202F091430282FD1BC0908180914502B2
:102160008F5F8F7320914602821741F0E091450204
:10217000F0E0E45DFD4F958F80934502FF91EF9174
:102180009F918F912F910F900FBE0F901F901895D8
:102190008081F4CFBF92CF92DF92EF92FF920F93A4
:1021A0001F93CF93DF936C01C091C902D091CA02F3
:1021B0008D858823B9F01B861D861C8667E0C601C5
:1021C0000E94350591E0F6012781281390E0892FC0
:1021D000DF91CF911F910F91FF90EF90DF90CF9003
:1021E000BF900895CE010E94CE05882321F360EFB1
:1021F000CE010E949F0501E0E12CB12C11E0CE013F
:102200000E944C05F82ECE010E944C0591E0F91277
:1022100016C0813089F5113470F2BB86B11002C04E
:1022200081E08D878B81882331F22396F601C601E8
:102230000896299121938E179F07D9F7BFCFEE2DCE
:10224000F0E0F8120FC08B851817A0F4DE01AE0F76
:10225000BF1F13968C91802379F4F12C193008F468
:102260001C87B12EEC0FFD1F8381902F9095892341
:1022700083830AC08113F1CFFE01EE0DF11D83812E
:10228000802B8383FF24F3946F2DCE010E94700571
:102290001F5F000F11F4E39401E0E7E0EE1508F092
:1022A000AECFB9CFAF92BF92CF92DF92EF92FF92B3
:1022B0000F931F9310922F0210922E0288EE93E03C
:1022C000A0E0B0E08093300290933102A0933202FC
:1022D000B093330283E491E090932D0280932C021B
:1022E00085EC90E0909339028093380284EC90E082
:1022F00090933B0280933A0280EC90E090933D02F1
:1023000080933C0281EC90E090933F0280933E02E8
:1023100082EC90E0909341028093400286EC90E042
:10232000909343028093420210924502109246021B
:10233000109247021092480260E082E00E942B0354
:10234000ECE4F3E0E491E0938706E8E3F3E0E49162
:10235000F0E0EE0FFF1FE45DFC4F859194919093A8
:102360008906809388061092920610929406109225
:102370009306109291061092900610928F0610927A
:102380008E0610928D0610928C0610928B0610927B
:102390008A068091C9029091CA02892B31F487E89C
:1023A00096E09093CA028093C9028FE596E00E945E
:1023B000CA108091C9029091CA02892B31F487E832
:1023C00096E09093CA028093C90287E396E00E9448
:1023D000CA10A0901F01B0902001C0902101D090A0
:1023E0002201E0901B01F0901C0100911D01109151
:1023F0001E01809126018F93809125018F938091FA
:1024000024018F93809123018F9323E131E047E1F1
:1024100051E065E775E089E795E00E94230BA09005
:102420000B01B0900C01C0900D01D0900E01E09016
:102430000701F09008010091090110910A018091B3
:1024400012018F93809111018F93809110018F93CE
:1024500080910F018F932BEA34E04FEA54E063EB55
:1024600074E087EB94E00E94230B85E591E0909364
:10247000CC028093CB0267EF71E08DEC92E00E947A
:10248000400E67EF71E082EF92E00E94400E67EF2E
:1024900071E088EF92E00E94400E67EF71E08EEFEE
:1024A00092E00E94400E88EE93E0A0E0B0E08093BE
:1024B000690490936A04A0936B04B0936C0485E75D
:1024C0008093D3028093D6021092D9028FEF80932B
:1024D00064048DB79EB708960FB6F8949EBF0FBEE2
:1024E0008DBF1F910F91FF90EF90DF90CF90BF9025
:1024F000AF900895CF93DF93CDB7DEB768970FB64F
:10250000F894DEBF0FBECDBF789484B5826084BDE1
:1025100084B5816084BD85B5826085BD85B58160E7
:1025200085BD80916E00816080936E001092810065
:102530008091810082608093810080918100816020
:1025400080938100809180008160809380008091E1
:10255000B10084608093B1008091B000816080936D
:10256000B00080917A00846080937A0080917A0034
:10257000826080937A0080917A00816080937A00F3
:1025800080917A00806880937A001092C10061E0A7
:1025900089E00E942B0361E08AE00E942B0382EA1B
:1025A0008093800081E18093810080E491E09093AA
:1025B0008700809386001092890010928800109204
:1025C0008B0010928A0061E083E00E942B0310923E
:1025D000700017BA83E28093B0008AE08093B10064
:1025E0008FE48093B3001092B40060911402709154
:1025F000150280911602909117020E94E00361E09B
:1026000086E00E942B0361E086E00E94FD0261E00B
:1026100085E00E942B0361E085E00E94FD02E091CD
:102620003C02F0913D0282E08083E0913802F0911B
:1026300039021082E0913A02F0913B0280E18083FE
:1026400010924402E0914002F091410286E08083C2
:10265000E0913E02F0913F02808180618083E091B1
:102660003E02F0913F02808188608083E0913E02CB
:10267000F0913F02808180688083E0913E02F0917A
:102680003F0280818F7D808387E396E00E945B0715
:102690008FE596E00E945B07C0902301D090240153
:1026A000E0902501F090260100911F01109120017A
:1026B000209121013091220140911B0150911C0178
:1026C00060911D0170911E0189E795E00E94B50897
:1026D00068EEC62E63E0D62EE12CF12C2091250663
:1026E000309126064091270650912806C701B60171
:1026F0000E94D523CA01B9010E944E224B015C0100
:10270000AC019B016091890570918A0580918B05D0
:1027100090918C050E94AF226093890570938A0581
:1027200080938B0590938C05A501940160918D0594
:1027300070918E0580918F05909190050E946A247A
:1027400060938D0570938E0580938F05909390050F
:10275000C0922506D0922606E0922706F09228061F
:1027600000E010E028E432E44AE959E969E97EE34F
:1027700089E795E00E94170880913506811104C011
:1027800089E795E00E94D20781E080933506109298
:10279000360680E090E0A0E2B1E48093A905909332
:1027A000AA05A093AB05B093AC0589E795E00E941C
:1027B000B507C0900F01D0901001E0901101F0908A
:1027C000120100910B0110910C0120910D0130912B
:1027D0000E0140910701509108016091090170912B
:1027E0000A0187EB94E00E94B50850EEC52E53E92C
:1027F000D52E54E0E52EF12C20916305309164052F
:102800004091650550916605C701B6010E94D52328
:10281000CA01B9010E944E224B015C01AC019B012F
:102820006091C7047091C8048091C9049091CA0452
:102830000E94AF226093C7047093C8048093C904B8
:102840009093CA04A50194016091CB047091CC04CB
:102850008091CD049091CE040E946A246093CB04B1
:102860007093CC048093CD049093CE04C092630502
:10287000D0926405E0926505F092660500E01CE7E1
:1028800022E938E440E050E0BA0187EB94E00E948E
:10289000170880917305811104C087EB94E00E94B2
:1028A000D20781E08093730587EB94E00E94B5071F
:1028B0008091670690916806A0916906B0916A06BA
:1028C00080931F0290932002A0932102B0932202D2
:1028D00080913F0690914006A0914106B09142063A
:1028E00080931B0290931C02A0931D02B0931E02C2
:1028F00086E00E94D40221E0892B09F020E0209399
:10290000190285E00E94D40221E0892B09F020E021
:102910002093180263E171E08AE691E00E94AD0B1A
:1029200085E090E00E941025FC0181E391E0918315
:10293000808384E192E09383828381E08483909119
:102940006D04292F30E0220F331F25533D4FD9014D
:10295000AD55BE4FED93FC9329543E4F43E751E0F4
:10296000F901518340839F5F90936D046FE172E0A2
:102970008CE791E00E94AD0B6BE172E086E891E09C
:102980000E94AD0B69E172E082E991E00E94DD0BEB
:1029900068E172E08AE991E00E94DD0B6AE172E091
:1029A00082EA91E00E94DD0B67E171E082EB91E049
:1029B0000E94AD0B6FEA74E08EEA91E00E94AD0BCD
:1029C0006BE171E08DEB91E00E94AD0B6FE171E086
:1029D00084EC91E00E94AD0B63E271E08BEC91E03E
:1029E0000E94AD0B67E071E089EB91E00E94AD0BB6
:1029F0006BE071E080EC91E00E94AD0B6FE071E064
:102A000087EC91E00E94AD0B20919604822F90E01C
:102A1000FC01EE0FFF1FEF55FB4F4EEC51E05183D1
:102A20004083880F991FFC01E956FB4F81E09FE02E
:102A3000918380832F5F2093960462ED71E0CE0135
:102A400043960E94400E2AE030E050E040E0BE0194
:102A50006D5E7F4FCE0101960E94550EBE016F5FE5
:102A60007F4F82EF92E00E94200DCE0101960E94DE
:102A70006B0DCE0143960E946B0D64ED71E08EEDFF
:102A800092E00E94042788E199E20FB6F894A89595
:102A9000809360000FBE9093600012E7612E772450
:102AA00073948CE292E00E948604892B09F469C534
:102AB000E8E75E2EFDE62F2EA4E63A2EB7E74B2E72
:102AC0008CE292E00E948604892B09F4E9C28CE230
:102AD00092E00E946404F82E61E070E080E090E0F3
:102AE0000E94A1031A8219821C821B821E821D82EF
:102AF0006DEC72E0CE0101960E94290EFB8A1C8AC1
:102B00000D811E810F5F1F4FB801CE0101960E94FB
:102B1000730D882309F419C229813A818D819E8120
:102B2000BE016D5E7F4F820F931F0E9404271E839C
:102B30000D83BE016F5F7F4F8DEC92E00E94290EE6
:102B4000CE0101960E946B0D8091D602853709F067
:102B5000B7CFFFE2FF1621F07DE0872EF810B0CF4F
:102B60008091D3028D3671F48091D902882351F07F
:102B700070E060E08DEC92E00E941504FC01808121
:102B80008093D6028091D3028436A9F48091D90231
:102B9000882389F08091D602853769F470E060E07F
:102BA0008DEC92E00E941504FC018081823709F0CF
:102BB000D1C18093D6028091D3028136A9F480914D
:102BC000D902882389F08091D602853769F470E0B4
:102BD00060E08DEC92E00E941504FC018081823758
:102BE00009F0CBC18093D6028091D302853709F4D6
:102BF00055C08091D902811151C070E060E08DEC28
:102C000092E00E941504FC018081813409F0C8C162
:102C100061E070E08DEC92E00E941504FC0180817F
:102C200082528093D4028091D4028093D502709214
:102C3000D90261E070E08DEC92E00E941504FC0185
:102C400080818F3209F0B8C161E070E08DEC92E0D4
:102C50000E941504FC018081803259F462E070E02A
:102C60008DEC92E00E941504FC0180818F3209F402
:102C7000AEC162E070E08DEC92E00E941504FC01B0
:102C80008081803259F463E070E08DEC92E00E9424
:102C90001504FC0180818F3209F499C16BED71E05C
:102CA000CE0101960E94400ECE0101960E94900B2B
:102CB000182FCE0101960E946B0D11113092D30294
:102CC00063EE71E0CE0101960E94400ECE010196A6
:102CD0000E94900B182FCE0101960E946B0D1111CE
:102CE0002092D30268EE71E0CE0101960E94400E60
:102CF000CE0101960E94900B182FCE0101960E94E2
:102D00006B0D112319F0F1E6F093D3028091D302F9
:102D1000853709F013C1F12C80916D04F81628F560
:102D20000F2D10E0F801EE0FFF1FEE57FB4F6081F3
:102D30007181CE0101960E94400ECE0101960E9443
:102D4000900BE82ECE0101960E946B0DEE2009F447
:102D500066C17092D9025092D60256E7852E8092B3
:102D6000D3021093D8020093D702F12C80919604DD
:102D7000F81608F0B1C00F2D10E068012BEEC20E5E
:102D8000D11CF601EE0FFF1FE553FD4F60817181ED
:102D9000CE0101960E94400ECE0101960E94900B3A
:102DA000E82ECE0101960E946B0DEE2009F476C14B
:102DB0007092D9025092D60286E68093D302109385
:102DC000D8020093D702A090CD02B090CE02A114F9
:102DD000B10449F00091D1021091D20275010115A0
:102DE000110509F01FC167EF71E08EEF92E00E94BC
:102DF000BC0DF601EE0FFF1FE553FD4FA081B18121
:102E0000FD0101900020E9F73197AF014A1B5B0BF0
:102E10007A01FFEFEF1AFF0A97016DEC72E0CE0125
:102E200001960E94550E8D819E81892B49F06FEE8F
:102E300071E089819A810E94FB2611E0892B09F0BB
:102E400010E0CE0101960E946B0D112309F444C0DD
:102E50000091D1021091D20261EF71E0CE01019692
:102E60000E94400E2091D1023091D2024D815E81AC
:102E700024173507A8F08091CD029091CE020097DB
:102E800079F069817A816115710551F0241B350B48
:102E9000820F931F0E94FB26DD24D394892B09F017
:102EA000D12CCE0101960E946B0DDD2011F0065051
:102EB00011099801A7016DEC72E0CE0101960E9404
:102EC000550EBE016F5F7F4F8EEF92E00E94200D86
:102ED000CE0101960E946B0D8091D302853771F56A
:102EE00070E060E08DEC92E00E941504FC0110811E
:102EF000193681F461E070E08DEC92E00E941504D7
:102F0000FC018081843631F41093D3027092D9028F
:102F10005092D6028091D302853781F470E060E050
:102F20008DEC92E00E941504FC018081803231F426
:102F30006092D3027092D9025092D60267EF71E08C
:102F40008DEC92E00E94BC0DBBCDCE0101960E949B
:102F5000590DEFCD8091CD029091CE02009749F0AE
:102F60000E94301E7093D8026093D7024092D6021E
:102F700022CE60E070E0CB01F5CF8091CD02909140
:102F8000CE02009749F00E94301E7093D8026093E1
:102F9000D7024092D60228CE60E070E0CB01F5CF98
:102FA0008091CD029091CE0260E0009711F00E94D6
:102FB000301E6093D40237CE62E070E08DEC92E078
:102FC0000E941504FC0180818F3209F43DCE80916E
:102FD000D302843661F470E060E08DEC92E00E94F0
:102FE0001504FC0180818136A1F48093D602809182
:102FF000D302813609F052CE70E060E08DEC92E0B1
:103000000E941504FC018081813631F48093D60240
:1030100045CE6092D602EBCF6092D6023FCEF394BB
:103020007BCE740147019FEF891A990AF7018081CD
:10303000082E000C990B0E941822892B91F7015041
:1030400011090A0D1B1DF8018081082E000C990B37
:103050000E941822892B31F00E151F0518F001501F
:103060001109F1CFA8014F5F5F4F4E195F095093CF
:10307000D2024093D102AE14BF0420F4B701C501BF
:103080000E94F226E091CD02F091CE028091D10211
:103090009091D202E80FF91F1082A5CEF39466CE6C
:1030A0008091D3028D36B9F561EF72E08BEC92E03E
:1030B0000E9497078091D5020E94C60D8091D6028A
:1030C000893659F460E08091D4020E942B0360EEAF
:1030D00072E08BEC92E00E9497078091D6028934CF
:1030E00059F462E08091D4020E942B0363EC72E0F9
:1030F0008BEC92E00E9497078091D6028F3659F4AC
:1031000061E08091D4020E942B0361EB72E08BECB2
:1031100092E00E9497078091D302843609F074C030
:103120008091D6028237D1F48091D4020E94D402D9
:103130009093D8028093D7026FE972E08BEC92E013
:103140000E9497078091D7029091D8020E94F80DB3
:103150006CE972E08BEC92E00E9497078091D602B6
:10316000813661F56AE972E08BEC92E00E94970784
:1031700010E0812F0E94D4029093D8028093D7024E
:1031800067E972E08BEC92E00E949707812F0E9422
:10319000C60D63E972E08BEC92E00E949707809184
:1031A000D7029091D8020E94F80D60E972E08BEC92
:1031B00092E00E9497071F5F1E30D9F68091D602D9
:1031C000873711F56091D7028091D4020E94FD02E9
:1031D0006DE772E08BEC92E00E9497078091D50238
:1031E0000E94C60D64E772E08BEC92E00E949707A4
:1031F0008091D7029091D8020E94F80D60E772E0AA
:103200008BEC92E00E9497078091D302813609F0FF
:10321000AEC08091D6028237D1F48091D4020E9450
:1032200067039093D8028093D7026EE572E08BEC2F
:1032300092E00E9497078091D7029091D8020E9455
:10324000F80D6BE572E08BEC92E00E94970780919D
:10325000D602813661F569E572E08BEC92E00E945E
:10326000970710E0812F0E9467039093D802809304
:10327000D70266E572E08BEC92E00E949707812FFF
:103280000E94C60D62E572E08BEC92E00E94970707
:103290008091D7029091D8020E94F80D6FE472E0FD
:1032A0008BEC92E00E9497071F5F1630D9F6809151
:1032B000D602873709F05BC00091D7021091D8027F
:1032C000F090D40261E08F2D0E942B0301151105AF
:1032D00029F460E08F2D0E94FD022DC00F3F1105E3
:1032E00011F461E0F7CFEF2DF0E0E85EFC4FE491E0
:1032F000E33009F40EC148F4E130C9F0E23009F4DA
:1033000003C1003811056CF7E4CFE73009F40BC1B5
:10331000E83009F410C1E430A1F7809180008062A8
:103320008093800010938B0000938A0004C084B5C2
:10333000806884BD07BD6CE372E08BEC92E00E9474
:1033400097078091D5020E94C60D63E372E08BEC73
:1033500092E00E9497078091D7029091D8020E9434
:10336000F80D6FE272E08BEC92E00E94970780917B
:10337000D302863791F46DE272E08BEC92E00E940A
:1033800097076091D7028BEC92E00E94B40C6AE23E
:1033900072E08BEC92E00E9497078091D302863610
:1033A00009F04AC0E091D702F091D802EE0FFF1F5A
:1033B000E956FB4F008111811A8219821C821B82FF
:1033C0001E821D826EEF72E0CE0101960E94290ED0
:1033D000CE010196F80109958C01CE0101960E945B
:1033E0006B0D68E172E08BEC92E00E9497071C8AFB
:1033F0001B8A1E8A1D8A188E1F8A4AE0BE016F5FD3
:103400007F4FC8010E94571EBE016F5F7F4FCE01E4
:1034100043960E94BC0D6B897C8940E08BEC92E066
:103420000E940D0CCE0143960E946B0D65E172E087
:103430008BEC92E00E9497078091D302823711F0C3
:10344000853721F48BEC92E00E94DD0C8091D30251
:10345000893631F463E172E08BEC92E00E949707C9
:103460008091D302823761F0853751F08BEC92E086
:103470000E94890C60E172E08BEC92E00E94970759
:10348000809162049091630469E170E00E94C1231D
:10349000CC24C394C60EEBECF2E0D12C8F01075E76
:1034A0001F4FDC1408F04FC0EDB6FEB68DB79EB7C7
:1034B0004A970FB6F8949EBF0FBE8DBF6DB77EB70B
:1034C0006F5F7F4FF99689E1DB0101900D928A953C
:1034D000E1F7FB01118E01900020E9F73197AF0170
:1034E000461B570B8CE292E00E94280461E070E0DA
:1034F00080E090E00E94A1030FB6F894FEBE0FBEDC
:10350000EDBED394F801CACF84B5806284BD08BDF6
:1035100012CF809180008068809380001093890092
:103520000093880008CF8091B00080688093B0003D
:103530000093B30000CF8091B00080628093B00010
:103540000093B400F8CEE4E0F3E08EE591E0119250
:103550000197E9F785E78093D3028093D602109212
:10356000D90267EF71E08DEC92E00E94BC0D67EF2D
:1035700071E08EEF92E00E94BC0D109263041092F5
:103580006204A8950E94D403C0900202D090030266
:10359000E0900402F09005022091000130910101B9
:1035A00046015701820E931EA11CB11C9501840196
:1035B0006017710782079307A8F0809102018823A2
:1035C00089F00091C9021091CA02C8010E94CE057B
:1035D0006CECC8010E949F0564E4C8010E949F052D
:1035E000109202010E94D4034B015C01C701B60195
:1035F0000E944E2220E030E04AE754E40E94FE237D
:103600000E94DC2486169706A806B90608F453C063
:103610000E94D40360930202709303028093040219
:1036200090930502709202010FEF1FEFA8950F5FB4
:103630001F4FC090C902D090CA0298E0E92EF12C29
:10364000B12CAA24A394C6010E944C058111BA286A
:10365000AA0C21E0E21AF108B1F7BB2039F38091FE
:10366000000190910101012B09F0DCC001969093BB
:1036700001018093000187E396E00E94BA0687E388
:1036800096E00E9406068FE596E00E94BA068FE556
:1036900096E00E9406068091770690917806A091A8
:1036A0007906B0917A068093750590937605A0937C
:1036B0007705B093780589E795E00E94710910912C
:1036C0001202113009F45DC1123009F406C2809172
:1036D00013028111F3C020E030E040E05FE360912D
:1036E0001701709118018091190190911A010E949F
:1036F000FE239B01AC0160914F06709150068091B2
:103700005106909152060E940B2518160CF08CC0A1
:103710000E94D403C0900E02D0900F02E0901002DD
:10372000F09011026C197D098E099F09683C774958
:103730008440910508F478C010931302709212022D
:1037400060E086E00E94FD020E94D40360930A02BA
:1037500070930B0280930C0290930D0220916706E8
:10376000309168064091690650916A0620931F02C5
:1037700030932002409321025093220280913F0611
:1037800090914006A0914106B091420680931B02A1
:1037900090931C02A0931D02B0931E02609113012E
:1037A0007091140180911501909116010E94FD23E2
:1037B0009F7711E020E030E040E85FE30E9449227B
:1037C00018160CF410E010931A0286E00E94D4023E
:1037D00021E0892B09F020E02093190285E00E9466
:1037E000D40221E0009709F020E0209318022091F4
:1037F0001902222309F4F1C1892B09F0EEC11092BC
:1038000089001092880080E0882E80E0982E892818
:1038100009F447C90E949204882309F43EC90E9412
:1038200000003BC9019723CF20E030E040E05FE398
:1038300060911701709118018091190190911A01FE
:103840000E94FD239B01AC0160914F0670915006D0
:1038500080915106909152060E94492287FF7ECFA7
:103860000E94D403C0900E02D0900F02E09010028C
:10387000F09011026C197D098E099F096831794712
:103880008105910508F46ACF1093130282E08093BA
:1038900012028091170190911801A0911901B09125
:1038A0001A018093AB049093AC04A093AD04B09341
:1038B000AE0487EB94E00E94710946CF813009F095
:1038C0004DCFC0904F06D0905006E0905106F0903A
:1038D00052068090530690905406A0905506B090E2
:1038E0005606A5019401C701B6010E940B251816C2
:1038F00074F4209157063091580640915906509122
:103900005A06C501B4010E94492218164CF50E94BE
:10391000D40300910E0210910F02209110023091F9
:103920001102601B710B820B930B28EE33E040E019
:1039300050E00E94D523CA01B9010E944E2220E026
:1039400030E041EE54E40E94492287FD07CF2091E8
:103950004F0630915006409151065091520602C0D8
:10396000A7019601609106027091070280910802FA
:10397000909109020E94FD230E94DB011092130224
:10398000EDCE0E94D40300910A0210910B02209107
:103990000C0230910D02601B710B820B930B28EE11
:1039A00033E040E050E00E94D523CA01B9010E94F3
:1039B0004E226B017C0120E030E044EB52E40E9497
:1039C000492287FDCBCE80904F0690905006A09064
:1039D0005106B090520620E030E040E05FE3609195
:1039E0001701709118018091190190911A010E949C
:1039F000FD231B012C01AC019B01C501B4010E94F8
:103A0000492287FF13C0109213021092120261E044
:103A100086E00E94FD020E94D40360930E02709320
:103A20000F02809310029093110298CE20E030E0B4
:103A300046E954E4C701B6010E94492287FF48C005
:103A400020E030E041E655E4C701B6010E946A2457
:103A5000209103013091040140910501509106012C
:103A60000E94AF229B01AC01C501B4010E94FD235D
:103A70004B015C01AC019B01C201B1010E940B250D
:103A80001816D4F48092060290920702A0920802BF
:103A9000B0920902709213021092120261E086E065
:103AA0000E94FD020E94D40360930E0270930F02E5
:103AB000809310029093110220E030EC48E255E42C
:103AC000C701B6010E940B2518160CF047CE9BCFFC
:103AD0006BEA7AEA8AEA9EE3BBCF0E94D4030091A4
:103AE0000A0210910B0220910C0230910D02601B12
:103AF000710B820B930B0E944E226B017C01209173
:103B0000AF043091B0044091B1045091B2040E94CE
:103B1000492287FD15C02091AF043091B004409137
:103B2000B1045091B204C701B6010E940B251816CA
:103B300084F485E00E94D402892B59F461E006C028
:103B400085E00E94D40260E0892B29F385E00E9481
:103B5000FD028091170190911801A0911901B09177
:103B60001A018093AB049093AC04A093AD04B0937E
:103B7000AE0487EB94E00E947109882351F00E9403
:103B8000D40360930A0270930B0280930C0290930B
:103B90000D0220E030E040E05FE36091170170919A
:103BA00018018091190190911A010E94FE239B0136
:103BB000AC0160914F067091500680915106909132
:103BC00052060E940B2518160CF0C8CD1092130255
:103BD0001092120261E085E01CCF60911402709196
:103BE000150280911602909117020E94E0030BCEFD
:103BF00085E591E09093CC028093CB028EEF92E02A
:103C00000E946B0D88EF92E00E946B0D82EF92E0B4
:103C10000E946B0D8DEC92E00C946B0DEF920F9364
:103C20001F93CF93DF93E80134E047FD34E1042E86
:103C3000000C550B57FF03C0519541955109E32ED8
:103C4000022F242FAE010E94911ECE01DF91CF9151
:103C50001F910F91EF900895662777270C94F01F1E
:103C60001F93FC0199278827BC01E8941191103219
:103C7000E9F3193010F01E30C8F31B3251F01D3239
:103C800049F4689406C00E94621E610F711D811D77
:103C9000911D119110531A30B0F33EF49095809518
:103CA000709561957F4F8F4F9F4F1F910895BB2750
:103CB0004A3031F4992322F4BDE2909581959F4FCB
:103CC0000C94781E592F482F372F262F660F771FF9
:103CD000881F991F660F771F881F991F620F731F18
:103CE000841F951F660F771F881F991F0895BB2794
:103CF000FB015527AA27880F991FAA1FA41710F0A8
:103D0000A41B83955051B9F7A05DAA3308F0A95DB3
:103D1000A193009779F7B111B1931192CB010C9453
:103D20003922A9E0B0E0E7E9FEE10C9481236A01C1
:103D3000F22EB02E102FFBE3AF2EA01608F41BE3DB
:103D40001F5F012F27E0AE014F5F5F4F0E944021B0
:103D5000BC018981982F9970913009F43FC09BE292
:103D6000E1FC04C09E2D9170E0FC3AC05E2D5071C4
:103D7000E82FE87083FF46C084E0911101C083E022
:103D8000EF2DE81B8F1508F0E0E0D6018E2F20E222
:103D9000552351F1992329F0D6019C93C601019630
:103DA0006C0196012D5F3F4FE2FE24C08EE4D601E8
:103DB0008C9391E411969C93119712968C93D90150
:103DC0008E2F90E281111BC0E20FF32FF11D1082A4
:103DD0008EEF9FEF2996ECE00C949D239DE2C6CFD9
:103DE00090E2C4CF2D9381508111FCCFCE0ED11C17
:103DF000E0E0D0CF8EE6D6018C9391E6DBCF9D93A9
:103E00008150E0CF482F447082FF3DC084E0911183
:103E100001C083E08F1510F4EF2DE81BD6018E2F23
:103E200020E2552309F1992329F0D6019C93C6017C
:103E300001966C0196012D5F3F4FE2FE1BC089E4A5
:103E4000D6018C938EE411968C93119786E412968A
:103E50008C93D9018E2F90E2882309F4B5CF9D93DE
:103E60008150FACF2D9381508111FCCFCE0ED11C01
:103E7000E0E0D9CF89E6D6018C938EE611968C933B
:103E8000119786E6E4CF9B0177FF02C030E020E087
:103E9000A1E0B0E0911102C0B0E0A0E0F9013196DC
:103EA000AE0FBF1F8B2C912CBB2009F461C05401B5
:103EB000EFEFAE1ABE0AAA0DBB1DFA161B0619F0CB
:103EC00014F04F2D4A1B511188C0E3FC59C07601F4
:103ED000A42FB0E2A1114FC0C40ED11C992309F444
:103EE0005BC040E0D6011196F60190836D01552329
:103EF00009F448C0012F060F9A81582F507184FF92
:103F000003C0913309F4015010160CF047C009307A
:103F100008F008E0EEE2FE2E5B01A01AB108850170
:103F20009194819491082F3F320729F4D601FC9295
:103F3000F60131966F016217730794F102171307A8
:103F40007CF5DB01A21BB30BAA24A394B12CAC0E0D
:103F5000BD1EAA0DBB1D11968C9121503109D601B1
:103F6000119628153905F4F0F60180836D01DBCF39
:103F7000B12CA12CA0CFF701B1937F01A150AACF02
:103F80009111B0CFD601942F50E302C05D939150B0
:103F90009111FCCFC40ED11C40E0ACCF01E0BACFF0
:103FA00080E3DBCF6217730731F4963388F49533DF
:103FB00011F4552369F0F6018083FD01842F90E20E
:103FC000811108C0A40FB11D1C9290E080E002CFC7
:103FD00081E3F1CF91938150F3CF911183CF8ACFB9
:103FE000B0E0A0E0E6EFFFE10C9481235C017B01EF
:103FF0006115710519F0DB018D939C9385010F5FAD
:104000001F4FF501D0818D2F90E00E9418226C0186
:10401000892BB9F5DD32B9F50F5F1F4FD501119628
:10402000DC91C1E05801F1E0AF1AB10843E050E083
:1040300060E770E0C5010E942122892B69F56801C3
:1040400082E0C80ED11C45E050E06BE670E0C6018E
:104050000E942122892B21F4680197E0C90ED11C0E
:10406000E114F10419F0D701CD92DC9260E070E028
:1040700080E89FEFC111FFC060E070E080E89FE73B
:10408000FAC05801BBCFDB3229F485010E5F1F4F08
:10409000F501D181C0E0C6CF43E050E068E670E0B2
:1040A000C5010E942122892BE9F0F80110E000E00F
:1040B00020E030E0A9015F01B0ED8B2E8D0E89E08C
:1040C0008815C8F19C2E689491F88C2F8870C2FFD7
:1040D00016C0811102C00F5F1F4F3196D501DC91D0
:1040E000C92DE9CFE114F10429F00E5F1F4FF7014C
:1040F0001183008360E070E080EC9FE7BCC0882300
:1041000011F001501109A5E0B0E00E9470239B015D
:10411000AC01220F331F441F551F280D311D411DB7
:10412000511D283999E93907490799E15907A8F23A
:10413000C6609C2ED2CFAEEF8A1206C0C3FD3CC033
:104140009C2E689493F8C9CFDF7DD534A9F5808182
:104150008D3239F4C061DF011296818162E070E036
:1041600006C0DF018B32C1F3119661E070E080532D
:104170005D01A61AB70A8A30F8F4E0E8CE16ECE042
:10418000DE065CF4B601660F771F660F771FC60E5A
:10419000D71ECC0CDD1CC80ED11C5D01FFEFAF1A81
:1041A000BF0A8C9180538A30A8F1C4FF03C0D19418
:1041B000C194D1080C0D1D1DC1FF09C0E114F1040B
:1041C00031F081E0A81AB108D701AD92BC92CA01C2
:1041D000B9010E944E22C370C33009F490584B01BC
:1041E0005C0120E030E0A9010E944922882309F403
:1041F00040C0CFE9D0E017FF05C011950195110926
:10420000C7E8D0E06E01B8E1CB1AD10880E2E82E11
:10421000F12C0FC0D501B1CFFE012591359145910B
:1042200054910E191F09C501B4010E94AF224B0120
:104230005C01D501C4010E151F0574F72497F59490
:10424000E794CC16DD06A9F78A2F880F8B2F881FDD
:104250008F3F49F020E030E0A901C501B4010E9480
:104260004922811106C082E290E0909396068093E5
:104270009506C501B401CDB7DEB7ECE00C949D23E3
:10428000283008F027E03327DA01990F311D87FD28
:10429000916000966105710539F432602E5F3D939F
:1042A00030E32A95E1F708959F3F30F0803871059B
:1042B000610509F03C5F3C5F3D93913008F08068F8
:1042C000911DDF93CF931F930F93FF92EF92192FBE
:1042D000987F9695E92F96959695E90FFF27E350DD
:1042E000FF4F99273327EE24FF24A701E70105900C
:1042F0000894079428F4360FE71EF81E491F511D35
:10430000660F771F881F991F0694A1F705900794E1
:1043100028F4E70EF81E491F561FC11D770F881F8E
:10432000991F661F0694A1F70590079428F4F80ECC
:10433000491F561FC71FD11D880F991F661F771F62
:104340000694A1F70590079420F4490F561FC71F44
:10435000D81F990F661F771F881F0694A9F78491AD
:104360001095177041F0D695C79557954795F794D6
:10437000E7941A95C1F7E3EAF0E068941590159177
:1043800035916591959105907FE27395E118F10A59
:10439000430B560BC90BD009C0F7E10CF11E431FAC
:1043A000561FC91FD01D7EF4703311F48A95E6CFD5
:1043B000E894015030F0080F0AF40027021708F4BF
:1043C000202F2395022F7A3328F079E37D932A95C5
:1043D000E9F710C07D932A9589F60694979567951D
:1043E000379517951794E118F10A430B560BC90B33
:1043F000D00998F023957E9173957A3308F070E395
:104400007C932013B8F77E9170617D9330F0839593
:1044100071E37D9370E32A95E1F71124EF90FF900B
:104420000F911F91CF91DF91992787FD9095089566
:1044300091110C941C23803219F089508550C8F7D3
:104440000895FB01DC014150504088F08D9181348A
:104450001CF08B350CF4805E659161341CF06B357B
:104460000CF4605E861B611171F3990B0895881B33
:10447000FCCFDC01FC01672F71917723E1F73297C4
:1044800004C07C916D9370836291AE17BF07C8F32F
:1044900008950E948B2208F481E00895E89409C0F1
:1044A00097FB3EF490958095709561957F4F8F4F67
:1044B0009F4F9923A9F0F92F96E9BB279395F6957D
:1044C000879577956795B795F111F8CFFAF4BB0FFB
:1044D00011F460FF1BC06F5F7F4F8F4F9F4F16C05F
:1044E000882311F096E911C0772321F09EE8872FE9
:1044F000762F05C0662371F096E8862F70E060E0A5
:104500002AF09A95660F771F881FDAF7880F96951D
:10451000879597F90895990F0008550FAA0BE0E8C1
:10452000FEEF16161706E807F907C0F01216130675
:10453000E407F50798F0621B730B840B950B39F4B5
:104540000A2661F0232B242B252B21F408950A261B
:1045500009F4A140A6958FEF811D811D08950E9449
:10456000C2220C9436230E94282338F00E942F2365
:1045700020F0952311F00C941F230C942523112473
:104580000C946A230E94472370F3959FC1F3950F03
:1045900050E0551F629FF001729FBB27F00DB11DC7
:1045A000639FAA27F00DB11DAA1F649F6627B00D57
:1045B000A11D661F829F2227B00DA11D621F739F40
:1045C000B00DA11D621F839FA00D611D221F749F4E
:1045D0003327A00D611D231F849F600D211D822F95
:1045E000762F6A2F11249F5750409AF0F1F08823BC
:1045F0004AF0EE0FFF1FBB1F661F771F881F9150E9
:104600005040A9F79E3F510580F00C941F230C9455
:104610006A235F3FE4F3983ED4F3869577956795D8
:10462000B795F795E7959F5FC1F7FE2B880F911D12
:104630009695879597F9089599278827089597F96A
:104640009F6780E870E060E008959FEF80EC089538
:1046500000240A9416161706180609060895002461
:104660000A9412161306140605060895092E0394DB
:10467000000C11F4882352F0BB0F40F4BF2B11F44F
:1046800060FF04C06F5F7F4F8F4F9F4F089557FDAE
:104690009058440F551F59F05F3F71F04795880FB0
:1046A00097FB991F61F09F3F79F087950895121647
:1046B00013061406551FF2CF4695F1DF08C01616F3
:1046C00017061806991FF1CF8695710561050894A4
:1046D0000895E894BB2766277727CB0197F90895BB
:1046E0000E94B223A59F900DB49F900DA49F800DB2
:1046F000911D112408952F923F924F925F926F92D5
:104700007F928F929F92AF92BF92CF92DF92EF9261
:10471000FF920F931F93CF93DF93CDB7DEB7CA1BE2
:10472000DB0B0FB6F894DEBF0FBECDBF09942A880D
:10473000398848885F846E847D848C849B84AA84B5
:10474000B984C884DF80EE80FD800C811B81AA8142
:10475000B981CE0FD11D0FB6F894DEBF0FBECDBF0D
:10476000ED010895A29FB001B39FC001A39F700DFA
:10477000811D1124911DB29F700D811D1124911D69
:104780000895AA1BBB1B51E107C0AA1FBB1FA61798
:10479000B70710F0A61BB70B881F991F5A95A9F7EA
:1047A00080959095BC01CD010895A1E21A2EAA1B17
:1047B000BB1BFD010DC0AA1FBB1FEE1FFF1FA217D1
:1047C000B307E407F50720F0A21BB30BE40BF50BCE
:1047D000661F771F881F991F1A9469F76095709557
:1047E000809590959B01AC01BD01CF010895EE0F1E
:1047F000FF1F0590F491E02D09945058BB27AA277C
:104800000E9415240C9436230E94282338F00E941D
:104810002F2320F039F49F3F19F426F40C9425231C
:104820000EF4E095E7FB0C941F23E92F0E94472329
:1048300058F3BA17620773078407950720F079F4D5
:10484000A6F50C9469230EF4E0950B2EBA2FA02D3B
:104850000B01B90190010C01CA01A0011124FF272D
:10486000591B99F0593F50F4503E68F11A16F04028
:10487000A22F232F342F4427585FF3CF4695379527
:104880002795A795F0405395C9F77EF41F16BA0BEC
:10489000620B730B840BBAF09150A1F0FF0FBB1F9A
:1048A000661F771F881FC2F70EC0BA0F621F731FE3
:1048B000841F48F4879577956795B795F7959E3F40
:1048C00008F0B0CF9395880F08F09927EE0F9795D1
:1048D000879508950E947E240C9436230E942F23EE
:1048E00058F00E94282340F029F45F3F29F00C94EF
:1048F0001F2351110C946A230C9425230E944723F3
:1049000068F39923B1F3552391F3951B550BBB27FE
:10491000AA2762177307840738F09F5F5F4F220F43
:10492000331F441FAA1FA9F335D00E2E3AF0E0E83A
:1049300032D091505040E695001CCAF72BD0FE2F84
:1049400029D0660F771F881FBB1F26173707480718
:10495000AB07B0E809F0BB0B802DBF01FF279358D0
:104960005F4F3AF09E3F510578F00C941F230C9452
:104970006A235F3FE4F3983ED4F386957795679575
:10498000B795F7959F5FC9F7880F911D9695879505
:1049900097F90895E1E0660F771F881FBB1F621724
:1049A00073078407BA0720F0621B730B840BBA0BE2
:1049B000EE1F88F7E09508950E944F2388F09F57D7
:1049C00098F0B92F9927B751B0F0E1F0660F771F33
:1049D000881F991F1AF0BA95C9F714C0B13091F029
:1049E0000E946923B1E008950C946923672F782F02
:1049F0008827B85F39F0B93FCCF3869577956795EE
:104A0000B395D9F73EF490958095709561957F4F59
:104A10008F4F9F4F08950E948B2208F48FEF0895C7
:104A20000F931F93CF93DF938230910510F482E0B0
:104A300090E0E0919906F0919A0630E020E0B0E035
:104A4000A0E0309799F42115310509F44AC0281BDC
:104A5000390B24303105D8F58A819B8161157105A8
:104A600089F1FB0193838283FE0111C04081518152
:104A70000281138148175907E0F04817590799F444
:104A8000109761F012960C93129713961C9332961E
:104A9000CF01DF91CF911F910F9108950093990657
:104AA00010939A06F4CF2115310551F042175307A0
:104AB00038F0A901DB019A01BD01DF01F801C1CF86
:104AC000EF01F9CF90939A0680939906CDCFFE011E
:104AD000E20FF31F81939193225031093983288388
:104AE000D7CF2091970630919806232B41F420913F
:104AF000290130912A01309398062093970620913E
:104B00002701309128012115310541F42DB73EB719
:104B100040912B0150912C01241B350BE0919706FD
:104B2000F0919806E217F307A0F42E1B3F0B28170D
:104B3000390778F0AC014E5F5F4F2417350748F016
:104B40004E0F5F1F50939806409397068193919361
:104B50009FCFF0E0E0E09CCFCF93DF930097E9F0A8
:104B6000FC01329713821282A0919906B0919A06A5
:104B7000ED0130E020E01097A1F420813181820F17
:104B8000931F20919706309198062817390709F04E
:104B900061C0F0939806E0939706DF91CF91089556
:104BA000EA01CE17DF07E8F54A815B819E014115D6
:104BB0005105B1F7E901FB83EA8349915991C40F8B
:104BC000D51FEC17FD0761F4808191810296840F57
:104BD000951FE90199838883828193819B838A83CE
:104BE000F0E0E0E012968D919C9113970097B9F553
:104BF0002D913C911197CD010296820F931F209128
:104C00009706309198062817390739F6309751F5ED
:104C100010929A0610929906B0939806A093970660
:104C2000BCCFD383C28340815181840F951FC817A5
:104C3000D90761F44E5F5F4F88819981480F591FF2
:104C4000518340838A819B8193838283211531051F
:104C500009F0B0CFF0939A06E09399069ECFFD013C
:104C6000DC01C0CF13821282D7CFB0E0A0E0EBE32B
:104C7000F6E20C947D238C01009751F4CB010E9445
:104C800010258C01C801CDB7DEB7E0E10C94992363
:104C9000FC01E60FF71F9C0122503109E217F307D0
:104CA00008F49DC0D901CD91DC911197C617D707A3
:104CB00098F0C530D10530F3CE01049786179707D9
:104CC00008F3C61BD70B2297C193D1936D937C93A6
:104CD000CF010E94AC25D6CF5B01AC1ABD0A4C01B6
:104CE0008C0E9D1EA0919906B0919A06512C412CD4
:104CF000F12CE12C109731F5809197069091980650
:104D00008815990509F05CC04616570608F058C08A
:104D10008091270190912801009741F48DB79EB7AB
:104D200040912B0150912C01841B950BE817F9073A
:104D300008F055C0F0939806E0939706F901718347
:104D40006083A0CF8D919C91119712966C901297D1
:104D500013967C901397A815B90559F56C0142E09C
:104D6000C40ED11CCA14DB0420F1AC014A195B0942
:104D7000DA011296159780F0628273825183408324
:104D8000D9016D937C93E114F10471F0D70113966E
:104D9000FC93EE93129776CF22968C0F9D1FF9010C
:104DA00091838083F301EFCFF0939A06E093990605
:104DB00069CF4816590608F42C017D01D3019ACF1A
:104DC000CB010E9410257C01009749F0AE01B8018B
:104DD0000E94F226C8010E94AC25870153CF10E043
:104DE00000E050CFFB01DC0102C001900D92415068
:104DF0005040D8F70895FB01DC018D910190801996
:104E00000110D9F3990B0895FB01DC0101900D927B
:104E10000020E1F70895FB01DC014150504030F0E3
:104E20008D910190801919F40020B9F7881B990B16
:104E3000089511E0C0EBD1E004C0FE010E94F72309
:0C4E40002196C13BD107C9F7F894FFCFC1
:104E4C005E01010000F0410000A0400000803E33F4
:104E5C0033933F3333534033335340000020416F7F
:104E6C0012033A0000FA4300009B06800000000089
:104E7C00001C1000000000790C0000000010100055
:104E8C00000000C804280455041505860464047841
:104E9C000400000000DD0C747275650066616C73B3
:104EAC00650061726475696E6F00736574706F690B
:104EBC006E740066616E6C6576656C0070726F6204
:104ECC006574656D70006368616D62657274656DA3
:104EDC007000636F6F6C696E670068656174696EF2
:104EEC00670074656D707265616368656400686500
:104EFC0061746F757470757400686561746B7000A3
:104F0C00686561746B6900686561746B64007365D6
:104F1C007400320073657269616C0064696769744E
:104F2C00616C006D6F646500616E616C6F67003F52
:084F3C000020485454502F00DE
:00000001FF
