:100000000C94B1010C94D9010C94D9010C94D90130
:100010000C94D9010C94D9010C94D9010C94D901F8
:100020000C94D9010C94D9010C94D9010C94D901E8
:100030000C94D9010C94D9010C94D9010C94D901D8
:100040000C9401100C94D9010C9471100C944B1069
:100050000C94D9010C94D9010C94D9010C94D901B8
:100060000C94D9010C94D9014E414E494E49545932
:10007000494E46CDCCCC3D0AD7233C17B7D1387773
:10008000CC2B329595E6241FB14F0A000020410089
:1000900000C84200401C4620BCBE4CCA1B0E5AAED3
:1000A000C59D7400407A10F35A00A0724E180900E2
:1000B00010A5D4E80000E87648170000E40B5402CD
:1000C0000000CA9A3B000000E1F505000080969808
:1000D00000000040420F000000A086010000001058
:1000E0002700000000E8030000000064000000009A
:1000F000000A00000000000100000000002C76D87B
:1001000088DC674F0823DFC1DFAE59E1B1B796E560
:10011000E3E453C63AE651997696E8E6C28426EBC4
:10012000898C9B62ED407C6FFCEFBC9C9F40F2BAD7
:10013000A56FA5F490055A2AF75C936B6CF9676D6F
:10014000C11BFCE0E40D47FEF520E6B500D0ED90C4
:100150002E0300943577050080841E080000204E91
:100160000A000000C80C333333330F986E1283112A
:1001700041EF8D2114893BE65516CFFEE6DB18D101
:10018000844B381BF77C1D901DA4BBE424203284D3
:10019000725E228100C9F124ECA1E53D270D0A0021
:1001A0007D2C20002C20007B227661726961626CBC
:1001B0006573223A207B003A20002C2022636F6E68
:1001C0006E6563746564223A20747275657D002CD7
:1001D00020226861726477617265223A20002C20C7
:1001E000226E616D65223A2000226964223A200065
:1001F000005EBCE2613FDD83C29C7E20A3FD1F4107
:10020000009D23BE46DB65F88C11AF32CA57E974F6
:100210000D0A007B002C20007B2272657475726EC3
:100220005F76616C7565223A20002C20007B0022ED
:100230002C20002073657420746F20007B226D6574
:100240007373616765223A202250696E2044002C46
:100250002000223A20002241007B002C20007B223B
:1002600072657475726E5F76616C7565223A2000F6
:10027000222C20002073657420746F20007B226D77
:10028000657373616765223A202250696E204400CD
:100290002C2000223A20002244007B002C20007BEE
:1002A0002272657475726E5F76616C7565223A2094
:1002B000002073657420746F206F757470757422DC
:1002C0002C20002073657420746F20696E70757423
:1002D00020776974682070756C6C7570222C200012
:1002E0002073657420746F20696E707574222C20E1
:1002F000007B226D657373616765223A2022506925
:100300006E20440000000000240027002A000000A6
:100310000000250028002B0000000008000201005A
:1003200000030407000000000000000000000000BF
:100330002300260029000404040404040404020227
:100340000202020203030303030301020408102054
:1003500040800102040810200102040810202B1123
:10036000871D11241FBECFEFD8E0DEBFCDBF26E032
:10037000A2EDB1E001C01D92A537B207E1F711E08F
:10038000A0E0B1E0EAE6FDE402C005900D92A23DD6
:10039000B107D9F711E0C0EBD1E004C02197FE010D
:1003A0000E948623CF3AD107C9F70E9442120C94CB
:1003B000A8260C9400008F929F92AF92BF92CF928A
:1003C000DF92EF92FF926B017C0120E030E0A90107
:1003D0000E949A241816A4F420E030E040E85EE37E
:1003E000C701B6010E94D82118160CF465C0FF9011
:1003F000EF90DF90CF90BF90AF909F908F90089537
:1004000020E030E040E85EEBC701B6010E949A248C
:1004100087FFEDCF8090030190900401A09005012B
:10042000B0900601C701B60190582FE832EC45EFB5
:100430005CE30E943E222AE939E949E95FE30E9430
:100440008D236B017C012AE939E949E95FE30E94C8
:10045000D82187FD78C020E030E040EC5FE3C701A1
:10046000B6010E949A24181634F4C12CD12C20EC29
:10047000E22E2FE3F22EA7019601C501B4010E94DE
:10048000F9236B017C012DEC3CEC4CE45DE30E9414
:10049000D82187FF08C08DECC82E8CECD82E8CE4B8
:1004A000E82E8DE3F82EC0920301D0920401E09271
:1004B0000501F09206019BCF80900301909004010A
:1004C000A0900501B09006012FE832EC45EF5CE307
:1004D000C701B6010E943E222AE939E949E95FE3F2
:1004E0000E948D236B017C012AE939E949E95FE328
:1004F0000E94D82187FD1FC020E030E040EC5FE380
:10050000C701B6010E949A24181634F4C12CD12CCC
:1005100040ECE42E4FE3F42EA7019601C501B4018F
:100520000E943E22609303017093040180930501B1
:10053000909306015CCF3AE9C32E39E9D32EED2C16
:100540003FE3F32EE9CF9AE9C92E99E9D92EED2C94
:100550009FE3F92E90CF833081F028F4813099F019
:100560008230A9F008958730A9F08830C9F084302E
:10057000B1F4809180008F7D03C0809180008F77DF
:1005800080938000089584B58F7784BD089584B5E5
:100590008F7DFBCF8091B0008F778093B00008955E
:1005A0008091B0008F7DF9CFCF93DF93282F30E07B
:1005B000F901E85EFC4F8491F901E65BFC4FD491B0
:1005C000F901EA5CFC4FC491CC23A1F081110E9497
:1005D000AB02EC2FF0E0EE0FFF1FE45DFC4FA591A6
:1005E000B491EC91ED2381E090E009F480E0DF919B
:1005F000CF91089580E090E0FACF1F93CF93DF93DF
:10060000282F30E0F901E85EFC4F8491F901E65BA8
:10061000FC4FD491F901EA5CFC4FC491CC23A9F0C2
:10062000162F81110E94AB02EC2FF0E0EE0FFF1F9E
:10063000E25FFC4FA591B4918FB7F894EC91111142
:1006400008C0D095DE23DC938FBFDF91CF911F913F
:100650000895DE2BF8CFCF93DF9390E0FC01E65BAB
:10066000FC4F24918A5C9C4FFC0184918823C9F043
:1006700090E0880F991FFC01EC5FFC4FA591B491AD
:10068000FC01E25FFC4FC591D49161110DC09FB791
:10069000F8948C91209582238C9388812823288339
:1006A0009FBFDF91CF910895623051F49FB7F894C6
:1006B0003C91822F809583238C93E8812E2BEFCF62
:1006C0008FB7F894EC912E2B2C938FBFEACF8E30FE
:1006D00008F08E508770806480937C0080917A004F
:1006E000806480937A0080917A0086FDFCCF8091AF
:1006F00078009091790008953FB7F89480910202B4
:1007000090910302A0910402B091050226B5A89B26
:1007100005C02F3F19F00196A11DB11D3FBFBA2F93
:10072000A92F982F8827BC01CD01620F711D811D53
:10073000911D42E0660F771F881F991F4A95D1F7D8
:1007400008958F929F92AF92BF92CF92DF92EF92D5
:10075000FF926B017C010E947C034B015C01C11480
:10076000D104E104F104B9F00E947C03681979090D
:100770008A099B09683E73408105910580F321E059
:10078000C21AD108E108F10888EE880E83E0981EAD
:10079000A11CB11CE4CFFF90EF90DF90CF90BF90F1
:1007A000AF909F908F9008952FB7F8946091FE01BD
:1007B0007091FF0180910002909101022FBF089576
:1007C000CF92DF92EF92FF926B017C0120E030E04C
:1007D000A9010E94D82187FD1DC020E030E040E83B
:1007E0005FE3C701B6010E949A241816BCF020E00E
:1007F00030E040EA53E4C701B6010E943E220E9465
:100800006B247093890060938800FF90EF90DF90D5
:10081000CF900895C12CD12C7601E9CFC12CD12CD9
:1008200080E8E82E8FE3F82EE2CFFC0124813581A9
:100830006217730720F480819181009729F4109248
:10084000DB018BED91E00895860F971F08950895C1
:10085000AF92BF92CF92DF92EF92FF920F931F93CE
:10086000CF93DF936C017B018B01040F151FEB010C
:100870005E01AE18BF08C017D10759F06991D601C3
:10088000ED91FC910190F081E02DC6010995892B35
:1008900079F7C501DF91CF911F910F91FF90EF90F4
:1008A000DF90CF90BF90AF900895FC01538D448DA1
:1008B000252F30E0842F90E0821B930B541710F00B
:1008C000CF96089501970895FC01918D828D981718
:1008D00061F0A28DAE0FBF2FB11D5D968C91928DF0
:1008E0009F5F9F73928F90E008958FEF9FEF089521
:1008F000FC01918D828D981731F0828DE80FF11DEA
:10090000858D90E008958FEF9FEF0895FC01918D04
:10091000228D892F90E0805C9F4F821B91098F73FD
:100920009927089586E092E00E94860421E0892BB1
:1009300009F420E0822F089580E090E0892B29F0CF
:100940000E94920481110C9400000895FC01A48D72
:10095000A80FB92FB11DA35ABF4F2C91848D90E0E1
:1009600001968F739927848FA689B7892C93A089C4
:10097000B1898C91837080648C93938D848D98134E
:1009800006C00288F389E02D80818F7D80830895E1
:10099000EF92FF920F931F93CF93DF93EC0181E0CF
:1009A000888F9B8D8C8D98131AC0E889F989808176
:1009B00085FF15C09FB7F894EE89FF896083E889A9
:1009C000F98980818370806480839FBF81E090E09B
:1009D000DF91CF911F910F91FF90EF900895F62E28
:1009E0000B8D10E00F5F1F4F0F731127E02E8C8DC2
:1009F0008E110CC00FB607FCFACFE889F989808107
:100A000085FFF5CFCE010E94A604F1CFEB8DEC0F50
:100A1000FD2FF11DE35AFF4FF0829FB7F8940B8F23
:100A2000EA89FB8980818062CFCFCF93DF93EC018D
:100A3000888D8823B9F0AA89BB89E889F9898C91C6
:100A400085FD03C0808186FD0DC00FB607FCF7CF82
:100A50008C9185FFF2CF808185FFEDCFCE010E9482
:100A6000A604E9CFDF91CF910895DC0180E06150C9
:100A700090F09D919827E92FEF70F0E0E051FE4F44
:100A80002491E92FE295EF70F0E0E050FE4FE49101
:100A9000822F8E27ECCF0895DC012C911196ED91D9
:100AA000FC91F8948181822B81839281322F309541
:100AB0009323928387E090E00197F1F7818183236C
:100AC000818383E290E00197F1F790817894EFECD5
:100AD000F0E03197F1F7922381E009F480E0089586
:100AE000FC0190810180F281E02D292F209560FF8B
:100AF00014C0F8948281822382838181892B81832F
:100B0000A3E2B0E01197F1F78281982B9283789459
:100B100087ED90E00197F1F70895F89482818223A0
:100B200082838181892B8183AFEFB0E01197F1F748
:100B30008281982B928378948FE090E0EBCFEF92B4
:100B4000FF920F931F93CF93DF93EC01E62E08E003
:100B500010E0FF24F39461E08E2D8F2109F460E012
:100B6000CE010E947005FF0C01501109A1F7F89405
:100B7000E981FA8191818881809589238183E98146
:100B8000FA81928188818095892382837894DF918C
:100B9000CF911F910F91FF90EF900895FC019081EC
:100BA0000180F281E02DF8948181292F2095822304
:100BB000818378943DE743E050E0315029F1DA0138
:100BC0001197F1F780818923C1F3F8948281822300
:100BD00082838181892B81837894ABE7B7E0119779
:100BE000F1F7F894818182238183A3E1B1E0119729
:100BF000F1F78081982381E009F080E07894E3E6C2
:100C0000F6E03197F1F7089580E008954F925F92F2
:100C10006F927F928F929F92AF92BF92CF92DF920C
:100C2000EF92FF92CF93DF9300D000D000D0CDB7EA
:100C3000DEB79E838D83DC0190968D909D90AD9064
:100C4000BC909397FC0184A295A2A6A2B7A2C48CE3
:100C5000D58CE68CF78C9096CD92DD92ED92FC923D
:100C6000939758968D919D910D90BC91A02D89835D
:100C70009A83AB83BC83848F958FA68FB78F24858F
:100C800035854685578560897189828993890E9457
:100C90008D2320E030E040E450E40E943E222B010E
:100CA0003C01AD81BE8118962D913D914D915C9195
:100CB0001B9754966D917D918D919C9157970E94B1
:100CC0008D239B01AC01C301B2010E948D2329E950
:100CD00039E948E854E40E94F9232B013C0128EF4C
:100CE00038EF48E25FE3C501B4010E943E229B0158
:100CF000AC01C301B2010E948D234B015C012DEABE
:100D000037E340E150ECC701B6010E943E229B014F
:100D1000AC01C501B4010E948D236B017C012EE75B
:100D200031E845E250E469817A818B819C810E949F
:100D30003E229B01AC01C701B6010E948D23ED81CB
:100D4000FE81608F718F828F938F26960FB6F894F5
:100D5000DEBF0FBECDBFDF91CF91FF90EF90DF9050
:100D6000CF90BF90AF909F908F907F906F905F904B
:100D70004F9008954F925F926F927F928F929F92C1
:100D8000AF92BF92CF92DF92EF92FF920F931F9399
:100D9000CF93DF93CDB7DEB729970FB6F894DEBFB8
:100DA0000FBECDBF8C01C090A302D090A402C6019B
:100DB0000E94CE0565E5C6010E949F057801580195
:100DC00088E0A80EB11CF70161917F01C6010E9465
:100DD0009F05AE14BF04B9F76EEBC6010E949F05D4
:100DE000CE0101967C014E019AE0890E911C2701EB
:100DF00088E0682E712CB12CAA24A394C6010E940D
:100E00004C058111BA28AA0CE1E06E1A7108B1F7FD
:100E1000F701B1927F018E169F0651F768E0C2017B
:100E20000E9435059985891344C069817A81F8014A
:100E300080899189A289B389848B958BA68BB78B86
:100E400084859585A685B785808B918BA28BB38B86
:100E500080859185A285B38584879587A687B78786
:100E6000072E000C880B990B0E94DF2120E030E058
:100E700040E85DE30E943E22F80160877187828727
:100E8000938781E029960FB6F894DEBF0FBECDBFE1
:100E9000DF91CF911F910F91FF90EF90DF90CF9056
:100EA000BF90AF909F908F907F906F905F904F908A
:100EB000089580E0E7CF0F931F93CF93DF93EC016A
:100EC0000091A3021091A402C8010E94CE056CEC0F
:100ED000C8010E949F0564E4C8010E949F05CE01DD
:100EE0000E94BA0688859985AA85BB858C8B9D8BC7
:100EF000AE8BBF8B888B998BAA8BBB8B8C879D8786
:100F0000AE87BF878CA39DA3AEA3BFA388A399A3DD
:100F1000AAA3BBA38C8F9D8FAE8FBF8F888F998F15
:100F2000AA8FBB8FDF91CF911F910F910895AC01D4
:100F3000FB019491DA01A956BE4F9923A9F02D9196
:100F40003C9111976F5F7F4F2E35F1E03F0760F4C2
:100F5000FA01E20FF31F91AFFB0194912F5F3F4F16
:100F600011963C932E93E9CF0895FC01A28DB38D89
:100F70008D919D910D90BC91A02D84AB95ABA6ABAE
:100F8000B7ABDF01D896CF0184559F4F44A955A92F
:100F900066A977A94D935D936D937D93A817B907C3
:100FA000A9F708958F929F92AF92BF92CF92DF924E
:100FB000EF92FF92CF93DF93EC010E94B507EC8D87
:100FC000FD8DC080D180E280F380CCA2DDA2EEA2B4
:100FD000FFA2FE01E854FF4F80809180A280B38081
:100FE000A5019401C701B6010E949A2418162CF499
:100FF0008CA29DA2AEA2BFA20FC0FE01EC54FF4F77
:1010000080809180A280B380A5019401C701B601C0
:101010000E94D82187FDECCFDF91CF91FF90EF9018
:10102000DF90CF90BF90AF909F908F9008952F92B8
:101030003F924F925F926F927F928F929F92AF9268
:10104000BF92CF92DF92EF92FF920F931F93CF93B5
:10105000DF9300D000D0CDB7DEB71C016A017B0161
:1010600048015901A9019801CB01B6010E949A24B7
:1010700087FF64C0C1018C549F4F9A838983FC0110
:10108000C082D182E282F382810108541F4FF801AD
:1010900080829182A282B38234968081882309F46F
:1010A0004DC0F101048CF58DE02DFC83EB83408075
:1010B000518062807380A3019201C501B4010E9436
:1010C000D82187FF1EC0EB81FC8180829182A282A1
:1010D000B382F10184A095A0A6A0B7A0F801C080BA
:1010E000D180E280F380A7019601C501B4010E947E
:1010F0009A241816ACF4F101C4A2D5A2E6A2F7A274
:101100001DC0A3019201C701B6010E949A241816BE
:1011100004F7EB81FC81C082D182E282F382D9CFD5
:10112000E981FA81C080D180E280F380A701960135
:10113000C501B4010E94D82187FDDDCF0F900F902B
:101140000F900F90DF91CF911F910F91FF90EF9033
:10115000DF90CF90BF90AF909F908F907F906F90D7
:101160005F904F903F902F9008954F925F926F92B3
:101170007F928F929F92AF92BF92CF92DF92EF9227
:10118000FF920F931F93CF93DF9300D000D000D036
:10119000CDB7DEB79E838D832A013B0148015901FB
:1011A00020E030E0A901CB01B2010E94D82187FDE7
:1011B00081C020E030E0A901C501B8010E94D8211A
:1011C00087FD78C020E030E0A901C701B6010E9488
:1011D000D82187FD6FC0ED81FE81408251826282FD
:1011E000738284829582A682B782C086D186E28687
:1011F000F386E455FF4F60817181828193810E9463
:10120000DD2120E030E04AE754E40E94F9236983BD
:101210007A838B839C83ED81FE8144865586668626
:1012200077869B01AC01C501B8010E943E224B01AB
:101230005C01ED81FE81808A918AA28AB38A29812C
:101240003A814B815C81C701B6010E94F9236B0191
:101250007C01ED81FE81C48AD58AE68AF78A808D79
:10126000918D019739F5A301920160E070E0CB0107
:101270000E948C23ED81FE8164877587868797871E
:10128000A501940160E070E0CB010E948C23ED8108
:10129000FE81608B718B828B938BA701960160E03E
:1012A00070E0CB010E948C23ED81FE81648B758BF5
:1012B000868B978B26960FB6F894DEBF0FBECDBFF8
:1012C000DF91CF911F910F91FF90EF90DF90CF9022
:1012D000BF90AF909F908F907F906F905F904F9056
:1012E00008952F923F924F925F926F927F928F92CA
:1012F0009F92AF92BF92DF92EF92FF920F931F9354
:10130000CF93DF93CDB7DEB72E970FB6F894DEBF3D
:101310000FBECDBFFC01E454FF4FD080D1101AC0E6
:10132000D12C8D2D2E960FB6F894DEBF0FBECDBFFB
:10133000DF91CF911F910F91FF90EF90DF90BF90C1
:10134000AF909F908F907F906F905F904F903F9065
:101350002F9008959E878D870E94D40369837A8396
:101360008B839C83ED85FE85E455FF4F2081318181
:10137000428153812D833E834F835887ED85FE85BF
:10138000E055FF4F80819181A281B38129813A810B
:101390004B815C81281B390B4A0B5B0BDA01C901BD
:1013A0002D813E814F81588582179307A407B50789
:1013B00008F4B6CF8091DA018F5F8093DA014D8512
:1013C0005E8548555F4F1A018A3001F5FA018D8517
:1013D0009E85C49672916291529142914483558345
:1013E000668377838E179F07A9F7AD85BE855A96CA
:1013F000ED91FC9180819181A281B381ED85FE8583
:1014000084AB95ABA6ABB7AB1092DA01AD85BE85C8
:101410005E968D919C915F975A960D90BC91A02DF0
:101420002D913D914D915C91FC0160817181828192
:1014300093810E948C232B013C01AD85BE85509683
:101440002D913D914D915C9153970E943E22ED85E7
:10145000FE8524A135A146A157A10E948D234B01F1
:101460005C01AD85BE8594968D929D92AD92BC92A5
:101470009797FD01E854FF4FE080F18002811381CE
:101480009701A8010E949A2418160CF0C5C0C70144
:10149000D801ED85FE8584A395A3A6A3B7A3D101AA
:1014A0002D913D914D915C91ED85FE8564A975A9C5
:1014B00086A997A90E948C2320E030E046E953E4F6
:1014C0000E94F9234B015C01AD85BE851C962D91D0
:1014D0003D914D915C911F97C301B2010E943E2244
:1014E0002B013C01ED85FE8540A251A262A273A2B0
:1014F00064897589868997899058A50194010E940D
:101500003E224B015C01AD85BE8598968D929D92E1
:10151000AD92BC929B9794962D913D914D915C918B
:101520009797C301B2010E948D23A50194010E94E7
:101530008D234B015C019B01AC01B701C8010E94E6
:10154000D82187FD12C0ED85FE85EC54FF4FE08069
:10155000F180028113819701A801B401C5010E94A5
:10156000D82187FD02C074018501ED85FE85E35415
:10157000FF4F8081811134C0ED85FE8584A495A440
:10158000A6A4B7A46D817E818F81988528EE33E073
:1015900040E050E00E946423CA01B9010E94DD21AD
:1015A000AD85BE85D0962D913D914D915C91D3979F
:1015B0000E94F9232B013C01A5019401B701C80148
:1015C0000E948C239B01AC01C301B2010E943E2208
:1015D0009B01AC01C501B4010E948D237B018C01EC
:1015E000AD85BE855C96ED91FC91C701D8018083E5
:1015F0009183A283B383ED85FE8584A795A7A6A7D3
:10160000B7A7E055FF4F29813A814B815C81208348
:1016100031834283538385CEED85FE85EC54FF4FA5
:10162000208131814281538129873A874B875C87AA
:10163000C501B4010E94D82187FF31CF89859A85E1
:10164000AB85BC8526CF6F927F928F929F92AF928F
:10165000BF92CF92DF92EF92FF920F931F93CF939F
:10166000DF93CDB7DEB74C01CB013A01D901B80108
:10167000A70196018501F401758E648E938F828F88
:10168000B78FA68FE454FF4F1082319681E080839C
:1016900039971082118212821382349680E090E092
:1016A000AFE7B3E480839183A283B3833401FCEA80
:1016B0006F0E711C84E690E0A0E0B0E0F30180833F
:1016C0009183A283B383D40159961C921E9258979A
:1016D000C988DA88EB88FC88C4010E94B5080E949A
:1016E000D403F401E055FF4FD3010D911D912D91CD
:1016F0003C91601B710B820B930B6083718382831F
:101700009383DF91CF911F910F91FF90EF90DF9026
:10171000CF90BF90AF909F908F907F906F900895E3
:10172000FC01448155818091AB029091AC028417F9
:10173000950780F08091A7029091A802009751F040
:10174000608171816115710529F00E949A2621E05E
:10175000892B09F020E0822F08950F931F93CF93D8
:10176000DF93EC018B0185E090E00E949F24FC0157
:1017700089E291E0918380831383028381E08483F3
:1017800067E474E0DB019C91292F30E0220F331FC6
:101790002B553D4FA9014D555E4FDA01ED93FC935A
:1017A00029543E4FF901D183C0839F5FDB019C9395
:1017B000DF91CF911F910F9108950F931F93CF93B6
:1017C000DF93EC018B0185E090E00E949F24FC01F7
:1017D00083E291E0918380831383028381E0848399
:1017E00067E474E0DB019C91292F30E0220F331F66
:1017F0002B553D4FA9014D555E4FDA01ED93FC93FA
:1018000029543E4FF901D183C0839F5FDB019C9334
:10181000DF91CF911F910F9108951F93CF93DF9385
:10182000442399F0FC01E956FE4F208131812E3589
:1018300051E0350750F4DC01A20FB31F52E2D996F4
:101840005C932F5F3F4F31832083EB01DC01A9566E
:10185000BE4F1CE5FB0101900020E9F73197E61B24
:10186000F70B9E01261B370B2E173F0748F52D91CE
:101870003C9111972E3551E03507B8F5442391F08E
:101880005881523211F05C3569F42D3551E035073D
:1018900061F1FC01E20FF31F11AF2F5F3F4F119673
:1018A0003C932E932D913C9111975991FC01E20F9D
:1018B000F31F51AF2F5F3F4F11963C932E93CACF2A
:1018C000442399F0FC01E956FE4F208131812E35E9
:1018D000A1E03A0750F4820F931F42E2DC01D9964F
:1018E0004C932F5F3F4F31832083DF91CF911F9126
:1018F00008959B01DC011296ED91FC91808168E4D2
:1019000071E0882311F063E471E040E0C9010C94B8
:101910000D0CCF93DF93EC0169EE71E00E94970705
:101920006FA178A541E0CE010E940D0C6EED71E033
:10193000CE010E949707BE016D5E7F4F41E0CE0150
:101940000E940D0C6FEC71E0CE010E94970741E000
:101950006EE471E0CE010E940D0C6AEB71E0CE01E5
:10196000DF91CF910C9497070F931F93CF93DF9341
:101970008C01C62FD0E0CC0FDD1FC00FD11FFE01A0
:10198000E954FE4F6081718141E0C8010E940D0C55
:1019900067EB71E0C8010E949707CD55DE4F888143
:1019A0009981DC01ED91FC910190F081E02DB8016D
:1019B000DF91CF911F910F910994EF92FF921F93A6
:1019C000CF93DF93EC0167EA71E00E94970710E084
:1019D0007E018EE5E81A8EEFF80AF701808118176C
:1019E00090F4612FCE010E94B40CF70180818150E8
:1019F000990B181719062CF464EA71E0CE010E94C5
:101A000097071F5FEACF60EA71E0CE010E94970757
:101A1000CE010E94890C6DE971E0CE01DF91CF917A
:101A20001F91FF90EF900C9497070F931F93CF9304
:101A3000DF938C01EB01FC01808191810097E1F043
:101A40006881798161157105A9F0428153812C81EA
:101A50003D814217530770F00E9493268C819D812F
:101A6000F801958384831D821C82DF91CF911F91A1
:101A70000F9108950E943B2588819981F8019183F7
:101A800080838A819B81938382838C819D819583CE
:101A90008483198218821B821A82E5CFCF93DF9349
:101AA000EC0188819981009711F00E943B251982F1
:101AB00018821D821C821B821A82DF91CF910895A9
:101AC000FC0180819181009711F00C943B250895D1
:101AD0000F931F93CF93DF93EC0188819981009737
:101AE00059F02A813B812617370730F081E0DF91DA
:101AF000CF911F910F9108958B016F5F7F4F0E94CF
:101B0000C425009759F0998388831B830A832C810D
:101B10003D81232B59F7FC011082E8CF80E0E7CF0D
:101B2000EF92FF920F931F93CF93DF93EC017B0112
:101B30008A01BA010E94680D81110BC0CE010E947A
:101B40004E0DCE01DF91CF911F910F91FF90EF903D
:101B500008951D830C83B701888199810E94932683
:101B6000F0CFFB0101900020E9F73197AF01461B50
:101B7000570B0C94900DCF93DF93CDB7DEB72F9713
:101B80000FB6F894DEBF0FBECDBF1B861A861D862A
:101B90001C861F861E864AE0BE016F5F7F4F90E065
:101BA0000E94061EBE016F5F7F4FCE010A960E9403
:101BB000B10D6A857B8540E085EA92E00E940D0CBC
:101BC000CE010A960E94600D2F960FB6F894DEBFE4
:101BD0000FBECDBFDF91CF910895CF93DF93CDB7E7
:101BE000DEB767970FB6F894DEBF0FBECDBF1B8A76
:101BF0001A8A1D8A1C8A1F8A1E8A4AE0BE016F5FEC
:101C00007F4F0E94061EBE016F5F7F4FCE0142963E
:101C10000E94B10D6A897B8940E085EA92E00E94CA
:101C20000D0CCE0142960E94600D67960FB6F89497
:101C3000DEBF0FBECDBFDF91CF910895CF93DF936D
:101C4000EC01FB018617970749F0608171816115EE
:101C5000710541F0448155810E94900DCE01DF91C4
:101C6000CF9108950E944E0DF9CFFC011182108290
:101C700013821282158214820C941E0EFC011182B2
:101C8000108213821282158214826115710551F03F
:101C9000FB0101900020E9F73197AF01461B570B7C
:101CA0000C94900D0895AF92BF92CF92DF92EF9275
:101CB000FF920F931F93CF93DF936C015B017A0127
:101CC00089012417350720F48F2D7901042F182F4F
:101CD00061ED71E0C6010E943E0ED5011496CD91D2
:101CE000DC91EC16FD06E0F40C171D0708F4E80182
:101CF000D501ED91FC911197EC0FFD1F1081108221
:101D00006D917C916E0D7F1DC60161157105A1F06D
:101D10000E94B10DF50180819181C80FD91F1883F0
:101D2000C601DF91CF911F910F91FF90EF90DF904F
:101D3000CF90BF90AF9008950E944E0DEBCF6F9261
:101D40007F929F92AF92BF92CF92DF92EF92FF92DB
:101D50000F931F93CF93DF93EC01942E7901DB0156
:101D60001496CD90DC908601015011092FEF3FEFC2
:101D700050E040E090E080E0F0E0E0E00817190774
:101D80001CF1EE16FF061CF1DC0111965D018C15AD
:101D90009D0560F4DB016D907C906114710431F05D
:101DA000D301A80FB91FAC919A1619F080179107AB
:101DB00049F43196A9014F5F5F4F95018017910754
:101DC00009F09C01C501DACFEE16FF0694F4CE01AE
:101DD0000E94530ECE01DF91CF911F910F91FF9082
:101DE000EF90DF90CF90BF90AF909F907F906F90DB
:101DF000089561ED71E0CE010E943E0EEBCFEF92AF
:101E0000FF920F931F93CF93DF93CDB7DEB7A797C2
:101E10000FB6F894DEBF0FBECDBF7C01CB01BA0177
:101E20001BA21AA21DA21CA21FA21EA28E010F5F3E
:101E30001F4F22E044E00E949D1D0097E1F0BC018D
:101E4000CE0182960E94B10D6AA17BA140E0C7013C
:101E50000E940D0CCE0182960E94600DA7960FB6CF
:101E6000F894DEBF0FBECDBFDF91CF911F910F91D0
:101E7000FF90EF900895CE0182960E944E0DE4CF20
:101E80009B01DC011296ED91FC91408151816281B0
:101E90007381C9010C94FF0E9B01DC011296ED9138
:101EA000FC914081518162817381C9010C94FF0EC4
:101EB0000F931F93CF93DF93CDB7DEB76E970FB617
:101EC000F894DEBF0FBECDBF8C01BC01CE010196E0
:101ED0000E94350E30E020E046E2BE016F5F7F4F8A
:101EE000CE0107960E949F0ECE0101960E94600DC2
:101EF000B801CE0101960E94350E21E030E046E2A5
:101F0000BE016F5F7F4FCE010D960E949F0ECE01E6
:101F100001960E94600DBE01695F7F4FCE01019660
:101F20000E94350E21E030E04DE3BE016F5F7F4F30
:101F3000CE0143960E949F0ECE0101960E94600D35
:101F4000BE01635F7F4FCE0101960E94350E21E0F6
:101F500030E04DE3BE016F5F7F4FCE0149960E9496
:101F60009F0ECE0101960E94600D898D9A8D00977B
:101F700009F43FC00E94BB1D6093EE017093EF0116
:101F80008093F0019093F1018B899C890097A9F1CE
:101F90000E94BB1D609307017093080180930901A3
:101FA00090930A016091EE017091EF018091F00130
:101FB0009091F1010E94E003CE0149960E94600DCC
:101FC000CE0143960E94600DCE010D960E94600DD9
:101FD000CE0107960E94600D81E090E06E960FB6EC
:101FE000F894DEBF0FBECDBFDF91CF911F910F914F
:101FF000089560E070E0CB01BFCF60E070E0CB01FE
:10200000C9CF1F920F920FB60F9211242F933F93B7
:102010008F939F93AF93BF938091FE019091FF01A7
:10202000A0910002B09101023091FD0123E0230F45
:102030002D3758F50196A11DB11D2093FD01809308
:10204000FE019093FF01A0930002B09301028091E2
:10205000020290910302A0910402B0910502019640
:10206000A11DB11D8093020290930302A09304026C
:10207000B0930502BF91AF919F918F913F912F91A6
:102080000F900FBE0F901F90189526E8230F029611
:10209000A11DB11DD2CF1F920F920FB60F92112426
:1020A0002F933F934F935F936F937F938F939F9360
:1020B000AF93BF93EF93FF9386E092E00E94A60454
:1020C000FF91EF91BF91AF919F918F917F916F9110
:1020D0005F914F913F912F910F900FBE0F901F90E6
:1020E00018951F920F920FB60F9211242F938F9372
:1020F0009F93EF93FF93E0911602F0911702808176
:10210000E0911C02F0911D0282FD1BC09081809124
:102110001F028F5F8F7320912002821741F0E091A0
:102120001F02F0E0EA5FFD4F958F80931F02FF9141
:10213000EF919F918F912F910F900FBE0F901F9055
:1021400018958081F4CFBF92CF92DF92EF92FF92E9
:102150000F931F93CF93DF936C01C091A302D09193
:10216000A4028D858823B9F01B861D861C8667E036
:10217000C6010E94350591E0F6012781281390E001
:10218000892FDF91CF911F910F91FF90EF90DF90FA
:10219000CF90BF900895CE010E94CE05882321F3F1
:1021A00060EFCE010E949F0501E0E12CB12C11E00F
:1021B000CE010E944C05F82ECE010E944C0591E004
:1021C000F91216C0813089F5113470F2BB86B11056
:1021D00002C081E08D878B81882331F22396F6013E
:1021E000C6010896299121938E179F07D9F7BFCF73
:1021F000EE2DF0E0F8120FC08B851817A0F4DE0169
:10220000AE0FBF1F13968C91802379F4F12C1930F7
:1022100008F41C87B12EEC0FFD1F8381902F909541
:10222000892383830AC08113F1CFFE01EE0DF11DD6
:102230008381802B8383FF24F3946F2DCE010E9432
:1022400070051F5F000F11F4E39401E0E7E0EE1565
:1022500008F0AECFB9CFAF92BF92CF92DF92EF929C
:10226000FF920F931F93109209021092080288EEBA
:1022700093E0A0E0B0E080930A0290930B02A09359
:102280000C02B0930D028FE291E0909307028093CD
:10229000060285EC90E0909313028093120284EC86
:1022A00090E0909315028093140280EC90E090935C
:1022B00017028093160281EC90E0909319028093AC
:1022C000180282EC90E090931B0280931A0286EC35
:1022D00090E090931D0280931C0210921F021092B6
:1022E0002002109221021092220260E082E00E94FD
:1022F0002B03ECE4F3E0E491E0936106E8E3F3E020
:10230000E491F0E0EE0FFF1FE45DFC4F85919491A6
:10231000909363068093620610926C0610926E068C
:1023200010926D0610926B0610926A061092690662
:102330001092680610926706109266061092650663
:10234000109264068091A3029091A402892B31F42B
:1023500081E696E09093A4028093A30289E396E03D
:102360000E94A3108091A3029091A402892B31F4C2
:1023700081E696E09093A4028093A30281E196E027
:102380000E94A310E0900F01F09010010091110144
:102390001091120183E48F938AEF8F931F921F9203
:1023A0008FE6A82E82E1B82E83E0C82E8AE3D82ECD
:1023B00027E031E04BE051E06FE475E083E595E024
:1023C0000E94230B8FE38F9383E98F9383E38F9393
:1023D0008F93A12CB12C90E8C92E9EE3D92EE12C2D
:1023E000F12C00EA10E425E834E049E854E06DE817
:1023F00074E081E994E00E94230B81E491E09093E2
:10240000A6028093A50261ED71E087EA92E00E9446
:102410003E0E61ED71E08CEC92E00E943E0E61EDAB
:1024200071E082ED92E00E943E0E61ED71E088ED78
:1024300092E00E943E0E88EE93E0A0E0B0E0809330
:10244000430490934404A0934504B093460485E765
:102450008093AD028093B0021092B3028FEF80930D
:102460003E048DB79EB708960FB6F8949EBF0FBE78
:102470008DBF1F910F91FF90EF90DF90CF90BF9095
:10248000AF900895CF93DF93CDB7DEB768970FB6BF
:10249000F894DEBF0FBECDBF789484B5826084BD52
:1024A00084B5816084BD85B5826085BD85B5816058
:1024B00085BD80916E00816080936E0010928100D6
:1024C0008091810082608093810080918100816091
:1024D0008093810080918000816080938000809152
:1024E000B10084608093B1008091B00081608093DE
:1024F000B00080917A00846080937A0080917A00A5
:10250000826080937A0080917A00816080937A0063
:1025100080917A00806880937A001092C10061E017
:1025200089E00E942B0361E08AE00E942B0382EA8B
:102530008093800081E18093810080E491E090931A
:102540008700809386001092890010928800109274
:102550008B0010928A0061E083E00E942B031092AE
:10256000700017BA83E28093B0008AE08093B100D4
:102570008FE48093B3001092B4006091EE017091EB
:10258000EF018091F0019091F1010E94E00361E080
:1025900086E00E942B0361E086E00E94FD0261E07C
:1025A00085E00E942B0361E085E00E94FD02E0913E
:1025B0001602F091170282E08083E0911202F091FE
:1025C00013021082E0911402F091150280E18083E1
:1025D00010921E02E0911A02F0911B0286E08083A5
:1025E000E0911802F0911902808180618083E0916E
:1025F0001802F0911902808188608083E0911802AE
:10260000F0911902808180688083E0911802F09136
:10261000190280818F7D808381E196E00E945B07B3
:1026200089E396E00E945B0740910F0150911001F1
:102630006091110170911201C12CD12CEAEFEE2EA4
:10264000E3E4FE2E0FE612E123E03AE383E595E0B2
:102650000E94B508F8EECF2EF3E0DF2EE12CF12C2E
:102660002091FF053091000640910106509102062D
:10267000C701B6010E946423CA01B9010E94DD218D
:102680004B015C01AC019B01609163057091640595
:1026900080916505909166050E943E2260936305D6
:1026A000709364058093650590936605A501940178
:1026B00060916705709168058091690590916A0540
:1026C0000E94F923609367057093680580936905FC
:1026D00090936A05C092FF05D0920006E092010631
:1026E000F092020600E010E028E432E44AE959E9F9
:1026F00069E97EE383E595E00E94170880910F0663
:10270000811104C083E595E00E94D20781E08093A7
:102710000F061092100680E090E0A0E2B1E48093F2
:10272000830590938405A0938505B093860583E582
:1027300095E00E94B50753E3C52EDC2C53E9E52E46
:102740005FE3F52E00E010E020E83EE340E050E0DB
:1027500060EA70E481E994E00E94B50860EEC62E5C
:1027600063E9D62E64E0E62EF12C20913D053091F0
:102770003E0540913F0550914005C701B6010E94BA
:102780006423CA01B9010E94DD214B015C01AC0147
:102790009B016091A1047091A2048091A304909187
:1027A000A4040E943E226093A1047093A20480932B
:1027B000A3049093A404A50194016091A5047091D1
:1027C000A6048091A7049091A8040E94F923609325
:1027D000A5047093A6048093A7049093A804C092C4
:1027E0003D05D0923E05E0923F05F092400500E0A5
:1027F0001CE722E938E440E050E0BA0181E994E0C6
:102800000E94170880914D05811104C081E994E070
:102810000E94D20781E080934D0581E994E00E94F7
:10282000B5078091410690914206A0914306B09170
:1028300044068093F9019093FA01A093FB01B093B1
:10284000FC018091190690911A06A0911B06B09187
:102850001C068093F5019093F601A093F701B093C5
:10286000F80186E00E94D40221E0892B09F020E0E3
:102870002093F30185E00E94D40221E0892B09F026
:1028800020E02093F20167E071E086E591E00E948C
:10289000AD0B85E090E00E949F24FC018DE191E06A
:1028A000918380838EEE91E09383828381E08483A1
:1028B00090914704292F30E0220F331F2B553D4FB5
:1028C000D901AD55BE4FED93FC9329543E4F4FE5D2
:1028D00051E0F901518340839F5F9093470469EF72
:1028E00071E088E691E00E94AD0B65EF71E082E750
:1028F00091E00E94AD0B63EF71E08EE791E00E94E2
:10290000DD0B62EF71E086E891E00E94DD0B64EF81
:1029100071E08EE891E00E94DD0B6BE071E08EE9E2
:1029200091E00E94AD0B69E874E08AE991E00E94B1
:10293000AD0B6FE071E085EA91E00E94AD0B209154
:102940007004822F90E0FC01EE0FFF1FE558FB4F53
:1029500048EA51E051834083880F991FFC01EF58EA
:10296000FB4F88E59FE0918380832F5F2093700465
:102970006CEA71E0CE0143960E943E0E2AE030E000
:1029800050E040E0BE016D5E7F4FCE0101960E9497
:10299000530EBE016F5F7F4F8CEC92E00E94150DCD
:1029A000CE0101960E94600DCE0143960E94600DFB
:1029B0006EEA71E088EB92E00E94932688E199E24A
:1029C0000FB6F894A895809360000FBE90936000B6
:1029D00012E7612E7724739486E092E00E948604C9
:1029E000892B09F45DC5E8E75E2EFDE62F2EA4E6EF
:1029F0003A2EB7E74B2E86E092E00E948604892BA0
:102A000009F4E3C286E092E00E946404F82E61E0DB
:102A100070E080E090E00E94A10367EA72E0CE01DE
:102A200001960E94350EFB8A1C8A0D811E810F5F64
:102A30001F4FB801CE0101960E94680D882309F44A
:102A400019C229813A818D819E81BE016D5E7F4FC1
:102A5000820F931F0E9493261E830D83BE016F5F1A
:102A60007F4F87EA92E00E941E0ECE0101960E94DF
:102A7000600D8091B002853709F0BDCFFFE2FF16EF
:102A800021F07DE0872EF810B6CF8091AD028D3613
:102A900071F48091B302882351F070E060E087EA1E
:102AA00092E00E941504FC0180818093B002809125
:102AB000AD028436A9F48091B302882389F0809115
:102AC000B002853769F470E060E087EA92E00E9426
:102AD0001504FC018081823709F0D1C18093B002D6
:102AE0008091AD028136A9F48091B302882389F0E8
:102AF0008091B002853769F470E060E087EA92E087
:102B00000E941504FC018081823709F0CBC18093BB
:102B1000B0028091AD02853709F455C08091B302AF
:102B2000811151C070E060E087EA92E00E941504D4
:102B3000FC018081813409F0C8C161E070E087EA5E
:102B400092E00E941504FC01808182528093AE02C3
:102B50008091AE028093AF027092B30261E070E0A8
:102B600087EA92E00E941504FC0180818F3209F00F
:102B7000B8C161E070E087EA92E00E941504FC01B0
:102B80008081803259F462E070E087EA92E00E942E
:102B90001504FC0180818F3209F4AEC162E070E05F
:102BA00087EA92E00E941504FC018081803259F48A
:102BB00063E070E087EA92E00E941504FC018081E6
:102BC0008F3209F499C165EB71E0CE0101960E9444
:102BD0003E0ECE0101960E94900B182FCE01019659
:102BE0000E94600D11113092AD026DEB71E0CE01CB
:102BF00001960E943E0ECE0101960E94900B182F66
:102C0000CE0101960E94600D11112092AD0262EC7E
:102C100071E0CE0101960E943E0ECE0101960E9407
:102C2000900B182FCE0101960E94600D112319F010
:102C3000F1E6F093AD028091AD02853709F013C142
:102C4000F12C80914704F81628F50F2D10E0F801BB
:102C5000EE0FFF1FE45AFB4F60817181CE01019698
:102C60000E943E0ECE0101960E94900BE82ECE01EE
:102C700001960E94600DEE2009F466C17092B302C5
:102C80005092B00256E7852E8092AD021093B202A8
:102C90000093B102F12C80917004F81608F0B1C0D5
:102CA0000F2D10E068012BEEC20ED11CF601EE0FC5
:102CB000FF1FEB55FD4F60817181CE0101960E948F
:102CC0003E0ECE0101960E94900BE82ECE01019699
:102CD0000E94600DEE2009F476C17092B30250920A
:102CE000B00286E68093AD021093B2020093B10267
:102CF000A090A702B090A802A114B10449F00091DD
:102D0000AB021091AC0275010115110509F01FC14C
:102D100061ED71E088ED92E00E94B10DF601EE0FD9
:102D2000FF1FEB55FD4FA081B181FD0101900020F7
:102D3000E9F73197AF014A1B5B0B7A01FFEFEF1AFE
:102D4000FF0A970167EA72E0CE0101960E94530ED6
:102D50008D819E81892B49F069EC71E089819A818E
:102D60000E948A2611E0892B09F010E0CE0101961D
:102D70000E94600D112309F444C00091AB02109130
:102D8000AC026BEC71E0CE0101960E943E0E2091E8
:102D9000AB023091AC024D815E8124173507A8F05B
:102DA0008091A7029091A802009779F069817A81B9
:102DB0006115710551F0241B350B820F931F0E9482
:102DC0008A26DD24D394892B09F0D12CCE010196DB
:102DD0000E94600DDD2011F0065011099801A70135
:102DE00067EA72E0CE0101960E94530EBE016F5F4A
:102DF0007F4F88ED92E00E94150DCE0101960E9452
:102E0000600D8091AD02853771F570E060E087EA72
:102E100092E00E941504FC011081193681F461E0F2
:102E200070E087EA92E00E941504FC0180818436FC
:102E300031F41093AD027092B3025092B0028091BF
:102E4000AD02853781F470E060E087EA92E00E948D
:102E50001504FC018081803231F46092AD027092E1
:102E6000B3025092B00261ED71E087EA92E00E94F5
:102E7000B10DC1CDCE0101960E944E0DEFCD8091D6
:102E8000A7029091A802009749F00E94BF1D70937D
:102E9000B2026093B1024092B00222CE60E070E0D4
:102EA000CB01F5CF8091A7029091A802009749F03D
:102EB0000E94BF1D7093B2026093B1024092B002B3
:102EC00028CE60E070E0CB01F5CF8091A702909111
:102ED000A80260E0009711F00E94BF1D6093AE024F
:102EE00037CE62E070E087EA92E00E941504FC01B0
:102EF00080818F3209F43DCE8091AD02843661F439
:102F000070E060E087EA92E00E941504FC01808195
:102F10008136A1F48093B0028091AD02813609F030
:102F200052CE70E060E087EA92E00E941504FC0156
:102F30008081813631F48093B00245CE6092B00238
:102F4000EBCF6092B0023FCEF3947BCE7401470189
:102F50009FEF891A990AF7018081082E000C990BBE
:102F60000E94A721892B91F7015011090A0D1B1D01
:102F7000F8018081082E000C990B0E94A721892B53
:102F800031F00E151F0518F001501109F1CFA801FD
:102F90004F5F5F4F4E195F095093AC024093AB02F5
:102FA000AE14BF0420F4B701C5010E948126E09150
:102FB000A702F091A8028091AB029091AC02E80FB9
:102FC000F91F1082A5CEF39466CE8091AD028D36A6
:102FD000B9F561EF72E085EA92E00E94970780916F
:102FE000AF020E94BB0D8091B002893659F460E0B7
:102FF0008091AE020E942B0360EE72E085EA92E0BF
:103000000E9497078091B002893459F462E0809160
:10301000AE020E942B0363EC72E085EA92E00E940C
:1030200097078091B0028F3659F461E08091AE022B
:103030000E942B0361EB72E085EA92E00E94970701
:103040008091AD02843609F074C08091B00282375D
:10305000D1F48091AE020E94D4029093B202809388
:10306000B1026FE972E085EA92E00E9497078091D1
:10307000B1029091B2020E94ED0D6CE972E085EA16
:1030800092E00E9497078091B002813661F56AE96B
:1030900072E085EA92E00E94970710E0812F0E947B
:1030A000D4029093B2028093B10267E972E085EA9C
:1030B00092E00E949707812F0E94BB0D63E972E0A6
:1030C00085EA92E00E9497078091B1029091B20246
:1030D0000E94ED0D60E972E085EA92E00E94970798
:1030E0001F5F1E30D9F68091B002873711F56091CD
:1030F000B1028091AE020E94FD026DE772E085EAA6
:1031000092E00E9497078091AF020E94BB0D64E796
:1031100072E085EA92E00E9497078091B102909157
:10312000B2020E94ED0D60E772E085EA92E00E9433
:1031300097078091AD02813609F0AEC08091B00250
:103140008237D1F48091AE020E9467039093B2025D
:103150008093B1026EE572E085EA92E00E949707E3
:103160008091B1029091B2020E94ED0D6BE572E088
:1031700085EA92E00E9497078091B002813661F55E
:1031800069E572E085EA92E00E94970710E0812FDE
:103190000E9467039093B2028093B10266E572E0E9
:1031A00085EA92E00E949707812F0E94BB0D62E59D
:1031B00072E085EA92E00E9497078091B1029091B7
:1031C000B2020E94ED0D6FE472E085EA92E00E9487
:1031D00097071F5F1630D9F68091B002873709F044
:1031E0005BC00091B1021091B202F090AE0261E0BA
:1031F0008F2D0E942B030115110529F460E08F2DFE
:103200000E94FD022DC00F3F110511F461E0F7CFC0
:10321000EF2DF0E0E85EFC4FE491E33009F408C1E3
:1032200048F4E130C9F0E23009F4FDC0003811057E
:103230006CF7E4CFE73009F405C1E83009F40AC1BE
:10324000E430A1F780918000806280938000109329
:103250008B0000938A0004C084B5806884BD07BDDC
:103260006CE372E085EA92E00E9497078091AF02DA
:103270000E94BB0D63E372E085EA92E00E9497072B
:103280008091B1029091B2020E94ED0D6FE272E066
:1032900085EA92E00E9497078091AD02863791F40B
:1032A0006DE272E085EA92E00E9497076091B102B8
:1032B00085EA92E00E94B40C6AE272E085EA92E04C
:1032C0000E9497078091AD02863609F044C0E091D4
:1032D000B102F091B202EE0FFF1FEF58FB4F0081D9
:1032E000118168ED72E0CE0101960E94350ECE018B
:1032F0000196F80109958C01CE0101960E94600D9E
:1033000068E172E085EA92E00E9497071C8A1B8AB6
:103310001E8A1D8A188E1F8A4AE0BE016F5F7F4F8A
:10332000C8010E94E61DBE016F5F7F4FCE0143962C
:103330000E94B10D6B897C8940E085EA92E00E9491
:103340000D0CCE0143960E94600D65E172E085EAA6
:1033500092E00E9497078091AD02823711F0853785
:1033600021F485EA92E00E94DD0C8091AD0289365D
:1033700031F463E172E085EA92E00E949707809160
:10338000AD02823761F0853751F085EA92E00E9404
:10339000890C60E172E085EA92E00E9497078091D3
:1033A0003C0490913D0469E170E00E945023CC24DC
:1033B000C394C60EE5EAF2E0D12C8F01075E1F4FE1
:1033C000DC1408F04FC0EDB6FEB68DB79EB74A9735
:1033D0000FB6F8949EBF0FBE8DBF6DB77EB76F5FFF
:1033E0007F4FF99689E1DB0101900D928A95E1F713
:1033F000FB01118E01900020E9F73197AF01461BC8
:10340000570B86E092E00E94280461E070E080E0C3
:1034100090E00E94A1030FB6F894FEBE0FBEEDBE71
:10342000D394F801CACF84B5806284BD08BD18CF9B
:1034300080918000806880938000109389000093C1
:1034400088000ECF8091B00080688093B000009318
:10345000B30006CF8091B00080628093B0000093EB
:10346000B400FECEEEEDF2E08EE591E01192019710
:10347000E9F785E78093AD028093B0021092B30222
:1034800061ED71E087EA92E00E94B10D61ED71E0BB
:1034900088ED92E00E94B10D10923D0410923C0420
:1034A000A8950E94D403C090DC01D090DD01E0908B
:1034B000DE01F090DF012091000130910101460111
:1034C0005701820E931EA11CB11C95018401601747
:1034D000710782079307A8F080910201882389F081
:1034E0000091A3021091A402C8010E94CE056CECC9
:1034F000C8010E949F0564E4C8010E949F051092C4
:1035000002010E94D4034B015C01C701B6010E9475
:10351000DD2120E030E04AE754E40E948D230E9440
:103520006B2486169706A806B90608F453C00E94B5
:10353000D4036093DC017093DD018093DE019093EE
:10354000DF01709202010FEF1FEFA8950F5F1F4F71
:10355000C090A302D090A40298E0E92EF12CB12CE7
:10356000AA24A394C6010E944C058111BA28AA0C72
:1035700021E0E21AF108B1F7BB2039F38091000194
:1035800090910101012B09F0DCC00196909301019B
:103590008093000181E196E00E94BA0681E196E005
:1035A0000E94060689E396E00E94BA0689E396E047
:1035B0000E9406068091510690915206A0915306F2
:1035C000B091540680934F0590935005A0935105F8
:1035D000B093520583E595E00E9471091091EC01CA
:1035E000113009F45DC1123009F406C28091ED0179
:1035F0008111F3C020E030E040E05FE360910B0117
:1036000070910C0180910D0190910E010E948D230B
:103610009B01AC016091290670912A0680912B06CE
:1036200090912C060E949A2418160CF08CC00E94CF
:10363000D403C090E801D090E901E090EA01F09055
:10364000EB016C197D098E099F09683C774984401C
:10365000910508F478C01093ED017092EC0160E0E0
:1036600086E00E94FD020E94D4036093E4017093FF
:10367000E5018093E6019093E701209141063091A6
:10368000420640914306509144062093F90130933D
:10369000FA014093FB015093FC018091190690912F
:1036A0001A06A0911B06B0911C068093F501909319
:1036B000F601A093F701B093F801609107017091B2
:1036C00008018091090190910A010E948C239F7743
:1036D00011E020E030E040E85FE30E94D8211816B6
:1036E0000CF410E01093F40186E00E94D40221E073
:1036F000892B09F020E02093F30185E00E94D40299
:1037000021E0009709F020E02093F2012091F301DD
:10371000222309F4F1C1892B09F0EEC1109289002E
:103720001092880080E0882E80E0982E892809F485
:1037300053C90E949204882309F44AC90E940000D8
:1037400047C9019723CF20E030E040E05FE360917C
:103750000B0170910C0180910D0190910E010E945E
:103760008C239B01AC016091290670912A068091FF
:103770002B0690912C060E94D82187FF7ECF0E94B5
:10378000D403C090E801D090E901E090EA01F09004
:10379000EB016C197D098E099F0968317947810514
:1037A000910508F46ACF1093ED0182E08093EC015B
:1037B00080910B0190910C01A0910D01B0910E012F
:1037C0008093850490938604A0938704B093880423
:1037D00081E994E00E94710946CF813009F04DCF14
:1037E000C0902906D0902A06E0902B06F0902C0677
:1037F00080902D0690902E06A0902F06B090300657
:10380000A5019401C701B6010E949A24181674F408
:1038100020913106309132064091330650913406A2
:10382000C501B4010E94D82118164CF50E94D4039A
:103830000091E8011091E9012091EA013091EB013A
:10384000601B710B820B930B28EE33E040E050E0DD
:103850000E946423CA01B9010E94DD2120E030E00A
:1038600041EE54E40E94D82187FD07CF209129061C
:1038700030912A0640912B0650912C0602C0A701D8
:1038800096016091E0017091E1018091E2019091D7
:10389000E3010E948C230E94DB011092ED01EDCE2A
:1038A0000E94D4030091E4011091E5012091E6010A
:1038B0003091E701601B710B820B930B28EE33E014
:1038C00040E050E00E946423CA01B9010E94DD215A
:1038D0006B017C0120E030E044EB52E40E94D821EF
:1038E00087FDCBCE8090290690902A06A0902B06CB
:1038F000B0902C0620E030E040E05FE360910B01E7
:1039000070910C0180910D0190910E010E948C2309
:103910001B012C01AC019B01C501B4010E94D821FF
:1039200087FF13C01092ED011092EC0161E086E078
:103930000E94FD020E94D4036093E8017093E901A4
:103940008093EA019093EB0198CE20E030E046E9C5
:1039500054E4C701B6010E94D82187FF48C020E087
:1039600030E041E655E4C701B6010E94F9232091F9
:1039700003013091040140910501509106010E941C
:103980003E229B01AC01C501B4010E948C234B0176
:103990005C01AC019B01C201B1010E949A2418167E
:1039A000D4F48092E0019092E101A092E201B09201
:1039B000E3017092ED011092EC0161E086E00E945B
:1039C000FD020E94D4036093E8017093E9018093A3
:1039D000EA019093EB0120E030EC48E255E4C701A6
:1039E000B6010E949A2418160CF047CE9BCF6BEAC2
:1039F0007AEA8AEA9EE3BBCF0E94D4030091E401F5
:103A00001091E5012091E6013091E701601B710BF7
:103A1000820B930B0E94DD216B017C0120918904B4
:103A200030918A0440918B0450918C040E94D821DB
:103A300087FD15C02091890430918A0440918B0440
:103A400050918C04C701B6010E949A24181684F480
:103A500085E00E94D402892B59F461E006C085E01C
:103A60000E94D40260E0892B29F385E00E94FD02C8
:103A700080910B0190910C01A0910D01B0910E016C
:103A80008093850490938604A0938704B093880460
:103A900081E994E00E947109882351F00E94D403C7
:103AA0006093E4017093E5018093E6019093E70150
:103AB00020E030E040E05FE360910B0170910C0189
:103AC00080910D0190910E010E948D239B01AC010C
:103AD0006091290670912A0680912B0690912C0600
:103AE0000E949A2418160CF0C8CD1092ED01109285
:103AF000EC0161E085E01CCF6091EE017091EF0177
:103B00008091F0019091F1010E94E0030BCE81E4DD
:103B100091E09093A6028093A50288ED92E00E9426
:103B2000600D82ED92E00E94600D8CEC92E00E94AC
:103B3000600D87EA92E00C94600DEF920F931F9353
:103B4000CF93DF93E80134E047FD34E1042E000C0D
:103B5000550B57FF03C0519541955109E32E022F94
:103B6000242FAE010E94201ECE01DF91CF911F9124
:103B70000F91EF900895662777270C947F1F1F936E
:103B8000FC0199278827BC01E89411911032E9F3D0
:103B9000193010F01E30C8F31B3251F01D3249F4B9
:103BA000689406C00E94F11D610F711D811D911D59
:103BB000119110531A30B0F33EF4909580957095A2
:103BC00061957F4F8F4F9F4F1F910895BB274A30BC
:103BD00031F4992322F4BDE2909581959F4F0C9486
:103BE000071E592F482F372F262F660F771F881F44
:103BF000991F660F771F881F991F620F731F841FFD
:103C0000951F660F771F881F991F0895BB27FB011B
:103C10005527AA27880F991FAA1FA41710F0A41BC5
:103C200083955051B9F7A05DAA3308F0A95DA1931F
:103C3000009779F7B111B1931192CB010C94C8217F
:103C4000A9E0B0E0E6E2FEE10C9410236A01F22E56
:103C5000B02E102FFBE3AF2EA01608F41BE31F5F5E
:103C6000012F27E0AE014F5F5F4F0E94CF20BC01C4
:103C70008981982F9970913009F43FC09BE2E1FC53
:103C800004C09E2D9170E0FC3AC05E2D5071E82F6B
:103C9000E87083FF46C084E0911101C083E0EF2DFE
:103CA000E81B8F1508F0E0E0D6018E2F20E25523A7
:103CB00051F1992329F0D6019C93C60101966C011C
:103CC00096012D5F3F4FE2FE24C08EE4D6018C9317
:103CD00091E411969C93119712968C93D9018E2F93
:103CE00090E281111BC0E20FF32FF11D10828EEFC5
:103CF0009FEF2996ECE00C942C239DE2C6CF90E236
:103D0000C4CF2D9381508111FCCFCE0ED11CE0E0A9
:103D1000D0CF8EE6D6018C9391E6DBCF9D93815078
:103D2000E0CF482F447082FF3DC084E0911101C074
:103D300083E08F1510F4EF2DE81BD6018E2F20E2C3
:103D4000552309F1992329F0D6019C93C6010196C8
:103D50006C0196012D5F3F4FE2FE1BC089E4D60146
:103D60008C938EE411968C93119786E412968C9323
:103D7000D9018E2F90E2882309F4B5CF9D9381500D
:103D8000FACF2D9381508111FCCFCE0ED11CE0E0F3
:103D9000D9CF89E6D6018C938EE611968C93119734
:103DA00086E6E4CF9B0177FF02C030E020E0A1E08F
:103DB000B0E0911102C0B0E0A0E0F9013196AE0F81
:103DC000BF1F8B2C912CBB2009F461C05401EFEF75
:103DD000AE1ABE0AAA0DBB1DFA161B0619F014F086
:103DE0004F2D4A1B511188C0E3FC59C07601A42F06
:103DF000B0E2A1114FC0C40ED11C992309F45BC0DD
:103E000040E0D6011196F60190836D01552309F427
:103E100048C0012F060F9A81582F507184FF03C0AC
:103E2000913309F4015010160CF047C0093008F026
:103E300008E0EEE2FE2E5B01A01AB1088501919424
:103E4000819491082F3F320729F4D601FC92F601A4
:103E500031966F016217730794F1021713077CF50F
:103E6000DB01A21BB30BAA24A394B12CAC0EBD1E84
:103E7000AA0DBB1D11968C9121503109D6011196C6
:103E800028153905F4F0F60180836D01DBCFB12CE4
:103E9000A12CA0CFF701B1937F01A150AACF91111E
:103EA000B0CFD601942F50E302C05D939150911191
:103EB000FCCFC40ED11C40E0ACCF01E0BACF80E310
:103EC000DBCF6217730731F4963388F4953311F41E
:103ED000552369F0F6018083FD01842F90E2811162
:103EE00008C0A40FB11D1C9290E080E002CF81E3D6
:103EF000F1CF91938150F3CF911183CF8ACFB0E06E
:103F0000A0E0E5E8FFE10C9410235C017B01611562
:103F1000710519F0DB018D939C9385010F5F1F4F95
:103F2000F501D0818D2F90E00E94A7216C01892B93
:103F3000B9F5DD32B9F50F5F1F4FD5011196DC9150
:103F4000C1E05801F1E0AF1AB10843E050E060E78A
:103F500070E0C5010E94B021892B69F5680182E0FB
:103F6000C80ED11C45E050E06BE670E0C6010E942F
:103F7000B021892B21F4680197E0C90ED11CE1140E
:103F8000F10419F0D701CD92DC9260E070E080E896
:103F90009FEFC111FFC060E070E080E89FE7FAC0CA
:103FA0005801BBCFDB3229F485010E5F1F4FF501AD
:103FB000D181C0E0C6CF43E050E068E670E0C501C3
:103FC0000E94B021892BE9F0F80110E000E020E028
:103FD00030E0A9015F01B0ED8B2E8D0E89E08815D0
:103FE000C8F19C2E689491F88C2F8870C2FF16C07F
:103FF000811102C00F5F1F4F3196D501DC91C92D91
:10400000E9CFE114F10429F00E5F1F4FF70111838E
:10401000008360E070E080EC9FE7BCC0882311F073
:1040200001501109A5E0B0E00E94FF229B01AC0104
:10403000220F331F441F551F280D311D411D511DD7
:10404000283999E93907490799E15907A8F2C66063
:104050009C2ED2CFAEEF8A1206C0C3FD3CC09C2E70
:10406000689493F8C9CFDF7DD534A9F580818D326E
:1040700039F4C061DF011296818162E070E006C010
:10408000DF018B32C1F3119661E070E080535D0176
:10409000A61AB70A8A30F8F4E0E8CE16ECE0DE069D
:1040A0005CF4B601660F771F660F771FC60ED71E2A
:1040B000CC0CDD1CC80ED11C5D01FFEFAF1ABF0A8E
:1040C0008C9180538A30A8F1C4FF03C0D194C1946D
:1040D000D1080C0D1D1DC1FF09C0E114F10431F020
:1040E00081E0A81AB108D701AD92BC92CA01B9010A
:1040F0000E94DD21C370C33009F490584B015C016C
:1041000020E030E0A9010E94D821882309F440C0B2
:10411000CFE9D0E017FF05C0119501951109C7E857
:10412000D0E06E01B8E1CB1AD10880E2E82EF12C84
:104130000FC0D501B1CFFE01259135914591549124
:104140000E191F09C501B4010E943E224B015C01FA
:10415000D501C4010E151F0574F72497F594E79453
:10416000CC16DD06A9F78A2F880F8B2F881F8F3F6B
:1041700049F020E030E0A901C501B4010E94D82136
:10418000811106C082E290E09093700680936F06E2
:10419000C501B401CDB7DEB7ECE00C942C23283078
:1041A00008F027E03327DA01990F311D87FD916070
:1041B00000966105710539F432602E5F3D9330E35E
:1041C0002A95E1F708959F3F30F080387105610529
:1041D00009F03C5F3C5F3D93913008F08068911D91
:1041E000DF93CF931F930F93FF92EF92192F987F36
:1041F0009695E92F96959695E90FFF27E350FF4F87
:1042000099273327EE24FF24A701E701059008949E
:10421000079428F4360FE71EF81E491F511D660F3C
:10422000771F881F991F0694A1F70590079428F41B
:10423000E70EF81E491F561FC11D770F881F991FD3
:10424000661F0694A1F70590079428F4F80E491FFD
:10425000561FC71FD11D880F991F661F771F069411
:10426000A1F70590079420F4490F561FC71FD81FC8
:10427000990F661F771F881F0694A9F784911095E0
:10428000177041F0D695C79557954795F794E794E1
:104290001A95C1F7E3EAF0E068941590159135910D
:1042A0006591959105907FE27395E118F10A430BB2
:1042B000560BC90BD009C0F7E10CF11E431F561F66
:1042C000C91FD01D7EF4703311F48A95E6CFE894AF
:1042D000015030F0080F0AF40027021708F4202FCD
:1042E0002395022F7A3328F079E37D932A95E9F715
:1042F00010C07D932A9589F6069497956795379512
:1043000017951794E118F10A430B560BC90BD00906
:1043100098F023957E9173957A3308F070E37C933F
:104320002013B8F77E9170617D9330F0839571E32F
:104330007D9370E32A95E1F71124EF90FF900F91A0
:104340001F91CF91DF91992787FD90950895911145
:104350000C94AB22803219F089508550C8F708952B
:10436000FB01DC014150504088F08D9181341CF0FC
:104370008B350CF4805E659161341CF06B350CF468
:10438000605E861B611171F3990B0895881BFCCF49
:10439000DC01FC01672F71917723E1F7329704C0AC
:1043A0007C916D9370836291AE17BF07C8F3089537
:1043B0000E941A2208F481E00895E89409C097FB4E
:1043C0003EF490958095709561957F4F8F4F9F4FEC
:1043D0009923A9F0F92F96E9BB279395F695879530
:1043E00077956795B795F111F8CFFAF4BB0F11F4F3
:1043F00060FF1BC06F5F7F4F8F4F9F4F16C088239A
:1044000011F096E911C0772321F09EE8872F762FCF
:1044100005C0662371F096E8862F70E060E02AF010
:104420009A95660F771F881FDAF7880F96958795FC
:1044300097F90895990F0008550FAA0BE0E8FEEFD1
:1044400016161706E807F907C0F012161306E40758
:10445000F50798F0621B730B840B950B39F40A2651
:1044600061F0232B242B252B21F408950A2609F42F
:10447000A140A6958FEF811D811D08950E945122B4
:104480000C94C5220E94B72238F00E94BE2220F070
:10449000952311F00C94AE220C94B42211240C94A8
:1044A000F9220E94D62270F3959FC1F3950F50E038
:1044B000551F629FF001729FBB27F00DB11D639FD6
:1044C000AA27F00DB11DAA1F649F6627B00DA11D7C
:1044D000661F829F2227B00DA11D621F739FB00D22
:1044E000A11D621F839FA00D611D221F749F332792
:1044F000A00D611D231F849F600D211D822F762F2B
:104500006A2F11249F5750409AF0F1F088234AF007
:10451000EE0FFF1FBB1F661F771F881F9150504073
:10452000A9F79E3F510580F00C94AE220C94F9221D
:104530005F3FE4F3983ED4F3869577956795B795FA
:10454000F795E7959F5FC1F7FE2B880F911D969514
:10455000879597F9089599278827089597F99F6770
:1045600080E870E060E008959FEF80EC08950024FB
:104570000A941616170618060906089500240A94C8
:1045800012161306140605060895092E0394000C4E
:1045900011F4882352F0BB0F40F4BF2B11F460FFDD
:1045A00004C06F5F7F4F8F4F9F4F089557FD905806
:1045B000440F551F59F05F3F71F04795880F97FBE7
:1045C000991F61F09F3F79F08795089512161306A1
:1045D0001406551FF2CF4695F1DF08C016161706D0
:1045E0001806991FF1CF8695710561050894089505
:1045F000E894BB2766277727CB0197F908950E9497
:104600004123A59F900DB49F900DA49F800D911DF7
:10461000112408952F923F924F925F926F927F9252
:104620008F929F92AF92BF92CF92DF92EF92FF92C2
:104630000F931F93CF93DF93CDB7DEB7CA1BDB0B6E
:104640000FB6F894DEBF0FBECDBF09942A88398813
:1046500048885F846E847D848C849B84AA84B9841A
:10466000C884DF80EE80FD800C811B81AA81B98126
:10467000CE0FD11D0FB6F894DEBF0FBECDBFED013A
:104680000895A29FB001B39FC001A39F700D811D2B
:104690001124911DB29F700D811D1124911D08954B
:1046A000AA1BBB1B51E107C0AA1FBB1FA617B70758
:1046B00010F0A61BB70B881F991F5A95A9F7809574
:1046C0009095BC01CD010895A1E21A2EAA1BBB1B37
:1046D000FD010DC0AA1FBB1FEE1FFF1FA217B307CE
:1046E000E407F50720F0A21BB30BE40BF50B661FE4
:1046F000771F881F991F1A9469F7609570958095A8
:1047000090959B01AC01BD01CF010895EE0FFF1FF5
:104710000590F491E02D09945058BB27AA270E94D8
:10472000A4230C94C5220E94B72238F00E94BE2216
:1047300020F039F49F3F19F426F40C94B4220EF4BF
:10474000E095E7FB0C94AE22E92F0E94D62258F3A5
:10475000BA17620773078407950720F079F4A6F566
:104760000C94F8220EF4E0950B2EBA2FA02D0B011D
:10477000B90190010C01CA01A0011124FF27591BA6
:1047800099F0593F50F4503E68F11A16F040A22FAC
:10479000232F342F4427585FF3CF4695379527951D
:1047A000A795F0405395C9F77EF41F16BA0B620B1C
:1047B000730B840BBAF09150A1F0FF0FBB1F661F63
:1047C000771F881FC2F70EC0BA0F621F731F841FA6
:1047D00048F4879577956795B795F7959E3F08F0CC
:1047E000B0CF9395880F08F09927EE0F979587958E
:1047F00008950E940D240C94C5220E94BE2258F0F8
:104800000E94B72240F029F45F3F29F00C94AE22B9
:1048100051110C94F9220C94B4220E94D62268F310
:104820009923B1F3552391F3951B550BBB27AA2769
:1048300062177307840738F09F5F5F4F220F331FA3
:10484000441FAA1FA9F335D00E2E3AF0E0E832D06B
:1048500091505040E695001CCAF72BD0FE2F29D06E
:10486000660F771F881FBB1F261737074807AB0740
:10487000B0E809F0BB0B802DBF01FF2793585F4FB5
:104880003AF09E3F510578F00C94AE220C94F92238
:104890005F3FE4F3983ED4F3869577956795B79597
:1048A000F7959F5FC9F7880F911D9695879597F9A2
:1048B0000895E1E0660F771F881FBB1F621773071B
:1048C0008407BA0720F0621B730B840BBA0BEE1F30
:1048D00088F7E09508950E94DE2288F09F5798F0AF
:1048E000B92F9927B751B0F0E1F0660F771F881FF5
:1048F000991F1AF0BA95C9F714C0B13091F00E940F
:10490000F822B1E008950C94F822672F782F8827B9
:10491000B85F39F0B93FCCF3869577956795B39535
:10492000D9F73EF490958095709561957F4F8F4FA4
:104930009F4F08950E941A2208F48FEF08950F9355
:104940001F93CF93DF938230910510F482E090E0C3
:10495000E0917306F091740630E020E0B0E0A0E052
:10496000309799F42115310509F44AC0281B390BF9
:1049700024303105D8F58A819B816115710589F153
:10498000FB0193838283FE0111C04081518102812A
:10499000138148175907E0F04817590799F4109701
:1049A00061F012960C93129713961C933296CF01D6
:1049B000DF91CF911F910F9108950093730610938B
:1049C0007406F4CF2115310551F04217530738F022
:1049D000A901DB019A01BD01DF01F801C1CFEF019F
:1049E000F9CF9093740680937306CDCFFE01E20F4A
:1049F000F31F819391932250310939832883D7CFB4
:104A00002091710630917206232B41F420911501FB
:104A10003091160130937206209371062091130194
:104A2000309114012115310541F42DB73EB7409165
:104A3000170150911801241B350BE0917106F0917C
:104A40007206E217F307A0F42E1B3F0B2817390755
:104A500078F0AC014E5F5F4F2417350748F04E0FDA
:104A60005F1F5093720640937106819391939FCF7D
:104A7000F0E0E0E09CCFCF93DF930097E9F0FC01FA
:104A8000329713821282A0917306B0917406ED01E1
:104A900030E020E01097A1F420813181820F931F34
:104AA00020917106309172062817390709F061C00C
:104AB000F0937206E0937106DF91CF910895EA01B9
:104AC000CE17DF07E8F54A815B819E01411551054C
:104AD000B1F7E901FB83EA8349915991C40FD51FCE
:104AE000EC17FD0761F4808191810296840F951F78
:104AF000E90199838883828193819B838A83F0E093
:104B0000E0E012968D919C9113970097B9F52D9145
:104B10003C911197CD010296820F931F209171064F
:104B2000309172062817390739F6309751F51092EF
:104B3000740610927306B0937206A0937106BCCFF0
:104B4000D383C28340815181840F951FC817D90731
:104B500061F44E5F5F4F88819981480F591F5183DF
:104B600040838A819B81938382832115310509F0DB
:104B7000B0CFF0937406E09373069ECFFD01DC0185
:104B8000C0CF13821282D7CFB0E0A0E0EAECF5E20A
:104B90000C940C238C01009751F4CB010E949F24AC
:104BA0008C01C801CDB7DEB7E0E10C942823FC01ED
:104BB000E60FF71F9C0122503109E217F30708F4B2
:104BC0009DC0D901CD91DC911197C617D70798F0F8
:104BD000C530D10530F3CE0104978617970708F347
:104BE000C61BD70B2297C193D1936D937C93CF01B2
:104BF0000E943B25D6CF5B01AC1ABD0A4C018C0E3E
:104C00009D1EA0917306B0917406512C412CF12C7D
:104C1000E12C109731F580917106909172068815FC
:104C2000990509F05CC04616570608F058C08091F7
:104C3000130190911401009741F48DB79EB74091F4
:104C4000170150911801841B950BE817F90708F01C
:104C500055C0F0937206E0937106F9017183608389
:104C6000A0CF8D919C91119712966C9012971396EC
:104C70007C901397A815B90559F56C0142E0C40E54
:104C8000D11CCA14DB0420F1AC014A195B09DA011A
:104C90001296159780F06282738251834083D90106
:104CA0006D937C93E114F10471F0D7011396FC939A
:104CB000EE93129776CF22968C0F9D1FF901918368
:104CC0008083F301EFCFF0937406E093730669CF0E
:104CD0004816590608F42C017D01D3019ACFCB0167
:104CE0000E949F247C01009749F0AE01B8010E9408
:104CF0008126C8010E943B25870153CF10E000E0C8
:104D000050CFFB01DC0102C001900D924150504098
:104D1000D8F70895FB01DC018D91019080190110F5
:104D2000D9F3990B0895FB01DC0101900D9200204D
:104D3000E1F70895FB01DC014150504030F08D91C6
:104D40000190801919F40020B9F7881B990B089578
:104D500011E0C0EBD1E004C0FE010E948623219641
:0A4D6000C13BD107C9F7F894FFCF5B
:104D6A005E01010000F041333353403333534000B6
:104D7A00002041000075068000000000004C0F0072
:104D8A00000000790C00000000400F00000000C87D
:104D9A0004280455041505860464047804000000F8
:104DAA0000DD0C747275650066616C736500617272
:104DBA006475696E6F00736574706F696E740066EE
:104DCA00616E6C6576656C0070726F626574656D94
:104DDA0070006368616D62657274656D7000636FFF
:104DEA006F6C696E670068656174696E67007465E7
:104DFA006D707265616368656400686561746F757A
:104E0A0074707574006B700073657400320073659A
:104E1A007269616C006469676974616C006D6F64C2
:104E2A006500616E616C6F67003F00204854545002
:024E3A002F0047
:00000001FF
