:100000000C94B4000C94DC000C94DC000C94DC0028
:100010000C94DC000C94DC000C94DC000C94DC00F0
:100020000C94DC000C94DC000C94DC000C94DC00E0
:100030000C94DC000C94DC000C94DC000C94DC00D0
:100040000C9443190C94DC000C94B3190C948D1986
:100050000C94DC000C94DC000C94DC000C94DC00B0
:100060000C94DC000C94DC004E414E494E4954592E
:10007000494E46CDCCCC3D0AD7233C17B7D1387773
:10008000CC2B329595E6241FB14F0A000020410089
:1000900000C84200401C4620BCBE4CCA1B0E5AAED3
:1000A000C59D74CDCCCC3D0AD7233C17B7D138774A
:1000B000CC2B329595E6241FB14F0A0000803FCD2E
:1000C000CCCC3D6F12833A95BFD6337D1D9026B3BD
:1000D000CE010C000020410000C84200401C462018
:1000E000BCBE4CCA1B0E5AAEC59D74005EBCE2611C
:1000F0003FDD83C29C7E20A3FD1F41009D23BE46A1
:10010000DB65F88C11AF32CA57E974000000002497
:100110000027002A0000000000250028002B000016
:1001200000000800020100000304070000000000B6
:100130000000000000000023002600290004040441
:100140000404040404020202020202030303030380
:10015000030102040810204080010204081020015D
:100160000204081020006D1A11241FBECFEFD8E042
:10017000DEBFCDBF24E0A8ECB1E001C01D92A03AE3
:10018000B207E1F711E0A0E0B1E0E6EFF7E402C06A
:1001900005900D92A83CB107D9F710E0C4EBD0E070
:1001A00004C02197FE010E94C820C33BD107C9F7B4
:1001B0000E947D1B0C94F9230C9400008F929F9257
:1001C000AF92BF92CF92DF92EF92FF926B017C01D0
:1001D00020E030E0A9010E94DC211816A4F420E000
:1001E00030E040E85EE3C701B6010E941A1F18160E
:1001F0000CF465C0FF90EF90DF90CF90BF90AF9070
:100200009F908F90089520E030E040E85EEBC701BA
:10021000B6010E94DC2187FFEDCF80900301909012
:100220000401A0900501B0900601C701B6019058E5
:100230002FE832EC45EF5CE30E94801F2AE939E9A0
:1002400049E95FE30E94CF206B017C012AE939E98B
:1002500049E95FE30E941A1F87FD78C020E030E083
:1002600040EC5FE3C701B6010E94DC21181634F4AC
:10027000C12CD12C20ECE22E2FE3F22EA701960107
:10028000C501B4010E943B216B017C012DEC3CECCB
:100290004CE45DE30E941A1F87FF08C08DECC82E56
:1002A0008CECD82E8CE4E82E8DE3F82EC09203015E
:1002B000D0920401E0920501F09206019BCF80905C
:1002C000030190900401A0900501B09006012FE871
:1002D00032EC45EF5CE3C701B6010E94801F2AE9BA
:1002E00039E949E95FE30E94CF206B017C012AE9EB
:1002F00039E949E95FE30E941A1F87FD1FC020E02A
:1003000030E040EC5FE3C701B6010E94DC21181623
:1003100034F4C12CD12C40ECE42E4FE3F42EA70191
:100320009601C501B4010E94801F60930301709380
:10033000040180930501909306015CCF3AE9C32E36
:1003400039E9D32EED2C3FE3F32EE9CF9AE9C92EFC
:1003500099E9D92EED2C9FE3F92E90CFCF92DF9221
:10036000EF92FF92CF93DF93B091A402A0E08111AE
:10037000AB2F8091A50290E0880F991FAC014D5CD6
:100380005E4FC090AA02D090AB02E090AC02F09019
:10039000AD0230E020E0FA01C591D491E881B901C5
:1003A00090E080E0EB23EA130AC02F5F3F4F6C150B
:1003B0007D058E059F0578F36FEF7FEFCB01DF9111
:1003C000CF91FF90EF90DF90CF900895833081F030
:1003D00028F4813099F08230A9F008958730A9F08F
:1003E0008830C9F08430B1F4809180008F7D03C0E3
:1003F000809180008F7780938000089584B58F77F7
:1004000084BD089584B58F7DFBCF8091B0008F7738
:100410008093B00008958091B0008F7DF9CFCF9385
:10042000DF93282F30E0F901E15EFE4F8491F9015E
:10043000EF5AFE4FD491F901E35CFE4FC491CC23F7
:10044000A1F081110E94E601EC2FF0E0EE0FFF1FFA
:10045000ED5CFE4FA591B491EC91ED2381E090E02D
:1004600009F480E0DF91CF91089580E090E0FACF29
:100470001F93CF93DF93282F30E0F901E15EFE4F09
:100480008491F901EF5AFE4FD491F901E35CFE4FDC
:10049000C491CC23A9F0162F81110E94E601EC2F04
:1004A000F0E0EE0FFF1FEB5EFE4FA591B4918FB70A
:1004B000F894EC91111108C0D095DE23DC938FBF26
:1004C000DF91CF911F910895DE2BF8CFCF93DF936B
:1004D00090E0FC01EF5AFE4F2491835C9E4FFC019B
:1004E00084918823C9F090E0880F991FFC01E55F93
:1004F000FE4FA591B491FC01EB5EFE4FC591D491E6
:1005000061110DC09FB7F8948C91209582238C9334
:100510008881282328839FBFDF91CF91089562307F
:1005200051F49FB7F8943C91822F809583238C934C
:10053000E8812E2BEFCF8FB7F894EC912E2B2C93D4
:100540008FBFEACF3FB7F8948091FA019091FB01F9
:10055000A091FC01B091FD0126B5A89B05C02F3FDD
:1005600019F00196A11DB11D3FBFBA2FA92F982FD9
:100570008827BC01CD01620F711D811D911D42E0D4
:10058000660F771F881F991F4A95D1F708958F929C
:100590009F92AF92BF92CF92DF92EF92FF924B0168
:1005A0005C010E94A2026B017C010E94A2026C19F4
:1005B0007D098E099F09683E734081059105A8F366
:1005C00021E0821A9108A108B10888EEC80E83E0E4
:1005D000D81EE11CF11C81149104A104B10429F777
:1005E000FF90EF90DF90CF90BF90AF909F908F9053
:1005F00008952FB7F8946091F6017091F7018091FA
:10060000F8019091F9012FBF0895CF92DF92EF92F8
:10061000FF920F931F93CF93DF93CDB7DEB7C054F4
:10062000D1400FB6F894DEBF0FBECDBF0E94F902D5
:100630000091A6021091A7022091A8023091A90270
:100640006B017C01C01AD10AE20AF30A9701860104
:10065000003D17402105310590F48091AE02C05C49
:10066000DE4F0FB6F894DEBF0FBECDBFDF91CF9146
:100670001F910F91FF90EF90DF90CF9008956093BE
:10068000A6027093A7028093A8029093A9021092E9
:10069000A1021092A00210929F0210929E0210924C
:1006A0009D0262E08091A2020E94660261E070E019
:1006B00080E090E00E94C70261E08091A2020E9467
:1006C000660260E08091A2020E9438028091A3023B
:1006D0008551823020F58BE291E10197F1F762E0DC
:1006E0008091A2020E9466028091AF0290E0823067
:1006F000910538F0880F991F880F991F059701976A
:10070000F1F7F89480E00E94AE016F3F7F4F8F4F6A
:100710009F4F61F41092AE02789480E0A0CF64E124
:1007200070E080E090E00E94C702D9CF81E00E9493
:10073000AE016F3F7F4F8F4F9F4F61F38E010F5F71
:100740001F4F6E012FEBC21A2EEFD20A780180E004
:100750000E94AE01F701608371838283938381E0FD
:100760000E94AE01F7016483758386839783F8E066
:10077000EF0EF11CEC14FD0451F7789430E020E00A
:10078000F801C080D180E280F38044815581668188
:100790007781FFEFCF16DF06EF06FF0631F04F3F00
:1007A0008FEF58076807780719F41092AE02B5CF9B
:1007B000F90183E0F595E7958A95E1F7E356FD4F5A
:1007C0008081880FC416D506E606F70610F18083EF
:1007D0002F5F3F4F085F1F4F2832310589F6409148
:1007E000A10220919D0280919E02280F3327331F82
:1007F00080919F02280F311D8091A002820F932FBC
:10080000911D99274817190681F681E08093AE0261
:1008100026CF8160DCCFCF92DF92EF92FF920E94D1
:100820000503882349F08091A3028B3028F08D3096
:1008300040F08551823030F160E070E080EC9FE75D
:100840001CC060919E0270E090E080E00E94211F39
:100850002DEC3CEC4CEC5DE30E94801F6B017C01B5
:1008600060919D0270E090E080E00E94211F9B015A
:10087000AC01C701B6010E94CF20FF90EF90DF903E
:10088000CF90089560919D0270919E027627672710
:10089000762790E080E00E941F1F2DEC3CEC4CEC92
:1008A0005DE30E94801FE9CFAF92BF92CF92DF92AB
:1008B000EF92FF920F931F93CF93DF936C017B0115
:1008C0008B01040F151FEB015E01AE18BF08C017A6
:1008D000D10759F06991D601ED91FC910190F08119
:1008E000E02DC6010995892B79F7C501DF91CF91DC
:1008F0001F910F91FF90EF90DF90CF90BF90AF903E
:100900000895FC01538D448D252F30E0842F90E015
:10091000821B930B541710F0CF96089501970895FA
:10092000FC01918D828D981761F0A28DAE0FBF2FC3
:10093000B11D5D968C91928D9F5F9F73928F90E019
:1009400008958FEF9FEF08950F931F930E94F90270
:100950006093060270930702809308029093090245
:100960008EEF91E00E94900497FF1DC00E94F90253
:1009700000910602109107022091080230910902AD
:10098000601B710B820B930B00910202109103020A
:1009900020910402309105026017710782079307C6
:1009A000F8F28FEF9FEF1F910F910895FC01918D49
:1009B000828D981731F0828DE80FF11D858D90E0C2
:1009C00008958FEF9FEF0895FC01918D228D892F5F
:1009D00090E0805C9F4F821B91098F739927089547
:1009E0008EEF91E00E94E40421E0892B09F420E0DD
:1009F000822F089580E090E0892B29F00E94F00476
:100A000081110C9400000895FC01A48DA80FB92F4A
:100A1000B11DA35ABF4F2C91848D90E001968F7326
:100A20009927848FA689B7892C93A089B1898C9145
:100A3000837080648C93938D848D981306C0028894
:100A4000F389E02D80818F7D80830895EF92FF925E
:100A50000F931F93CF93DF93EC0181E0888F9B8DE1
:100A60008C8D98131AC0E889F989808185FF15C09B
:100A70009FB7F894EE89FF896083E889F9898081BE
:100A80008370806480839FBF81E090E0DF91CF918D
:100A90001F910F91FF90EF900895F62E0B8D10E0AF
:100AA0000F5F1F4F0F731127E02E8C8D8E110CC01E
:100AB0000FB607FCFACFE889F989808185FFF5CF69
:100AC000CE010E940405F1CFEB8DEC0FFD2FF11D3F
:100AD000E35AFF4FF0829FB7F8940B8FEA89FB89A6
:100AE00080818062CFCFCF93DF93EC01888D882304
:100AF000B9F0AA89BB89E889F9898C9185FD03C081
:100B0000808186FD0DC00FB607FCF7CF8C9185FF65
:100B1000F2CF808185FFEDCFCE010E940405E9CFA1
:100B2000DF91CF910895DC0180E0615090F09D91BC
:100B30009827E92FEF70F0E0E551FF4F2491E92F5E
:100B4000E295EF70F0E0E550FF4FE491822F8E27A1
:100B5000ECCF0895DC012C911196ED91FC91F89465
:100B60008181822B81839281322F309593239283CE
:100B700087E090E00197F1F781818323818383E20D
:100B800090E00197F1F790817894EFECF0E03197E5
:100B9000F1F7922381E009F480E00895FC0190814F
:100BA0000180F281E02D292F209560FF14C0F89478
:100BB0008281822382838181892B8183A3E2B0E0B9
:100BC0001197F1F78281982B9283789487ED90E0CA
:100BD0000197F1F70895F8948281822382838181BD
:100BE000892B8183AFEFB0E01197F1F78281982BC9
:100BF000928378948FE090E0EBCFEF92FF920F9387
:100C00001F93CF93DF93EC01E62E08E010E0FF2462
:100C1000F39461E08E2D8F2109F460E0CE010E94F3
:100C2000CE05FF0C01501109A1F7F894E981FA8172
:100C300091818881809589238183E981FA819281DC
:100C400088818095892382837894DF91CF911F9149
:100C50000F91FF90EF900895FC0190810180F28147
:100C6000E02DF8948181292F209582238183789427
:100C70003DE743E050E0315029F1DA011197F1F7F7
:100C800080818923C1F3F8948281822382838181C8
:100C9000892B81837894ABE7B7E01197F1F7F8944B
:100CA000818182238183A3E1B1E01197F1F78081F3
:100CB000982381E009F080E07894E3E6F6E031974C
:100CC000F1F7089580E008954F925F926F927F92BE
:100CD0008F929F92AF92BF92CF92DF92EF92FF924C
:100CE0000F931F93CF93DF93CDB7DEB729970FB63E
:100CF000F894DEBF0FBECDBF8C01C0909B02D09098
:100D00009C02C6010E942C0665E5C6010E94FD05F5
:100D10007801580188E0A80EB11CF70161917F01AC
:100D2000C6010E94FD05AE14BF04B9F76EEBC60103
:100D30000E94FD05CE0101967C014E019AE0890ECC
:100D4000911C270188E0682E712CB12CAA24A39451
:100D5000C6010E94AA058111BA28AA0CE1E06E1A08
:100D60007108B1F7F701B1927F018E169F0651F716
:100D700068E0C2010E9493059985891344C0698186
:100D80007A81F80180899189A289B389848B958BB6
:100D9000A68BB78B84859585A685B785808B918B2F
:100DA000A28BB38B80859185A285B3858487958737
:100DB000A687B787072E000C880B990B0E94211F6E
:100DC00020E030E040E85DE30E94801FF80160878A
:100DD00071878287938781E029960FB6F894DEBFEA
:100DE0000FBECDBFDF91CF911F910F91FF90EF907C
:100DF000DF90CF90BF90AF909F908F907F906F903B
:100E00005F904F90089580E0E7CF4F925F926F928E
:100E10007F928F929F92AF92BF92CF92DF92EF928A
:100E2000FF92CF93DF9300D000D000D0CDB7DEB7D4
:100E30009E838D830E946406AD81BE8190968D90C5
:100E40009D90AD90BC909397FD0184A295A2A6A21F
:100E5000B7A2C48CD58CE68CF78C9096CD92DD929F
:100E6000ED92FC92939758968D919D910D90BC9127
:100E7000A02D89839A83AB83BC83848F958FA68FA3
:100E8000B78F248535854685578560897189828924
:100E900093890E94CF2020E030E040E450E40E949B
:100EA000801F2B013C01AD81BE8118962D913D9193
:100EB0004D915C911B9754966D917D918D919C9174
:100EC00057970E94CF209B01AC01C301B2010E9441
:100ED000CF2029E939E948E854E40E943B212B015D
:100EE0003C0128EF38EF48E25FE3C501B4010E94FE
:100EF000801F9B01AC01C301B2010E94CF204B01B6
:100F00005C012DEA37E340E150ECC701B6010E94D5
:100F1000801F9B01AC01C501B4010E94CF206B0171
:100F20007C012EE731E845E250E469817A818B81CA
:100F30009C810E94801F9B01AC01C701B6010E94E9
:100F4000CF20ED81FE81608F718F828F938F2696E7
:100F50000FB6F894DEBF0FBECDBFDF91CF91FF90EB
:100F6000EF90DF90CF90BF90AF909F908F907F9049
:100F70006F905F904F9008950F931F93CF93DF93DF
:100F8000EC0100919B0210919C02C8010E942C066A
:100F90006CECC8010E94FD0564E4C8010E94FD05D7
:100FA000CE010E94640688859985AA85BB858C8BB5
:100FB0009D8BAE8BBF8B888B998BAA8BBB8B8C87C1
:100FC0009D87AE87BF878CA39DA3AEA3BFA388A335
:100FD00099A3AAA3BBA38C8F9D8FAE8FBF8F888F41
:100FE000998FAA8FBB8FDF91CF911F910F91089599
:100FF0000895FA01309741F0248120782C602483F1
:1010000060837183828393830895FB01309729F075
:10101000948190789660948380830895CF93DF9332
:10102000EC0188819981DC01ED91FC910190F081C6
:10103000E02D09952A813B81820F931F9B838A8330
:10104000DF91CF910895CF93DF93EC01888199814F
:10105000DC01ED91FC910280F381E02D09952A815C
:101060003B81820F931F9B838A83DF91CF910895E9
:101070008F929F92AF92BF92CF92DF92EF92FF92A8
:101080000F931F93CF93DF93CDB7DEB766970FB65D
:10109000F894DEBF0FBECDBF6C018E01095E1F4FFD
:1010A00078018AE0882E912CA12CB12CCB01BA01B9
:1010B000A50194010E94A620942F852F605DF80160
:1010C00062938F01A901692F782F411551056105A0
:1010D000710561F7A7014E1B5F0BBF01C6010E949E
:1010E000230866960FB6F894DEBF0FBECDBFDF9122
:1010F000CF911F910F91FF90EF90DF90CF90BF9015
:10110000AF909F908F900895CF92DF92EF92FF92D1
:101110006B017C0120E030E0A9010E941A1F87FDCD
:101120001DC020E030E040E85FE3C701B6010E9447
:10113000DC211816BCF020E030E040EA53E4C7019F
:10114000B6010E94801F0E94AD21709389006093B8
:101150008800FF90EF90DF90CF900895C12CD12CA4
:101160007601E9CFC12CD12C80E8E82E8FE3F82E50
:10117000E2CFFC012581222339F0F8E02F02900113
:101180001124820F931F089590E080E00895FC01E0
:10119000A28DB38D8D919D910D90BC91A02D84ABAE
:1011A00095ABA6ABB7ABDF01D896CF0184559F4F67
:1011B00044A955A966A977A94D935D936D937D9335
:1011C000A817B907A9F708958F929F92AF92BF927F
:1011D000CF92DF92EF92FF920F931F93CF93DF9303
:1011E0008C0104541F4FF8012081211130C0EC0103
:1011F0000E94C708EC8DFD8DC080D180E280F38015
:10120000CCA2DDA2EEA2FFA2FE01E854FF4F808037
:101210009180A280B380A5019401C701B6010E940C
:10122000DC2118162CF48CA29DA2AEA2BFA20FC086
:10123000FE01EC54FF4F80809180A280B380A50115
:101240009401C701B6010E941A1F87FDECCF81E00F
:10125000F8018083DF91CF911F910F91FF90EF9064
:10126000DF90CF90BF90AF909F908F9008952F9276
:101270003F924F925F926F927F928F929F92AF9226
:10128000BF92CF92DF92EF92FF920F931F93CF9373
:10129000DF9300D000D0CDB7DEB71C016A017B011F
:1012A00048015901A9019801CB01B6010E94DC2136
:1012B00087FF64C0C1018C549F4F9A838983FC01CE
:1012C000C082D182E282F382810108541F4FF8016B
:1012D00080829182A282B38234968081882309F42D
:1012E0004DC0F101048CF58DE02DFC83EB83408033
:1012F000518062807380A3019201C501B4010E94F4
:101300001A1F87FF1EC0EB81FC8180829182A2821E
:10131000B382F10184A095A0A6A0B7A0F801C08077
:10132000D180E280F380A7019601C501B4010E943B
:10133000DC211816ACF4F101C4A2D5A2E6A2F7A2F2
:101340001DC0A3019201C701B6010E94DC2118163D
:1013500004F7EB81FC81C082D182E282F382D9CF93
:10136000E981FA81C080D180E280F380A7019601F3
:10137000C501B4010E941A1F87FDDDCF0F900F90A9
:101380000F900F90DF91CF911F910F91FF90EF90F1
:10139000DF90CF90BF90AF909F908F907F906F9095
:1013A0005F904F903F902F9008954F925F926F9271
:1013B0007F928F929F92AF92BF92CF92DF92EF92E5
:1013C000FF920F931F93CF93DF9300D000D000D0F4
:1013D000CDB7DEB79E838D832A013B0148015901B9
:1013E00020E030E0A901CB01B2010E941A1F87FD65
:1013F00081C020E030E0A901C501B8010E941A1F98
:1014000087FD78C020E030E0A901C701B6010E9445
:101410001A1F87FD6FC0ED81FE814082518262827A
:10142000738284829582A682B782C086D186E28644
:10143000F386E455FF4F60817181828193810E9420
:101440001F1F20E030E04AE754E40E943B216983FB
:101450007A838B839C83ED81FE81448655866686E4
:1014600077869B01AC01C501B8010E94801F4B012A
:101470005C01ED81FE81808A918AA28AB38A2981EA
:101480003A814B815C81C701B6010E943B216B010F
:101490007C01ED81FE81C48AD58AE68AF78A808D37
:1014A000918D019739F5A301920160E070E0CB01C5
:1014B0000E94CE20ED81FE8164877587868797879D
:1014C000A501940160E070E0CB010E94CE20ED8187
:1014D000FE81608B718B828B938BA701960160E0FC
:1014E00070E0CB010E94CE20ED81FE81648B758B74
:1014F000868B978B26960FB6F894DEBF0FBECDBFB6
:10150000DF91CF911F910F91FF90EF90DF90CF90DF
:10151000BF90AF909F908F907F906F905F904F9013
:1015200008952F923F924F925F926F927F928F9287
:101530009F92AF92BF92DF92EF92FF920F931F9311
:10154000CF93DF93CDB7DEB72E970FB6F894DEBFFB
:101550000FBECDBFFC01E454FF4FD080D1101AC0A4
:10156000D12C8D2D2E960FB6F894DEBF0FBECDBFB9
:10157000DF91CF911F910F91FF90EF90DF90BF907F
:10158000AF909F908F907F906F905F904F903F9023
:101590002F9008959E878D870E94F90269837A8330
:1015A0008B839C83ED85FE85E455FF4F208131813F
:1015B000428153812D833E834F835887ED85FE857D
:1015C000E055FF4F80819181A281B38129813A81C9
:1015D0004B815C81281B390B4A0B5B0BDA01C9017B
:1015E0002D813E814F81588582179307A407B50747
:1015F00008F4B6CF8091D0018F5F8093D0014D85E4
:101600005E8548555F4F1A018A3001F5FA018D85D4
:101610009E85C49672916291529142914483558302
:10162000668377838E179F07A9F7AD85BE855A9687
:10163000ED91FC9180819181A281B381ED85FE8540
:1016400084AB95ABA6ABB7AB1092D001AD85BE8590
:101650005E968D919C915F975A960D90BC91A02DAE
:101660002D913D914D915C91FC0160817181828150
:1016700093810E94CE202B013C01AD85BE85509602
:101680002D913D914D915C9153970E94801FED8566
:10169000FE8524A135A146A157A10E94CF204B0170
:1016A0005C01AD85BE8594968D929D92AD92BC9263
:1016B0009797FD01E854FF4FE080F180028113818C
:1016C0009701A8010E94DC2118160CF0C5C0C701C3
:1016D000D801ED85FE8584A395A3A6A3B7A3D10168
:1016E0002D913D914D915C91ED85FE8564A975A983
:1016F00086A997A90E94CE2020E030E046E953E475
:101700000E943B214B015C01AD85BE851C962D914D
:101710003D914D915C911F97C301B2010E94801FC2
:101720002B013C01ED85FE8540A251A262A273A26D
:1017300064897589868997899058A50194010E94CA
:10174000801F4B015C01AD85BE8598968D929D9260
:10175000AD92BC929B9794962D913D914D915C9149
:101760009797C301B2010E94CF20A50194010E9466
:10177000CF204B015C019B01AC01B701C8010E9465
:101780001A1F87FD12C0ED85FE85EC54FF4FE080E7
:10179000F180028113819701A801B401C5010E9463
:1017A0001A1F87FD02C074018501ED85FE85E35493
:1017B000FF4F8081811134C0ED85FE8584A495A4FE
:1017C000A6A4B7A46D817E818F81988528EE33E031
:1017D00040E050E00E94A620CA01B9010E941F1FEC
:1017E000AD85BE85D0962D913D914D915C91D3975D
:1017F0000E943B212B013C01A5019401B701C801C6
:101800000E94CE209B01AC01C301B2010E94801F47
:101810009B01AC01C501B4010E94CF207B018C016A
:10182000AD85BE855C96ED91FC91C701D8018083A2
:101830009183A283B383ED85FE8584A795A7A6A790
:10184000B7A7E055FF4F29813A814B815C81208306
:1018500031834283538385CEED85FE85EC54FF4F63
:10186000208131814281538129873A874B875C8768
:10187000C501B4010E941A1F87FF31CF89859A855F
:10188000AB85BC8526CF6F927F928F929F92AF924D
:10189000BF92CF92DF92EF92FF920F931F93CF935D
:1018A000DF93CDB7DEB74C01CB013A01D901B801C6
:1018B000A70196018501F401758E648E938F828F46
:1018C000B78FA68FE454FF4F1082319681E080835A
:1018D00039971082118212821382349680E090E050
:1018E000AFE7B3E480839183A283B3833401FCEA3E
:1018F0006F0E711C84E690E0A0E0B0E0F3018083FD
:101900009183A283B383D40159961C921E92589757
:10191000C988DA88EB88FC88C4010E94D5090E9436
:10192000F902F401E055FF4FD3010D911D912D9166
:101930003C91601B710B820B930B608371838283DC
:101940009383DF91CF911F910F91FF90EF90DF90E4
:10195000CF90BF90AF909F908F907F906F900895A1
:10196000FC0180819181009711F00C947D220895F3
:10197000FB0101900020E9F73197AF01461B570B9F
:101980000C9423081F93CF93DF93EFE3F1E01281D0
:10199000112379F0329621816213F9CFEC016CE5C5
:1019A0000E940E08612FCE01DF91CF911F910C9400
:1019B0000E086111F9CF60E571E0DF91CF911F91C1
:1019C0000C94B80C2F923F924F925F926F927F923D
:1019D0008F929F92AF92BF92CF92DF92EF92FF923F
:1019E0000F931F93CF93DF93CDB7DEB76C970FB6EE
:1019F000F894DEBF0FBECDBF8C011B01DC01149635
:101A00008C9114978F77863009F492C268F58230F2
:101A1000A0F11296ED90FC901397CC901196DC906B
:101A2000843008F056C2A701B601C1010E94230804
:101A3000F101828193816C960FB6F894DEBF0FBEE0
:101A4000CDBFDF91CF911F910F91FF90EF90DF906D
:101A5000CF90BF90AF909F908F907F906F905F904E
:101A60004F903F902F9008958C3069F160F488304A
:101A700009F459C28A3009F43FC267E571E0C10137
:101A80000E94B80CE5C1803209F4ECC18034A9F79A
:101A90006BE5C1010E940E08F8010081118101155A
:101AA000110509F4DAC1B101C8010E94E20CC801B4
:101AB0000E94B9088C01892B09F4CFC16CE2C101E5
:101AC0000E940E08ECCFF801C080D180E280F38044
:101AD000A7019601C701B6010E941A1F8111CDCF3F
:101AE00020E030E0A901C701B6010E941A1F882337
:101AF00079F0A7019601C701B6010E94CF209B0192
:101B0000AC01C701B6010E941A1F882309F4B5CFA2
:101B100020E030E0A901C701B6010E941A1F87FF2B
:101B200008C06DE2C1010E940E08F7FAF094F7F8C0
:101B3000F09420E836E948E15BE4C701B6010E9471
:101B4000DC2187FD81C074E1A72EB12C00E210E0FA
:101B5000188E1F8AF501ED52FF4F25913591459161
:101B60005491C701B6010E94DC2187FD13C0F50125
:101B7000ED55FF4F2591359145915491C701B6011F
:101B80000E94801F6B017C012F89388D200F311F2F
:101B9000388F2F8B1595079534E0A31AB1088CEF79
:101BA000A8168FEFB806B1F655245A9420E030E01D
:101BB000A901C701B6010E94DC2118160CF04BC028
:101BC0002CEA35EC47E257E3C701B6010E941A1F21
:101BD00018160CF440C0A52DB4E0AB02C0011124CE
:101BE000B12CA12CFC01E554FF4F3F019C012D526B
:101BF0003F4F49013FEF531671F1F301EA0DFB1D11
:101C00002591359145915491C701B6010E941A1F43
:101C100087FF13C0F401EA0DFB1D25913591459115
:101C20005491C701B6010E94801F6B017C018F890E
:101C3000988D801B910B988F8F8B159507955A94D3
:101C400094E0A91AB108D6CF00E210E055E0552E75
:101C5000188E1F8AABCFC701B6010E94AD214B0180
:101C60005C012B013C0106E080E492E4AFE0B0E0CF
:101C7000898F9A8FAB8FBC8F102F01509AE0491635
:101C8000510461047104C8F0698D7A8D8B8D9C8D2F
:101C90002AE030E040E050E00E94A620298F3A8FF1
:101CA0004B8F5C8FC301B2012AE030E040E050E08E
:101CB0000E94A62029013A01DFCFC501B4010E948C
:101CC0001F1F9B01AC01C701B6010E94CE206B0112
:101CD0007C01698D7A8D8B8D9C8D0E941F1F9B01CD
:101CE000AC01C701B6010E94801F2B013C010E947C
:101CF000AD216B017C010E941F1F9B01AC01C30140
:101D0000B2010E94CE209B01AC010E94CF200E9414
:101D1000AD21C60ED71EE81EF91E898D9A8DAB8D9A
:101D2000BC8DC816D906EA06FB06D8F09FEF891AC3
:101D3000990AA90AB90AAF89B88DAB2B39F1BAE073
:101D40008B169104A104B10408F1EF89F88D319646
:101D5000F88FEF8BC12CD12C7601812C912C540162
:101D600083942AE0422E512C612C712CC701B601BC
:101D7000A30192010E94A620672B682B692B51F4C6
:101D8000111644F469017A011150F0CFC12CD12C05
:101D90007601E7CFB501A401C1010E9438081123E3
:101DA00071F14E01F1E18F0E911C012F54019AE067
:101DB000492E512C612C712C015068F0C701B601DD
:101DC000A30192010E94A620605DD4016E934D0193
:101DD00069017A01F1CF812F90E0BC016095709587
:101DE000F501E81BF90B31978EE2808344275527D4
:101DF000461B570B6A0D7B1DC1010E942308EF890A
:101E0000F88DEF2B29F165E6C1010E940E080F89BC
:101E1000188D17FF07C06DE2C1010E940E081195D1
:101E200001951109FE0177969F018AE0E82EF12CB9
:101E3000C801B7010E949220805D82938B01672BBD
:101E4000B9F7A9014E1B5F0BBF01C1010E94230816
:101E5000D10112968D919C91EECD6DE5C1010E944C
:101E60000E08F6CF6BE7C1010E940E08F801008151
:101E700011810115110559F1D8011696CC901697CC
:101E80001796DC9062E2C1010E940E087601F7010C
:101E900061917F01662321F0C1010E94C20CF7CF3E
:101EA00062E2C1010E940E086AE3C1010E940E08AD
:101EB000B101C8010E94E20CC8010E94B9088C015E
:101EC000892B29F06CE2C1010E940E08D2CF6DE788
:101ED000C5CF62E2C1010E940E088601E00EF11E2C
:101EE000E016F10639F0F80161918F01C1010E94FD
:101EF000C20CF6CF62E2B2CFCD90DD90ED90FC90B7
:101F0000B701A601F7FE0BC06DE2C1010E940E08E9
:101F100044275527BA014C195D096E097F09C10193
:101F20000E94380885CD4D915D916D917C91F7CFE0
:101F30008C916CE571E0811102C061E671E0C10134
:101F40000E94B80C75CDCF93DF9300D000D0CDB7F1
:101F5000DEB72EEF31E03A8329831C821B82BE015B
:101F60006F5F7F4F09960E94E20C0F900F900F90C9
:101F70000F90DF91CF910895FC01808191810097AE
:101F800011F00C94A51D60E070E0CB010895FC01F8
:101F900024813581232B39F421E0FB0180818823C2
:101FA00049F020E007C0808191810E94CC2321E08C
:101FB000892BB9F7822F0895CF92DF92EF92FF928B
:101FC0000F931F93CF93DF93FC018481982F9F770A
:101FD00039F48078806284831182108213821282A5
:101FE000848185FD0BC080E090E0DF91CF911F914F
:101FF0000F91FF90EF90DF90CF90089561157105DC
:1020000091F3EA017B016F01008111810115110536
:1020100089F1D80116966D917C91C7010E94CC235D
:10202000892B31F1C8010E94B9088C01EFCF389794
:10203000FD83EC833097B9F2E601AA81BB8110974A
:1020400091F0CF018A1B9B0B23E0959587952A95EC
:10205000E1F715968C93FB83EA8315821482F7824D
:10206000E682CF01C2CFF983E883FB83EA83F5CF11
:10207000C801BBCFEC81FD818A819B810896E8175E
:10208000F907A8F681E08887AECF4F925F926F92F2
:102090007F928F929F92AF92BF92CF92DF92EF92F8
:1020A000FF920F931F93CF93DF93CDB7DEB7CE513F
:1020B000D2400FB6F894DEBF0FBECDBF61E089E01D
:1020C0000E94660261E08AE00E94660282EA8093D2
:1020D000800081E18093810080E491E0909387000B
:1020E00080938600109289001092880010928B00D5
:1020F00010928A0061E083E00E94660210927000F4
:1021000017BA83E28093B0008AE08093B1008FE435
:102110008093B3001092B4008090F1019090F2018E
:10212000A090F301B090F401C501B4010E948408AD
:1021300061E086E00E94660261E086E00E9438026B
:1021400061E085E00E94660261E085E00E9438025D
:1021500062E08091A2020E9466020E94F902605D24
:102160007740810991096093A6027093A70280933A
:10217000A8029093A90287E38093AF02E0910E0238
:10218000F0910F0282E08083E0910A02F0910B024D
:102190001082E0910C02F0910D0280E18083109298
:1021A0001602E0911202F091130286E08083E09122
:1021B0001002F0911102808180618083E091100211
:1021C000F0911102808188608083E0911002F0918B
:1021D0001102808180688083E0911002F0911102E9
:1021E00080818F7D80838CE394E00E94BC0784E62D
:1021F00094E00E94BC078091230190912401A0915A
:102200002501B0912601CD5FDD4F88839983AA8394
:10221000BB83C350D24080911F0190912001A091B7
:102220002101B0912201C95FDD4F88839983AA8380
:10223000BB83C750D24080911B0190911C01A0919B
:102240001D01B0911E01C55FDD4F88839983AA836C
:10225000BB83CB50D240CD5FDD4FC880D980EA80B0
:10226000FB80C350D240C95FDD4F088119812A81AC
:102270003B81C750D240AC01BD018EE793E00E9484
:10228000D50988EEC82E83E0D82EE12CF12C2091C0
:102290002A0430912B0440912C0450912D04C70145
:1022A000B6010E94A620CA01B9010E941F1F2B017E
:1022B0003C01AC019B0160918E0370918F03809172
:1022C0009003909191030E94801F60938E037093FE
:1022D0008F038093900390939103A30192016091E7
:1022E00092037091930380919403909195030E94BF
:1022F0003B21609392037093930380939403909394
:102300009503C0922A04D0922B04E0922C04F09200
:102310002D0400E010E028E432E44AE959E969E9D3
:102320007EE38EE793E00E9437098EE793E00E94F8
:10233000E40810923B0480E090E0A0E2B1E48093D6
:10234000AE039093AF03A093B003B093B1038EE7B5
:1023500093E00E94C70880910F0190911001A09115
:102360001101B0911201C15FDD4F88839983AA8367
:10237000BB83CF50D24080910B0190910C01A09172
:102380000D01B0910E01CD5EDD4F88839983AA8344
:10239000BB83C351D2408091070190910801A09165
:1023A0000901B0910A01C95EDD4F88839983AA8330
:1023B000BB83C751D240C15FDD4FC880D980EA805E
:1023C000FB80CF50D240CD5EDD4F088119812A813C
:1023D0003B81C351D240AC01BD018CEB92E00E9425
:1023E000D50990E6C92E9AEED92EE12CF12C209138
:1023F00068033091690340916A0350916B03C701F0
:10240000B6010E94A620CA01B9010E941F1F2B011C
:102410003C01AC019B016091CC027091CD02809196
:10242000CE029091CF020E94801F6093CC027093E5
:10243000CD028093CE029093CF02A30192016091CE
:10244000D0027091D1028091D2029091D3020E9469
:102450003B216093D0027093D1028093D20290937B
:10246000D302C0926803D0926903E0926A03F092AB
:102470006B0300E010E62AE637E440E050E0BA01E2
:102480008CEB92E00E9437098CEB92E00E94E4080A
:102490008CEB92E00E94C70840906C0450906D0451
:1024A00060906E0470906F044092ED015092EE01C6
:1024B0006092EF017092F001809144049091450484
:1024C000A0914604B0914704C55EDD4F888399838F
:1024D000AA83BB83CB51D2408093E9019093EA0158
:1024E000A093EB01B093EC010E940B046B017C0103
:1024F000C092E501D092E601E092E701F092E80196
:1025000086E00E940F0201E0892B09F000E00093B1
:10251000E40185E00E940F0211E0892B09F010E030
:102520001093E301CE010F969A8389839C838B835A
:102530008C509E4F9E838D8398878F8319861E862D
:10254000AE014F5F5F4F67E671E0895F91400E9487
:10255000DC0FAC01609113017091140180911501A1
:10256000909116010E94F907AE014F5F5F4F60E73F
:1025700071E0CE010A960E94DC0FAC01C501B401E6
:102580000E94F907AE014F5F5F4F69E771E0CE012E
:102590000A960E94DC0FAC01C301B2010E94F90748
:1025A000AE014F5F5F4F63E871E0CE010A960E9473
:1025B000DC0FAC01C55EDD4F688179818A819B812A
:1025C000CB51D2400E94F907AE014F5F5F4F6FE8D9
:1025D00071E0CE010A960E94DC0FAC01C701B60182
:1025E0000E94F907AE014F5F5F4F68E971E0CE01CD
:1025F0000A960E94DC0FBC01802F0E940508AE01E4
:102600004F5F5F4F60EA71E0CE010A960E94DC0FD7
:10261000BC01812F0E940508AE014F5F5F4F6CEA3D
:1026200071E0CE010A960E94DC0FAC0160911701A7
:10263000709118018091190190911A010E94F90777
:10264000AE014F5F5F4F68EA71E0CE010A960E94CB
:10265000DC0FAC016091B4027091B5028091B602BA
:102660009091B7020E94F907AE014F5F5F4F64EB94
:1026700071E0CE010A960E94DC0FAC01C55FDD4F10
:10268000688179818A819B81CB50D2400E94F90771
:10269000AE014F5F5F4F68EB71E0CE010A960E947A
:1026A000DC0FAC01C95FDD4F688179818A819B8134
:1026B000C750D2400E94F907AE014F5F5F4F6CEBED
:1026C00071E0CE010A960E94DC0FAC01CD5FDD4FB8
:1026D000688179818A819B81C350D2400E94F90729
:1026E000AE014F5F5F4F63EB71E0CE010A960E942F
:1026F000DC0FAC01C95EDD4F688179818A819B81E5
:10270000C751D2400E94F907AE014F5F5F4F67EBA0
:1027100071E0CE010A960E94DC0FAC01CD5EDD4F68
:10272000688179818A819B81C351D2400E94F907D7
:10273000AE014F5F5F4F6BEB71E0CE010A960E94D6
:10274000DC0FAC01C15FDD4F688179818A819B819B
:10275000CF50D2400E94F9078EEF91E00E94E4042E
:10276000892B21F0CE0101960E94A30F88E199E206
:102770000FB6F894A895809360000FBE9093600008
:10278000C25EDD4F0FB6F894DEBF0FBECDBFDF9146
:10279000CF911F910F91FF90EF90DF90CF90BF905E
:1027A000AF909F908F907F906F905F904F90089523
:1027B0004F925F926F927F928F929F92AF92BF9251
:1027C000CF92DF92EF92FF920F931F93CF93DF93FD
:1027D000CDB7DEB7C250D2400FB6F894DEBF0FBE01
:1027E000CDBF0E94F902C090D101D090D201E090FB
:1027F000D301F090D40120910001309101014601F4
:102800005701820E931EA11CB11C95018401601713
:10281000710782079307A8F080910201882389F04D
:1028200000919B0210919C02C8010E942C066CEC46
:10283000C8010E94FD0564E4C8010E94FD051092D4
:1028400002010E94F9024B015C01C701B6010E941E
:102850001F1F20E030E04AE754E40E94CF200E948E
:10286000AD2186169706A806B90608F44CC00E944A
:10287000F9026093D1017093D2018093D3019093B8
:10288000D40181E0809302010FEF1FEFA8950F5F45
:102890001F4FA0909B02B0909C0288E0C82ED12CC4
:1028A000F12CEE24E394C5010E94AA058111FE28B3
:1028B000EE0C21E0C21AD108B1F7FF2039F3809164
:1028C000000190910101012B09F0F7C1019690934D
:1028D0000101809300018CE394E00E94050784E6E7
:1028E00094E00E94050780917C0490917D04A09162
:1028F0007E04B0917F0480937A0390937B03A0932E
:102900007C03B0937D038EE793E00E94910A1091BF
:10291000E101113009F480C2123009F42AC3809118
:10292000E201811116C220E030E040E05FE36091F7
:102930001701709118018091190190911A010E945C
:10294000CF209B01AC01609154047091550480919B
:102950005604909157040E94DC2118160CF0AFC168
:102960000E94F902C090DD01D090DE01E090DF010D
:10297000F090E0016C197D098E099F09683C774948
:102980008440910508F49BC11093E20181E080939B
:10299000E10160E086E00E9438020E94F902609343
:1029A000D9017093DA018093DB019093DC014090B0
:1029B0006C0450906D0460906E0470906F044092AF
:1029C000ED015092EE016092EF017092F001809063
:1029D000440490904504A0904604B090470480922F
:1029E000E9019092EA01A092EB01B092EC010E9401
:1029F0000B046B017C01C092E501D092E601E092EC
:102A0000E701F092E80186E00E940F0201E0892BC5
:102A100009F000E00093E40185E00E940F0211E05C
:102A2000892B09F010E01093E301CE010F969A83F1
:102A300089839C838B838C509E4F9E838D83988744
:102A40008F8319861E86AE014F5F5F4F67E671E088
:102A5000895F91400E94DC0FAC016091130170917D
:102A6000140180911501909116010E94F907AE01A1
:102A70004F5F5F4F60E771E0CE010A960E94DC0F66
:102A8000AC016091F1017091F2018091F30190919C
:102A9000F4010E94F907AE014F5F5F4F69E771E0F3
:102AA000CE010A960E94DC0FAC01C301B2010E9464
:102AB000F907AE014F5F5F4F63E871E0CE010A9600
:102AC0000E94DC0FAC01C501B4010E94F907AE0100
:102AD0004F5F5F4F6FE871E0CE010A960E94DC0FF6
:102AE000AC01C701B6010E94F907AE014F5F5F4F0D
:102AF00068E971E0CE010A960E94DC0FBC01802FCC
:102B00000E940508AE014F5F5F4F60EA71E0CE01A1
:102B10000A960E94DC0FBC01812F0E940508AE01BD
:102B20004F5F5F4F6CEA71E0CE010A960E94DC0FA6
:102B3000AC01609117017091180180911901909179
:102B40001A010E94F907AE014F5F5F4F68EA71E01A
:102B5000CE010A960E94DC0FAC016091B402709124
:102B6000B5028091B6029091B7020E94F907AE01BA
:102B70004F5F5F4F64EB71E0CE010A960E94DC0F5D
:102B8000AC0160911B0170911C0180911D0190911D
:102B90001E010E94F907AE014F5F5F4F68EB71E0C5
:102BA000CE010A960E94DC0FAC0160911F0170916A
:102BB000200180912101909122010E94F907AE012C
:102BC0004F5F5F4F6CEB71E0CE010A960E94DC0F05
:102BD000AC016091230170912401809125019091B5
:102BE00026010E94F907AE014F5F5F4F63EB71E072
:102BF000CE010A960E94DC0FAC0160910701709132
:102C000008018091090190910A010E94F907AE0123
:102C10004F5F5F4F67EB71E0CE010A960E94DC0FB9
:102C2000AC0160910B0170910C0180910D019091AC
:102C30000E010E94F907AE014F5F5F4F6BEB71E031
:102C4000CE010A960E94DC0FAC0160910F017091D9
:102C5000100180911101909112010E94F9078EEFED
:102C600091E00E94E404892B21F0CE0101960E949C
:102C7000A30F8091E4018111FCC18091E3018111D6
:102C8000F8C11092890010928800CE5FDD4F0FB618
:102C9000F894DEBF0FBECDBFDF91CF911F910F9192
:102CA000FF90EF90DF90CF90BF90AF909F908F906C
:102CB0007F906F905F904F900895019708CE20E02D
:102CC00030E040E05FE3609117017091180180915E
:102CD000190190911A010E94CE209B01AC016091D4
:102CE00054047091550480915604909157040E94A9
:102CF0001A1F87FF5CCE0E94F902C090DD01D090C0
:102D0000DE01E090DF01F090E0016C197D098E0991
:102D10009F09683F7A428105910508F448CE1093D7
:102D2000E20182E08093E101809117019091180106
:102D3000A0911901B0911A018093B0029093B10251
:102D4000A093B202B093B3028CEB92E00E94910A7E
:102D500024CE813009F02BCEC0905404D09055047D
:102D6000E0905604F09057048090580490905904D5
:102D7000A0905A04B0905B04A5019401C701B6016C
:102D80000E94DC21181674F420915C0430915D04DB
:102D900040915E0450915F04C501B4010E941A1F66
:102DA00018164CF50E94F9020091DD011091DE0128
:102DB0002091DF013091E001601B710B820B930BBE
:102DC00028EE33E040E050E00E94A620CA01B9019D
:102DD0000E941F1F20E030E046E154E40E941A1FC9
:102DE00087FDE5CD2091540430915504409156045F
:102DF0005091570402C0A70196016091D5017091CE
:102E0000D6018091D7019091D8010E94CE200E94D6
:102E1000DE001092E201CBCD0E94F9020091D901AF
:102E20001091DA012091DB013091DC01601B710B04
:102E3000820B930B28EE33E040E050E00E94A62086
:102E4000CA01B9010E941F1F6B017C0120E030E024
:102E500040EF51E40E941A1F87FDA9CD80905404D1
:102E600090905504A0905604B090570420E030E0B4
:102E700040E05FE3609117017091180180911901A2
:102E800090911A010E94CE202B013C01AC019B01C4
:102E9000C501B4010E941A1F87FF13C01092E201FE
:102EA0001092E10161E086E00E9438020E94F9027E
:102EB0006093DD017093DE018093DF019093E00168
:102EC00076CD20E030E046E953E4C701B6010E9428
:102ED0001A1F87FF49C020E030E041E655E4C701F2
:102EE000B6010E943B2120910301309104014091E1
:102EF0000501509106010E94801F9B01AC01C50194
:102F0000B4010E94CE204B015C01AC019B01C301C6
:102F1000B2010E94DC211816DCF48092D501909257
:102F2000D601A092D701B092D80181E08093E2014E
:102F30001092E10161E086E00E9438020E94F902ED
:102F40006093DD017093DE018093DF019093E001D7
:102F500020E030EC48E255E4C701B6010E94DC21D4
:102F600018160CF024CD9ACF6BEA7AEA8AEA9DE330
:102F7000BACF0E94F9020091D9011091DA01209193
:102F8000DB013091DC01601B710B820B930B0E9403
:102F90001F1F6B017C012091B4023091B50240915A
:102FA000B6025091B7020E941A1F87FD15C02091EA
:102FB000B4023091B5024091B6025091B702C701F8
:102FC000B6010E94DC21181684F485E00E940F02ED
:102FD000892B59F461E006C085E00E940F0260E091
:102FE000892B29F385E00E94380280911701909186
:102FF0001801A0911901B0911A018093B002909329
:10300000B102A093B202B093B3028CEB92E00E94A3
:10301000910A882351F00E94F9026093D9017093BC
:10302000DA018093DB019093DC0120E030E040E0A6
:103030005FE36091170170911801809119019091DF
:103040001A010E94CF209B01AC0160915404709141
:10305000550480915604909157040E94DC21181663
:103060000CF0A5CC1092E2011092E10161E085E044
:103070001BCF6091F1017091F2018091F301909169
:10308000F4010E94840801CE0F931F93CF93DF9326
:10309000EC0188819981009759F02A813B8126179C
:1030A000370730F081E0DF91CF911F910F910895A4
:1030B0008B016F5F7F4F0E940623009759F0998321
:1030C00088831B830A832C813D81232B59F7FC01C4
:1030D0001082E8CF80E0E7CFEF92FF920F931F932B
:1030E000CF93DF93EC017B018A01BA010E9444185F
:1030F00028813981811114C02115310519F0C901C8
:103100000E947D22198218821D821C821B821A82D3
:10311000CE01DF91CF911F910F91FF90EF90089515
:103120001D830C83B701C9010E94D523F1CF8F9273
:103130009F92AF92BF92CF92DF92EF92FF920F9346
:103140001F93CF93DF93EC018B01FB01C480D580EB
:10315000D60111972FEF3FEFB12CA12C90E080E02A
:1031600070E060E0A817B9072CF14617570734F153
:10317000FC0131967F018C159D0560F4F80180807B
:1031800091808114910431F0F401E80FF91FE0817E
:10319000ED3319F0A817B90759F46F5F7F4F590144
:1031A000FFEFAF1ABF0A9701A817B90709F09C01F2
:1031B000C701D8CF461757070CF057C069012A1529
:1031C0003B0510F065015901198218821B821A8291
:1031D0001D821C8250E040E06FE471E0CE010E944D
:1031E0006C18F801E480F580CE14DF0418F5AE14F5
:1031F000BF0408F47501F80160817181FB01EE0DD7
:10320000FF1DB08010826C0D7D1D6115710501F1EF
:10321000FB0101900020E9F73197AF01461B570BE6
:10322000CE010E946C18F80180819181E80EF91E90
:10323000F701B082CE01DF91CF911F910F91FF90E6
:10324000EF90DF90CF90BF90AF909F908F900895B8
:1032500088819981009711F00E947D22198218823D
:103260001D821C821B821A82DECF198218821B8269
:103270001A821D821C8250E040E06FE471E0CE01B2
:103280000E946C18D7CF1F920F920FB60F92112485
:103290002F933F938F939F93AF93BF938091F601AA
:1032A0009091F701A091F801B091F9013091F501E9
:1032B00023E0230F2D3758F50196A11DB11D209352
:1032C000F5018093F6019093F701A093F801B09374
:1032D000F9018091FA019091FB01A091FC01B0915C
:1032E000FD010196A11DB11D8093FA019093FB0190
:1032F000A093FC01B093FD01BF91AF919F918F917D
:103300003F912F910F900FBE0F901F90189526E8B8
:10331000230F0296A11DB11DD2CF1F920F920FB69F
:103320000F9211242F933F934F935F936F937F934B
:103330008F939F93AF93BF93EF93FF938EEF91E0A3
:103340000E940405FF91EF91BF91AF919F918F91E2
:103350007F916F915F914F913F912F910F900FBE91
:103360000F901F9018951F920F920FB60F92112475
:103370002F938F939F93EF93FF93E0910E02F09121
:103380000F028081E0911402F091150282FD1BC0B2
:103390009081809117028F5F8F732091180282179E
:1033A00041F0E0911702F0E0E250FE4F958F8093DC
:1033B0001702FF91EF919F918F912F910F900FBE68
:1033C0000F901F9018958081F4CFBF92CF92DF921B
:1033D000EF92FF920F931F93CF93DF936C01C091F5
:1033E0009B02D0919C028D858823B9F01B861D8697
:1033F0001C8667E0C6010E94930591E0F6012781D3
:10340000281390E0892FDF91CF911F910F91FF90AA
:10341000EF90DF90CF90BF900895CE010E942C06D0
:10342000882321F360EFCE010E94FD0501E0E12C2D
:10343000B12C11E0CE010E94AA05F82ECE010E9407
:10344000AA0591E0F91216C0813089F5113470F2A5
:10345000BB86B11002C081E08D878B81882331F259
:103460002396F601C6010896299121938E179F078E
:10347000D9F7BFCFEE2DF0E0F8120FC08B851817EB
:10348000A0F4DE01AE0FBF1F13968C91802379F458
:10349000F12C193008F41C87B12EEC0FFD1F83812D
:1034A000902F9095892383830AC08113F1CFFE0169
:1034B000EE0DF11D8381802B8383FF24F3946F2D08
:1034C000CE010E94CE051F5F000F11F4E39401E0CE
:1034D000E7E0EE1508F0AECFB9CFAF92BF92CF9232
:1034E000DF92EF92FF920F931F93109201021092BE
:1034F000000288EE93E0A0E0B0E080930202909397
:103500000302A0930402B093050281E391E090933B
:10351000FF018093FE0185EC90E090930B02809375
:103520000A0284EC90E090930D0280930C0280ECF0
:1035300090E090930F0280930E0281EC90E09093C4
:1035400011028093100282EC90E09093130280931A
:10355000120286EC90E09093150280931402109270
:103560001702109218021092190210921A0260E0CB
:1035700082E00E946602E3E5F1E0E491E0938C04CE
:10358000EFE3F1E0E491F0E0EE0FFF1FED5CFE4FA2
:103590008591949190938E0480938D04109297045A
:1035A0001092990410929804109296041092950427
:1035B0001092940410929304109292041092910429
:1035C0001092900410928F0480919B0290919C0223
:1035D000892B31F48CE894E090939C0280939B02B9
:1035E00084E694E00E94E51980919B0290919C02F0
:1035F000892B31F48CE894E090939C0280939B0299
:103600008CE394E00E94E519A0901F01B090200186
:10361000C0902101D0902201E0901B01F0901C018C
:1036200000911D0110911E01809126018F938091C0
:1036300025018F93809124018F93809123018F9393
:1036400023E131E047E151E06AE773E08EE793E080
:103650000E94430CA0900B01B0900C01C0900D0192
:10366000D0900E01E0900701F0900801009109014F
:1036700010910A01809112018F93809111018F9313
:10368000809110018F9380910F018F9320EB32E096
:1036900044EB52E068EB72E08CEB92E00E94430C4A
:1036A00087E08093A2028BE08093A302E8E5F1E03B
:1036B000E491E093A402E4E4F1E0E491E093A50254
:1036C00080E89EE3A0E0B0E08093AA029093AB0272
:1036D000A093AC02B093AD028DB79EB708960FB61B
:1036E000F8949EBF0FBE8DBF1F910F91FF90EF907A
:1036F000DF90CF90BF90AF900895CF93DF93CDB779
:10370000DEB76E970FB6F894DEBF0FBECDBF7894CC
:1037100084B5826084BD84B5816084BD85B58260D6
:1037200085BD85B5816085BD80916E008160809387
:103730006E001092810080918100826080938100F0
:103740008091810081608093810080918000816000
:10375000809380008091B10084608093B10080915B
:10376000B00081608093B00080917A008460809383
:103770007A0080917A00826080937A0080917A004A
:10378000816080937A0080917A00806880937A00CB
:103790001092C1000E94451080E0A82E80E0B82E53
:1037A000A8950E94D8138EEF91E00E94E404892B23
:1037B00009F429C11A8E198E1C8E1B8E1E8E1D8E29
:1037C00050E040E06FE471E0CE0149960E946C1831
:1037D0000E94A40497FD1EC08A309105D9F0898308
:1037E0001A820D8D1E8D0F5F1F4FB801CE014996B5
:1037F0000E944418882361F3298D3A8D8D8D9E8D0A
:10380000BE016F5F7F4F820F931F0E94D5231E8FD3
:103810000D8FDECF42E050E06FEB71E08EEF91E074
:103820000E9454041A8219821C821B821E821D82ED
:1038300045E050E062EC71E0CE0101960E946C1808
:103840004D815E818D8D9E8D8417950770F0898DD9
:103850009A8D009751F069817A816115710529F07F
:103860000E94DC2311E0892B09F010E0CE010196C3
:103870000E94B00C112309F4C2C01C8A1B8A1E8A44
:103880001D8A188E1F8A698D7A8D6115710531F038
:103890004D8D5E8DCE0143960E946C181A8219825E
:1038A0001C821B821E821D826B897C8961157105B9
:1038B00031F04F89588DCE0101960E946C1850E06E
:1038C00040E0BE016F5F7F4FCE010D960E949718BA
:1038D000CE0101960E94B00C1A8219821C821B82B2
:1038E0001E821D826B897C896115710531F04F89BB
:1038F000588DCE0101960E946C1841E050E0BE0147
:103900006F5F7F4FCE0107960E949718CE010196F8
:103910000E94B00C49895A8941155105B9F0BA0184
:103920004530510510F065E070E08D859E85461BA1
:10393000570B5A8B498B680F791F0E94EA23ED853C
:10394000FE8589899A89E80FF91F108267E671E080
:10395000CE010D960E94C70F882309F460C0CE01E6
:1039600007960E94BC0F609313017093140180931B
:10397000150190931601C0902301D0902401E0908E
:103980002501F090260100911F0110912001209146
:1039900021013091220140911B0150911C01609145
:1039A0001D0170911E018EE793E00E94D509C09021
:1039B0000F01D0901001E0901101F09012010091E0
:1039C0000B0110910C0120910D0130910E014091DD
:1039D0000701509108016091090170910A018CEB77
:1039E00092E00E94D509CE0107960E94B00CCE014C
:1039F0000D960E94B00CCE0143960E94B00CCE01F1
:103A000049960E94B00CA114B10409F4C9CE0E94D9
:103A1000F004882309F4C4CE0E940000C1CE60E700
:103A200071E0CE010D960E94C70F882379F0CE0178
:103A300007960E94BC0F6093F1017093F20180938E
:103A4000F3019093F4010E94840895CF64EB71E038
:103A5000CE010D960E94C70F882369F0CE0107960C
:103A60000E94BC0F60931B0170931C0180931D0189
:103A700090931E0180CF68EB71E0CE010D960E94FD
:103A8000C70F882369F0CE0107960E94BC0F609390
:103A90001F017093200180932101909322016BCF2D
:103AA0006CEB71E0CE010D960E94C70F882369F080
:103AB000CE0107960E94BC0F6093230170932401EE
:103AC000809325019093260156CF63EB71E0CE01E0
:103AD0000D960E94C70F882369F0CE0107960E94B9
:103AE000BC0F6093070170930801809309019093C4
:103AF0000A0141CF67EB71E0CE010D960E94C70F1E
:103B0000882369F0CE0107960E94BC0F60930B01D9
:103B100070930C0180930D0190930E012CCF6BEBF1
:103B200071E0CE010D960E94C70F882309F423CFC0
:103B3000CE0107960E94BC0F60930F017093100195
:103B4000809311019093120116CF662777270C946A
:103B5000A91DB0E0A0E0EFEAFDE10C9452205C0169
:103B60007B016115710519F0DB018D939C93850133
:103B70000F5F1F4FF501D0818D2F90E00E94F91E3D
:103B80006C01892BB9F5DD32B9F50F5F1F4FD501F7
:103B90001196DC91C1E05801F1E0AF1AB10843E0A1
:103BA00050E060E770E0C5010E94021F892B69F5B3
:103BB000680182E0C80ED11C45E050E06BE670E081
:103BC000C6010E94021F892B21F4680197E0C90EEB
:103BD000D11CE114F10419F0D701CD92DC9260E020
:103BE00070E080E89FEFC111FFC060E070E080E806
:103BF0009FE7FAC05801BBCFDB3229F485010E5F85
:103C00001F4FF501D181C0E0C6CF43E050E068E628
:103C100070E0C5010E94021F892BE9F0F80110E055
:103C200000E020E030E0A9015F01B0ED8B2E8D0EA9
:103C300089E08815C8F19C2E689491F88C2F8870C3
:103C4000C2FF16C0811102C00F5F1F4F3196D50110
:103C5000DC91C92DE9CFE114F10429F00E5F1F4F6B
:103C6000F7011183008360E070E080EC9FE7BCC047
:103C7000882311F001501109A5E0B0E00E94412015
:103C80009B01AC01220F331F441F551F280D311D0E
:103C9000411D511D283999E93907490799E159070B
:103CA000A8F2C6609C2ED2CFAEEF8A1206C0C3FD2A
:103CB0003CC09C2E689493F8C9CFDF7DD534A9F51C
:103CC00080818D3239F4C061DF011296818162E01A
:103CD00070E006C0DF018B32C1F3119661E070E045
:103CE00080535D01A61AB70A8A30F8F4E0E8CE16D0
:103CF000ECE0DE065CF4B601660F771F660F771FF7
:103D0000C60ED71ECC0CDD1CC80ED11C5D01FFEF0A
:103D1000AF1ABF0A8C9180538A30A8F1C4FF03C048
:103D2000D194C194D1080C0D1D1DC1FF09C0E1142F
:103D3000F10431F081E0A81AB108D701AD92BC922C
:103D4000CA01B9010E941F1FC370C33009F4905803
:103D50004B015C0120E030E0A9010E941A1F88237A
:103D600009F440C0CFE9D0E017FF05C011950195D7
:103D70001109C7E8D0E06E01B8E1CB1AD10880E2A2
:103D8000E82EF12C0FC0D501B1CFFE012591359160
:103D9000459154910E191F09C501B4010E94801F5D
:103DA0004B015C01D501C4010E151F0574F7249762
:103DB000F594E794CC16DD06A9F78A2F880F8B2F90
:103DC000881F8F3F49F020E030E0A901C501B40110
:103DD0000E941A1F811106C082E290E090939B041A
:103DE00080939A04C501B401CDB7DEB7ECE00C9422
:103DF0006E2091110C94ED1F803219F0895085507E
:103E0000C8F70895FB01DC014150504088F08D91C6
:103E100081341CF08B350CF4805E659161341CF0AC
:103E20006B350CF4605E861B611171F3990B08957C
:103E3000881BFCCF0E945C1F08F481E00895E89481
:103E400009C097FB3EF490958095709561957F4FE2
:103E50008F4F9F4F9923A9F0F92F96E9BB27939590
:103E6000F695879577956795B795F111F8CFFAF4A0
:103E7000BB0F11F460FF1BC06F5F7F4F8F4F9F4FD1
:103E800016C0882311F096E911C0772321F09EE82F
:103E9000872F762F05C0662371F096E8862F70E095
:103EA00060E02AF09A95660F771F881FDAF7880F6F
:103EB0009695879597F90895990F0008550FAA0BC5
:103EC000E0E8FEEF16161706E807F907C0F012162D
:103ED0001306E407F50798F0621B730B840B950B30
:103EE00039F40A2661F0232B242B252B21F4089585
:103EF0000A2609F4A140A6958FEF811D811D089522
:103F00000E94931F0C9407200E94F91F38F00E9412
:103F1000002020F0952311F00C94F01F0C94F61F54
:103F200011240C943B200E94182070F3959FC1F33C
:103F3000950F50E0551F629FF001729FBB27F00D57
:103F4000B11D639FAA27F00DB11DAA1F649F6627AC
:103F5000B00DA11D661F829F2227B00DA11D621FFB
:103F6000739FB00DA11D621F839FA00D611D221FB5
:103F7000749F3327A00D611D231F849F600D211D99
:103F8000822F762F6A2F11249F5750409AF0F1F01C
:103F900088234AF0EE0FFF1FBB1F661F771F881F85
:103FA00091505040A9F79E3F510580F00C94F01FAE
:103FB0000C943B205F3FE4F3983ED4F386957795CD
:103FC0006795B795F795E7959F5FC1F7FE2B880F2B
:103FD000911D9695879597F90895992788270895B3
:103FE00097F99F6780E870E060E008959FEF80ECAC
:103FF000089500240A94161617061806090608954F
:1040000000240A9412161306140605060895092EB4
:104010000394000C11F4882352F0BB0F40F4BF2B23
:1040200011F460FF04C06F5F7F4F8F4F9F4F089563
:1040300057FD9058440F551F59F05F3F71F0479559
:10404000880F97FB991F61F09F3F79F0879508953E
:10405000121613061406551FF2CF4695F1DF08C05D
:10406000161617061806991FF1CF8695710561057A
:1040700008940895E894BB2766277727CB0197F922
:1040800008950E948320A59F900DB49F900DA49F3A
:10409000800D911D112408952F923F924F925F92AF
:1040A0006F927F928F929F92AF92BF92CF92DF9248
:1040B000EF92FF920F931F93CF93DF93CDB7DEB7AD
:1040C000CA1BDB0B0FB6F894DEBF0FBECDBF099441
:1040D0002A88398848885F846E847D848C849B8498
:1040E000AA84B984C884DF80EE80FD800C811B81A6
:1040F000AA81B981CE0FD11D0FB6F894DEBF0FBED5
:10410000CDBFED010895A29FB001B39FC001A39F51
:10411000700D811D1124911DB29F700D811D112400
:10412000911D0895AA1BBB1B51E107C0AA1FBB1F0D
:10413000A617B70710F0A61BB70B881F991F5A9533
:10414000A9F780959095BC01CD010895A1E21A2EA2
:10415000AA1BBB1BFD010DC0AA1FBB1FEE1FFF1F2B
:10416000A217B307E407F50720F0A21BB30BE40B7B
:10417000F50B661F771F881F991F1A9469F76095C2
:104180007095809590959B01AC01BD01CF0108957C
:10419000EE0FFF1F0590F491E02D09945058BB27B6
:1041A000AA270E94E6200C9407200E94F91F38F0ED
:1041B0000E94002020F039F49F3F19F426F40C945B
:1041C000F61F0EF4E095E7FB0C94F01FE92F0E9418
:1041D000182058F3BA17620773078407950720F071
:1041E00079F4A6F50C943A200EF4E0950B2EBA2F34
:1041F000A02D0B01B90190010C01CA01A0011124ED
:10420000FF27591B99F0593F50F4503E68F11A1698
:10421000F040A22F232F342F4427585FF3CF469529
:1042200037952795A795F0405395C9F77EF41F164B
:10423000BA0B620B730B840BBAF09150A1F0FF0F15
:10424000BB1F661F771F881FC2F70EC0BA0F621F01
:10425000731F841F48F4879577956795B795F795F1
:104260009E3F08F0B0CF9395880F08F09927EE0F86
:104270009795879508950E944F210C9407200E94DE
:10428000002058F00E94F91F40F029F45F3F29F008
:104290000C94F01F51110C943B200C94F61F0E94BB
:1042A000182068F39923B1F3552391F3951B550B0F
:1042B000BB27AA2762177307840738F09F5F5F4FF9
:1042C000220F331F441FAA1FA9F335D00E2E3AF038
:1042D000E0E832D091505040E695001CCAF72BD050
:1042E000FE2F29D0660F771F881FBB1F26173707A1
:1042F0004807AB07B0E809F0BB0B802DBF01FF27D3
:1043000093585F4F3AF09E3F510578F00C94F01FA0
:104310000C943B205F3FE4F3983ED4F38695779569
:104320006795B795F7959F5FC9F7880F911D96958B
:10433000879597F90895E1E0660F771F881FBB1FE7
:10434000621773078407BA0720F0621B730B840B94
:10435000BA0BEE1F88F7E09508950E94202088F0A0
:104360009F5798F0B92F9927B751B0F0E1F0660F39
:10437000771F881F991F1AF0BA95C9F714C0B1307A
:1043800091F00E943A20B1E008950C943A20672FF2
:10439000782F8827B85F39F0B93FCCF386957795A9
:1043A0006795B395D9F73EF4909580957095619592
:1043B0007F4F8F4F9F4F08950E945C1F08F48FEF2F
:1043C00008950F931F93CF93DF938230910510F4DC
:1043D00082E090E0E0919E04F0919F0430E020E0C4
:1043E000B0E0A0E0309799F42115310509F44AC0F6
:1043F000281B390B24303105D8F58A819B81611542
:10440000710589F1FB0193838283FE0111C0408114
:1044100051810281138148175907E0F04817590765
:1044200099F4109761F012960C93129713961C93BF
:104430003296CF01DF91CF911F910F910895009394
:104440009E0410939F04F4CF2115310551F04217BB
:10445000530738F0A901DB019A01BD01DF01F80122
:10446000C1CFEF01F9CF90939F0480939E04CDCFED
:10447000FE01E20FF31F819391932250310939839A
:104480002883D7CF20919C0430919D04232B41F4A5
:104490002091290130912A0130939D0420939C049E
:1044A00020912701309128012115310541F42DB7C4
:1044B0003EB740912B0150912C01241B350BE0910C
:1044C0009C04F0919D04E217F307A0F42E1B3F0B10
:1044D0002817390778F0AC014E5F5F4F2417350776
:1044E00048F04E0F5F1F50939D0440939C048193AE
:1044F00091939FCFF0E0E0E09CCFCF93DF930097C4
:10450000E9F0FC01329713821282A0919E04B091CF
:104510009F04ED0130E020E01097A1F4208131816B
:10452000820F931F20919C0430919D042817390716
:1045300009F061C0F0939D04E0939C04DF91CF915A
:104540000895EA01CE17DF07E8F54A815B819E01F5
:1045500041155105B1F7E901FB83EA83499159916E
:10456000C40FD51FEC17FD0761F48081918102967D
:10457000840F951FE90199838883828193819B83AE
:104580008A83F0E0E0E012968D919C91139700975A
:10459000B9F52D913C911197CD010296820F931F91
:1045A00020919C0430919D042817390739F63097E3
:1045B00051F510929F0410929E04B0939D04A09315
:1045C0009C04BCCFD383C28340815181840F951F4B
:1045D000C817D90761F44E5F5F4F88819981480FF2
:1045E000591F518340838A819B8193838283211544
:1045F000310509F0B0CFF0939F04E0939E049ECF65
:10460000FD01DC01C0CF13821282D7CFB0E0A0E061
:10461000ECE0F3E20C944E208C01009751F4CB01B6
:104620000E94E1218C01C801CDB7DEB7E0E10C9416
:104630006A20FC01E60FF71F9C0122503109E217A6
:10464000F30708F49DC0D901CD91DC911197C617ED
:10465000D70798F0C530D10530F3CE0104978617FF
:10466000970708F3C61BD70B2297C193D1936D937D
:104670007C93CF010E947D22D6CF5B01AC1ABD0A8C
:104680004C018C0E9D1EA0919E04B0919F04512C54
:10469000412CF12CE12C109731F580919C049091E4
:1046A0009D048815990509F05CC04616570608F068
:1046B00058C08091270190912801009741F48DB74F
:1046C0009EB740912B0150912C01841B950BE8174C
:1046D000F90708F055C0F0939D04E0939C04F9019C
:1046E00071836083A0CF8D919C91119712966C90ED
:1046F000129713967C901397A815B90559F56C017C
:1047000042E0C40ED11CCA14DB0420F1AC014A19EA
:104710005B09DA011296159780F0628273825183E9
:104720004083D9016D937C93E114F10471F0D701BA
:104730001396FC93EE93129776CF22968C0F9D1FC3
:10474000F90191838083F301EFCFF0939F04E0930D
:104750009E0469CF4816590608F42C017D01D30147
:104760009ACFCB010E94E1217C01009749F0AE0174
:10477000B8010E94C323C8010E947D22870153CF44
:1047800010E000E050CFFB01DC0102C001900D926F
:1047900041505040D8F70895FB01DC018D91019004
:1047A00080190110D9F3990B0895FB01DC010190E8
:1047B0000D920020E1F70895FB01DC0141505040CB
:1047C00030F08D910190801919F40020B9F7881B01
:1047D000990B0895FB01DC014150504048F00190D5
:1047E0000D920020C9F701C01D9241505040E0F7E2
:0647F0000895F894FFCFCC
:1047F6005E01010000F0410000A0400000803E3351
:1048060033933F3333534033335340000020416FDB
:1048160012033A0000FA430000A0048000000000E2
:10482600002605540481047305E4049004D6042F7D
:104836002F22225C5C6208660C6E0A720D740900F7
:104846005C7530303030006E756C6C007472756556
:104856000066616C736500736574706F696E7400D1
:1048660066616E6C6576656C0070726F6265746504
:104876006D70006368616D62657274656D70006865
:10488600756D696469747900636F6F6C696E670032
:1048960068656174696E6700686561746F757470C8
:1048A600757400686B7000686B6900686B64000D56
:0848B6000A002F7365743F0036
:00000001FF
